{"contracts/SplitRouter.sol":{"SplitRouter":{"abi":[{"inputs":[{"internalType":"address","name":"_higher","type":"address"},{"internalType":"address","name":"_weth","type":"address"},{"internalType":"address","name":"_uniswapPool","type":"address"},{"internalType":"address","name":"_uniswapRouter","type":"address"},{"internalType":"address","name":"_uniswapQuoter","type":"address"},{"internalType":"address","name":"_positionManager","type":"address"},{"internalType":"address","name":"_devWallet","type":"address"}],"stateMutability":"nonpayable","type":"constructor"},{"inputs":[{"internalType":"uint256","name":"amount","type":"uint256"}],"name":"AmountTooSmall","type":"error"},{"inputs":[],"name":"ArithmeticOverflow","type":"error"},{"inputs":[],"name":"ArraysLengthMismatch","type":"error"},{"inputs":[],"name":"CannotSwapHigherToHigher","type":"error"},{"inputs":[],"name":"EmptyArrays","type":"error"},{"inputs":[{"internalType":"uint256","name":"required","type":"uint256"},{"internalType":"uint256","name":"available","type":"uint256"}],"name":"InsufficientHigherBalance","type":"error"},{"inputs":[{"internalType":"uint256","name":"expected","type":"uint256"},{"internalType":"uint256","name":"received","type":"uint256"}],"name":"InsufficientOutputAmount","type":"error"},{"inputs":[],"name":"InvalidTokenAddress","type":"error"},{"inputs":[],"name":"SwapOutputWouldBeZero","type":"error"},{"anonymous":false,"inputs":[{"indexed":true,"internalType":"address","name":"user","type":"address"},{"indexed":false,"internalType":"address[]","name":"tokens","type":"address[]"},{"indexed":false,"internalType":"uint256[]","name":"amounts","type":"uint256[]"},{"indexed":false,"internalType":"uint256","name":"totalAmountOut","type":"uint256"}],"name":"BulkSwapExecuted","type":"event"},{"anonymous":false,"inputs":[{"indexed":false,"internalType":"uint256","name":"totalHigher","type":"uint256"},{"indexed":false,"internalType":"uint256","name":"userAmount","type":"uint256"},{"indexed":false,"internalType":"uint256","name":"polAmount","type":"uint256"},{"indexed":false,"internalType":"uint256","name":"platformFee","type":"uint256"},{"indexed":false,"internalType":"uint256","name":"contractBalance","type":"uint256"}],"name":"DistributionDebug","type":"event"},{"anonymous":false,"inputs":[{"indexed":true,"internalType":"address","name":"previousOwner","type":"address"},{"indexed":true,"internalType":"address","name":"newOwner","type":"address"}],"name":"OwnershipTransferred","type":"event"},{"anonymous":false,"inputs":[{"indexed":true,"internalType":"address","name":"token","type":"address"},{"indexed":false,"internalType":"uint256","name":"amountIn","type":"uint256"},{"indexed":false,"internalType":"uint256","name":"amountOut","type":"uint256"}],"name":"SwapDebug","type":"event"},{"anonymous":false,"inputs":[{"indexed":true,"internalType":"address","name":"user","type":"address"},{"indexed":true,"internalType":"address","name":"tokenIn","type":"address"},{"indexed":false,"internalType":"uint256","name":"amountIn","type":"uint256"},{"indexed":false,"internalType":"uint256","name":"amountOut","type":"uint256"},{"indexed":false,"internalType":"uint256","name":"polAmount","type":"uint256"},{"indexed":false,"internalType":"uint256","name":"platformFee","type":"uint256"}],"name":"SwapExecuted","type":"event"},{"inputs":[],"name":"BASE_CHAIN_ID","outputs":[{"internalType":"uint256","name":"","type":"uint256"}],"stateMutability":"view","type":"function"},{"inputs":[],"name":"BASE_GOERLI_CHAIN_ID","outputs":[{"internalType":"uint256","name":"","type":"uint256"}],"stateMutability":"view","type":"function"},{"inputs":[],"name":"BASE_SEPOLIA_CHAIN_ID","outputs":[{"internalType":"uint256","name":"","type":"uint256"}],"stateMutability":"view","type":"function"},{"inputs":[],"name":"DEFAULT_FEE","outputs":[{"internalType":"uint24","name":"","type":"uint24"}],"stateMutability":"view","type":"function"},{"inputs":[],"name":"DEV_WALLET","outputs":[{"internalType":"address","name":"","type":"address"}],"stateMutability":"view","type":"function"},{"inputs":[],"name":"FEE_DENOMINATOR","outputs":[{"internalType":"uint256","name":"","type":"uint256"}],"stateMutability":"view","type":"function"},{"inputs":[],"name":"HIGHER","outputs":[{"internalType":"address","name":"","type":"address"}],"stateMutability":"view","type":"function"},{"inputs":[],"name":"PLATFORM_FEE","outputs":[{"internalType":"uint256","name":"","type":"uint256"}],"stateMutability":"view","type":"function"},{"inputs":[],"name":"POL_RECIPIENT","outputs":[{"internalType":"address","name":"","type":"address"}],"stateMutability":"view","type":"function"},{"inputs":[],"name":"POL_SHARE","outputs":[{"internalType":"uint256","name":"","type":"uint256"}],"stateMutability":"view","type":"function"},{"inputs":[],"name":"POSITION_MANAGER","outputs":[{"internalType":"address","name":"","type":"address"}],"stateMutability":"view","type":"function"},{"inputs":[],"name":"UNISWAP_POOL","outputs":[{"internalType":"address","name":"","type":"address"}],"stateMutability":"view","type":"function"},{"inputs":[],"name":"UNISWAP_QUOTER","outputs":[{"internalType":"address","name":"","type":"address"}],"stateMutability":"view","type":"function"},{"inputs":[],"name":"UNISWAP_ROUTER","outputs":[{"internalType":"address","name":"","type":"address"}],"stateMutability":"view","type":"function"},{"inputs":[],"name":"USER_SHARE","outputs":[{"internalType":"uint256","name":"","type":"uint256"}],"stateMutability":"view","type":"function"},{"inputs":[],"name":"WETH","outputs":[{"internalType":"address","name":"","type":"address"}],"stateMutability":"view","type":"function"},{"inputs":[],"name":"WETH_HIGHER_POOL","outputs":[{"internalType":"address","name":"","type":"address"}],"stateMutability":"view","type":"function"},{"inputs":[{"internalType":"address","name":"token","type":"address"}],"name":"emergencyWithdraw","outputs":[],"stateMutability":"nonpayable","type":"function"},{"inputs":[],"name":"emergencyWithdrawETH","outputs":[],"stateMutability":"nonpayable","type":"function"},{"inputs":[{"internalType":"address[]","name":"tokens","type":"address[]"},{"internalType":"uint256[]","name":"amounts","type":"uint256[]"},{"internalType":"uint256","name":"minReceive","type":"uint256"}],"name":"executeBulkSwap","outputs":[],"stateMutability":"nonpayable","type":"function"},{"inputs":[{"internalType":"address","name":"tokenIn","type":"address"},{"internalType":"uint256","name":"amountIn","type":"uint256"},{"internalType":"uint256","name":"minReceive","type":"uint256"}],"name":"executeSwap","outputs":[],"stateMutability":"nonpayable","type":"function"},{"inputs":[{"internalType":"address[]","name":"tokens","type":"address[]"},{"internalType":"uint256[]","name":"amounts","type":"uint256[]"}],"name":"getBulkSwapQuote","outputs":[{"internalType":"uint256","name":"totalAmountOut","type":"uint256"},{"internalType":"uint256[]","name":"individualQuotes","type":"uint256[]"}],"stateMutability":"nonpayable","type":"function"},{"inputs":[{"internalType":"address","name":"tokenIn","type":"address"},{"internalType":"uint256","name":"amountIn","type":"uint256"}],"name":"getSwapQuote","outputs":[{"internalType":"uint256","name":"amountOut","type":"uint256"}],"stateMutability":"nonpayable","type":"function"},{"inputs":[],"name":"owner","outputs":[{"internalType":"address","name":"","type":"address"}],"stateMutability":"view","type":"function"},{"inputs":[],"name":"quoter","outputs":[{"internalType":"contract IQuoter","name":"","type":"address"}],"stateMutability":"view","type":"function"},{"inputs":[],"name":"renounceOwnership","outputs":[],"stateMutability":"nonpayable","type":"function"},{"inputs":[],"name":"swapRouter","outputs":[{"internalType":"contract ISwapRouter","name":"","type":"address"}],"stateMutability":"view","type":"function"},{"inputs":[{"internalType":"address","name":"newOwner","type":"address"}],"name":"transferOwnership","outputs":[],"stateMutability":"nonpayable","type":"function"}],"evm":{"bytecode":{"linkReferences":{},"object":"6101a06040523480156200001257600080fd5b5060405162002515380380620025158339810160408190526200003591620001c9565b62000040336200015c565b6001805546612105148062000057575062014a3446145b8062000065575062014a3346145b620000c75760405162461bcd60e51b815260206004820152602760248201527f53706c6974526f757465723a204f6e6c7920776f726b73206f6e2042617365206044820152666e6574776f726b60c81b60648201526084015b60405180910390fd5b6001600160a01b038116620001145760405162461bcd60e51b8152602060048201526012602482015271125b9d985b1a590819195d881dd85b1b195d60721b6044820152606401620000be565b6001600160a01b0396871660a05294861660c05292851660e052908416610100819052908416610120819052918416610140529190921660805261016052610180526200025e565b600080546001600160a01b038381166001600160a01b0319831681178455604051919092169283917f8be0079c531659141344cd1fd0a4f28419497f9722a3daafe3b4186f6b6457e09190a35050565b80516001600160a01b0381168114620001c457600080fd5b919050565b600080600080600080600060e0888a031215620001e557600080fd5b620001f088620001ac565b96506200020060208901620001ac565b95506200021060408901620001ac565b94506200022060608901620001ac565b93506200023060808901620001ac565b92506200024060a08901620001ac565b91506200025060c08901620001ac565b905092959891949750929550565b60805160a05160c05160e0516101005161012051610140516101605161018051612166620003af600039600081816103c301528181610cf601528181610ddb0152818161161e015261172701526000818161039c015281816117eb0152818161193701528181611a6b0152611b9b015260006101ce0152600061036201526000818161040d0152610f730152600061021201526000818161033b01528181610c3d01528181610c8801528181610ff2015281816115d1015281816116b9015281816117b20152818161182601528181611ab50152611bd60152600081816104340152818161058c01528181610b0601528181610cad01528181610d9201528181611198015281816112a3015281816113490152818161140501528181611498015281816116de01528181611855015281816119810152611c0501526000818161023901526113d601526121666000f3fe608060405234801561001057600080fd5b50600436106101c45760003560e01c8063a10eaa89116100f9578063d73792a911610097578063efc21e3f11610071578063efc21e3f14610456578063f1b09fc11461045f578063f2fde38b14610469578063f34a2cf61461047c57600080fd5b8063d73792a914610400578063d826492014610408578063ee7cf4151461042f57600080fd5b8063b492fc69116100d3578063b492fc6914610384578063c31c9c0714610397578063c6bbd5a7146103be578063d56d7f06146103e557600080fd5b8063a10eaa891461032e578063ad5c464814610336578063b268630b1461035d57600080fd5b80634fcc1def1161016657806377a59bb51161014057806377a59bb5146102e15780637fcf07171461030257806384536017146103155780638da5cb5b1461031d57600080fd5b80634fcc1def146102a95780636ff1c9bc146102c6578063715018a6146102d957600080fd5b806334fbc9a1116101a257806334fbc9a11461025b578063367917e31461027157806344df4be61461028c5780634c28233f1461029457600080fd5b80631bea83fe146101c95780631d6105771461020d5780632d04f82014610234575b600080fd5b6101f07f000000000000000000000000000000000000000000000000000000000000000081565b6040516001600160a01b0390911681526020015b60405180910390f35b6101f07f000000000000000000000000000000000000000000000000000000000000000081565b6101f07f000000000000000000000000000000000000000000000000000000000000000081565b610263600281565b604051908152602001610204565b6101f073d2a963866bd6d8de525ac726ac79ddf46c28748681565b610263601281565b6102a76102a2366004611d36565b610486565b005b6102b261271081565b60405162ffffff9091168152602001610204565b6102a76102d4366004611dc6565b6107ee565b6102a76108fa565b6102f46102ef366004611de1565b61090e565b604051610204929190611e4d565b6102a7610310366004611e9b565b610ab1565b6102a7610be2565b6000546001600160a01b03166101f0565b610263605081565b6101f07f000000000000000000000000000000000000000000000000000000000000000081565b6101f07f000000000000000000000000000000000000000000000000000000000000000081565b610263610392366004611ece565b610c39565b6101f07f000000000000000000000000000000000000000000000000000000000000000081565b6101f07f000000000000000000000000000000000000000000000000000000000000000081565b6101f073cc28456d4ff980cee3457ca809a257e52cd9cdb081565b610263606481565b6101f07f000000000000000000000000000000000000000000000000000000000000000081565b6101f07f000000000000000000000000000000000000000000000000000000000000000081565b61026361210581565b61026362014a3481565b6102a7610477366004611dc6565b610e62565b61026362014a3381565b61048e610edb565b8382146104ae576040516307e11acb60e51b815260040160405180910390fd5b60008490036104d05760405163a600c81d60e01b815260040160405180910390fd5b6000805b8581101561075f5760008787838181106104f0576104f0611ef8565b90506020020160208101906105059190611dc6565b6001600160a01b03160361052c57604051630f58058360e11b815260040160405180910390fd5b84848281811061053e5761053e611ef8565b9050602002013560000361058a5784848281811061055e5761055e611ef8565b9050602002013560405163717d748560e11b815260040161058191815260200190565b60405180910390fd5b7f00000000000000000000000000000000000000000000000000000000000000006001600160a01b03168787838181106105c6576105c6611ef8565b90506020020160208101906105db9190611dc6565b6001600160a01b031603610602576040516302f6bd9160e01b815260040160405180910390fd5b86868281811061061457610614611ef8565b90506020020160208101906106299190611dc6565b6001600160a01b03166323b872dd333088888681811061064b5761064b611ef8565b6040516001600160e01b031960e088901b1681526001600160a01b039586166004820152949093166024850152506020909102013560448201526064016020604051808303816000875af11580156106a7573d6000803e3d6000fd5b505050506040513d601f19601f820116820180604052508101906106cb9190611f0e565b5060006107188888848181106106e3576106e3611ef8565b90506020020160208101906106f89190611dc6565b87878581811061070a5761070a611ef8565b905060200201356000610f34565b905060006107268285611f46565b9050838110156107495760405163391fb01d60e21b815260040160405180910390fd5b925081905061075781611f59565b9150506104d4565b508181101561078b5760405163d28d3eb560e01b81526004810183905260248101829052604401610581565b610794816110f6565b336001600160a01b03167fdd462561ba2ca14dafdde5e05efaefa8717b9a0ed58d4d819bf92ead715916b087878787866040516107d5959493929190611f72565b60405180910390a2506107e760018055565b5050505050565b6107f66114f0565b6040516370a0823160e01b81523060048201526000906001600160a01b038316906370a0823190602401602060405180830381865afa15801561083d573d6000803e3d6000fd5b505050506040513d601f19601f820116820180604052508101906108619190611ff7565b9050816001600160a01b031663a9059cbb6108846000546001600160a01b031690565b6040516001600160e01b031960e084901b1681526001600160a01b039091166004820152602481018490526044016020604051808303816000875af11580156108d1573d6000803e3d6000fd5b505050506040513d601f19601f820116820180604052508101906108f59190611f0e565b505050565b6109026114f0565b61090c600061154a565b565b6000606084831461095a5760405162461bcd60e51b8152602060048201526016602482015275082e4e4c2f2e640d8cadccee8d040dad2e6dac2e8c6d60531b6044820152606401610581565b8467ffffffffffffffff81111561097357610973612010565b60405190808252806020026020018201604052801561099c578160200160208202803683370190505b5090506000915060005b85811015610aa75760003063b492fc698989858181106109c8576109c8611ef8565b90506020020160208101906109dd9190611dc6565b8888868181106109ef576109ef611ef8565b6040516001600160e01b031960e087901b1681526001600160a01b03909416600485015260200291909101356024830152506044016020604051808303816000875af1158015610a43573d6000803e3d6000fd5b505050506040513d601f19601f82011682018060405250810190610a679190611ff7565b905080838381518110610a7c57610a7c611ef8565b6020908102919091010152610a918185611f46565b9350508080610a9f90611f59565b9150506109a6565b5094509492505050565b610ab9610edb565b6001600160a01b038316610ae057604051630f58058360e11b815260040160405180910390fd5b81600003610b045760405163717d748560e11b815260048101839052602401610581565b7f00000000000000000000000000000000000000000000000000000000000000006001600160a01b0316836001600160a01b031603610b56576040516302f6bd9160e01b815260040160405180910390fd5b6040516323b872dd60e01b8152336004820152306024820152604481018390526001600160a01b038416906323b872dd906064016020604051808303816000875af1158015610ba9573d6000803e3d6000fd5b505050506040513d601f19601f82011682018060405250810190610bcd9190611f0e565b50610bd983838361159a565b6108f560018055565b610bea6114f0565b47610bfd6000546001600160a01b031690565b6001600160a01b03166108fc829081150290604051600060405180830381858888f19350505050158015610c35573d6000803e3d6000fd5b5050565b60007f00000000000000000000000000000000000000000000000000000000000000006001600160a01b0316836001600160a01b031603610d79576040805160a0810182526001600160a01b037f0000000000000000000000000000000000000000000000000000000000000000811682527f00000000000000000000000000000000000000000000000000000000000000008116602083015261271082840152606082018590526000608083015291516359d88dbf60e11b81527f00000000000000000000000000000000000000000000000000000000000000009092169163b3b11b7e91610d2b91600401612026565b6020604051808303816000875af1925050508015610d66575060408051601f3d908101601f19168201909252610d6391810190611ff7565b60015b610d7257506000610e5c565b9050610e5c565b6040805160a0810182526001600160a01b0385811682527f00000000000000000000000000000000000000000000000000000000000000008116602083015261271082840152606082018590526000608083015291516359d88dbf60e11b81527f00000000000000000000000000000000000000000000000000000000000000009092169163b3b11b7e91610e1091600401612026565b6020604051808303816000875af1925050508015610e4b575060408051601f3d908101601f19168201909252610e4891810190611ff7565b60015b610e5957610d7283836115b8565b90505b92915050565b610e6a6114f0565b6001600160a01b038116610ecf5760405162461bcd60e51b815260206004820152602660248201527f4f776e61626c653a206e6577206f776e657220697320746865207a65726f206160448201526564647265737360d01b6064820152608401610581565b610ed88161154a565b50565b600260015403610f2d5760405162461bcd60e51b815260206004820152601f60248201527f5265656e7472616e637947756172643a207265656e7472616e742063616c6c006044820152606401610581565b6002600155565b60006103e8831015610f5c5760405163717d748560e11b815260048101849052602401610581565b60405163095ea7b360e01b81526001600160a01b037f0000000000000000000000000000000000000000000000000000000000000000811660048301526024820185905285169063095ea7b3906044016020604051808303816000875af1158015610fcb573d6000803e3d6000fd5b505050506040513d601f19601f82011682018060405250810190610fef9190611f0e565b507f00000000000000000000000000000000000000000000000000000000000000006001600160a01b0316846001600160a01b03160361103b576110348484846117ae565b905061105e565b6110468484846117ae565b90508060000361105e5761105b848484611a62565b90505b8060000361107f57604051630255f02360e31b815260040160405180910390fd5b818110156110aa5760405163d28d3eb560e01b81526004810183905260248101829052604401610581565b60408051848152602081018390526001600160a01b038616917f7bc21558f1cc3cd504a080657a8ebecb07bffeb02d1c85ff440cc42448c17b21910160405180910390a25b9392505050565b6000606461110560508461206e565b61110f9190612085565b90506000606461112060128561206e565b61112a9190612085565b90506000606461113b60028661206e565b6111459190612085565b90506000816111548486611f46565b61115e9190611f46565b905084811115611180578261117385876120a7565b61117d91906120a7565b91505b6040516370a0823160e01b81523060048201526000907f00000000000000000000000000000000000000000000000000000000000000006001600160a01b0316906370a0823190602401602060405180830381865afa1580156111e7573d6000803e3d6000fd5b505050506040513d601f19601f8201168201806040525081019061120b9190611ff7565b905081811015611238576040516306d66d9360e01b81526004810183905260248101829052604401610581565b604080518781526020810187905290810185905260608101849052608081018290527fae1988051d273725134b908b2129020347cd421407708907a0f8ad40ca33d9e19060a00160405180910390a160405163a9059cbb60e01b8152336004820152602481018690527f00000000000000000000000000000000000000000000000000000000000000006001600160a01b03169063a9059cbb906044016020604051808303816000875af11580156112f4573d6000803e3d6000fd5b505050506040513d601f19601f820116820180604052508101906113189190611f0e565b5060405163a9059cbb60e01b815273d2a963866bd6d8de525ac726ac79ddf46c2874866004820152602481018590527f00000000000000000000000000000000000000000000000000000000000000006001600160a01b03169063a9059cbb906044016020604051808303816000875af115801561139a573d6000803e3d6000fd5b505050506040513d601f19601f820116820180604052508101906113be9190611f0e565b5060405163a9059cbb60e01b81526001600160a01b037f000000000000000000000000000000000000000000000000000000000000000081166004830152602482018590527f0000000000000000000000000000000000000000000000000000000000000000169063a9059cbb906044016020604051808303816000875af115801561144e573d6000803e3d6000fd5b505050506040513d601f19601f820116820180604052508101906114729190611f0e565b506040805187815260208101879052908101859052606081018490526001600160a01b037f0000000000000000000000000000000000000000000000000000000000000000169033907f2922638cab0d1b5985f7105ff5c07253fb92cb6ce049948e3f7937f5a29db0ac9060800160405180910390a3505050505050565b6000546001600160a01b0316331461090c5760405162461bcd60e51b815260206004820181905260248201527f4f776e61626c653a2063616c6c6572206973206e6f7420746865206f776e65726044820152606401610581565b600080546001600160a01b038381166001600160a01b0319831681178455604051919092169283917f8be0079c531659141344cd1fd0a4f28419497f9722a3daafe3b4186f6b6457e09190a35050565b60006115a7848484610f34565b90506115b2816110f6565b50505050565b6040805160a0810182526001600160a01b0384811682527f000000000000000000000000000000000000000000000000000000000000000081166020830152612710828401526060820184905260006080830181905292516359d88dbf60e11b815283927f00000000000000000000000000000000000000000000000000000000000000009092169163b3b11b7e916116549190600401612026565b6020604051808303816000875af192505050801561168f575060408051601f3d908101601f1916820190925261168c91810190611ff7565b60015b61169d576000915050610e5c565b905080156117a7576040805160a0810182526001600160a01b037f0000000000000000000000000000000000000000000000000000000000000000811682527f00000000000000000000000000000000000000000000000000000000000000008116602083015261271082840152606082018490526000608083015291516359d88dbf60e11b81527f00000000000000000000000000000000000000000000000000000000000000009092169163b3b11b7e9161175c91600401612026565b6020604051808303816000875af1925050508015611797575060408051601f3d908101601f1916820190925261179491810190611ff7565b60015b6117a457600091506117a7565b91505b5092915050565b60007f00000000000000000000000000000000000000000000000000000000000000006001600160a01b0316846001600160a01b031603611935577f00000000000000000000000000000000000000000000000000000000000000006001600160a01b031663414bf3896040518061010001604052807f00000000000000000000000000000000000000000000000000000000000000006001600160a01b031681526020017f00000000000000000000000000000000000000000000000000000000000000006001600160a01b0316815260200161271062ffffff168152602001306001600160a01b031681526020014261012c6118ac9190611f46565b815260200186815260200185815260200160006001600160a01b03168152506040518263ffffffff1660e01b81526004016118e791906120ba565b6020604051808303816000875af1925050508015611922575060408051601f3d908101601f1916820190925261191f91810190611ff7565b60015b61192e575060006110ef565b90506110ef565b7f00000000000000000000000000000000000000000000000000000000000000006001600160a01b031663414bf389604051806101000160405280876001600160a01b031681526020017f00000000000000000000000000000000000000000000000000000000000000006001600160a01b0316815260200161271062ffffff168152602001306001600160a01b031681526020014261012c6119d89190611f46565b815260200186815260200185815260200160006001600160a01b03168152506040518263ffffffff1660e01b8152600401611a1391906120ba565b6020604051808303816000875af1925050508015611a4e575060408051601f3d908101601f19168201909252611a4b91810190611ff7565b60015b611a5a575060006110ef565b949350505050565b600080600090507f00000000000000000000000000000000000000000000000000000000000000006001600160a01b031663414bf389604051806101000160405280886001600160a01b031681526020017f00000000000000000000000000000000000000000000000000000000000000006001600160a01b0316815260200161271062ffffff168152602001306001600160a01b031681526020014261012c611b0c9190611f46565b81526020018781526020016000815260200160006001600160a01b03168152506040518263ffffffff1660e01b8152600401611b4891906120ba565b6020604051808303816000875af1925050508015611b83575060408051601f3d908101601f19168201909252611b8091810190611ff7565b60015b611b915760009150506110ef565b90508015611ce2577f00000000000000000000000000000000000000000000000000000000000000006001600160a01b031663414bf3896040518061010001604052807f00000000000000000000000000000000000000000000000000000000000000006001600160a01b031681526020017f00000000000000000000000000000000000000000000000000000000000000006001600160a01b0316815260200161271062ffffff168152602001306001600160a01b031681526020014261012c611c5c9190611f46565b815260200184815260200186815260200160006001600160a01b03168152506040518263ffffffff1660e01b8152600401611c9791906120ba565b6020604051808303816000875af1925050508015611cd2575060408051601f3d908101601f19168201909252611ccf91810190611ff7565b60015b611cdf5760009150611ce2565b91505b509392505050565b60008083601f840112611cfc57600080fd5b50813567ffffffffffffffff811115611d1457600080fd5b6020830191508360208260051b8501011115611d2f57600080fd5b9250929050565b600080600080600060608688031215611d4e57600080fd5b853567ffffffffffffffff80821115611d6657600080fd5b611d7289838a01611cea565b90975095506020880135915080821115611d8b57600080fd5b50611d9888828901611cea565b96999598509660400135949350505050565b80356001600160a01b0381168114611dc157600080fd5b919050565b600060208284031215611dd857600080fd5b6110ef82611daa565b60008060008060408587031215611df757600080fd5b843567ffffffffffffffff80821115611e0f57600080fd5b611e1b88838901611cea565b90965094506020870135915080821115611e3457600080fd5b50611e4187828801611cea565b95989497509550505050565b6000604082018483526020604081850152818551808452606086019150828701935060005b81811015611e8e57845183529383019391830191600101611e72565b5090979650505050505050565b600080600060608486031215611eb057600080fd5b611eb984611daa565b95602085013595506040909401359392505050565b60008060408385031215611ee157600080fd5b611eea83611daa565b946020939093013593505050565b634e487b7160e01b600052603260045260246000fd5b600060208284031215611f2057600080fd5b81518015158114610e5957600080fd5b634e487b7160e01b600052601160045260246000fd5b80820180821115610e5c57610e5c611f30565b600060018201611f6b57611f6b611f30565b5060010190565b6060808252810185905260008660808301825b88811015611fb3576001600160a01b03611f9e84611daa565b16825260209283019290910190600101611f85565b5083810360208501528581526001600160fb1b03861115611fd357600080fd5b8560051b915081876020830137604093909301939093525001602001949350505050565b60006020828403121561200957600080fd5b5051919050565b634e487b7160e01b600052604160045260246000fd5b81516001600160a01b03908116825260208084015182169083015260408084015162ffffff169083015260608084015190830152608092830151169181019190915260a00190565b8082028115828204841417610e5c57610e5c611f30565b6000826120a257634e487b7160e01b600052601260045260246000fd5b500490565b81810381811115610e5c57610e5c611f30565b60006101008201905060018060a01b0380845116835280602085015116602084015262ffffff6040850151166040840152806060850151166060840152506080830151608083015260a083015160a083015260c083015160c083015260e08301516117a760e08401826001600160a01b0316905256fea2646970667358221220f4e324fae9f97ac52c73005d05ce3d12592ae07c0e021d8db0a958250913ab7264736f6c63430008130033","opcodes":"PUSH2 0x1A0 PUSH1 0x40 MSTORE CALLVALUE DUP1 ISZERO PUSH3 0x12 JUMPI PUSH1 0x0 DUP1 REVERT JUMPDEST POP PUSH1 0x40 MLOAD PUSH3 0x2515 CODESIZE SUB DUP1 PUSH3 0x2515 DUP4 CODECOPY DUP2 ADD PUSH1 0x40 DUP2 SWAP1 MSTORE PUSH3 0x35 SWAP2 PUSH3 0x1C9 JUMP JUMPDEST PUSH3 0x40 CALLER PUSH3 0x15C JUMP JUMPDEST PUSH1 0x1 DUP1 SSTORE CHAINID PUSH2 0x2105 EQ DUP1 PUSH3 0x57 JUMPI POP PUSH3 0x14A34 CHAINID EQ JUMPDEST DUP1 PUSH3 0x65 JUMPI POP PUSH3 0x14A33 CHAINID EQ JUMPDEST PUSH3 0xC7 JUMPI PUSH1 0x40 MLOAD PUSH3 0x461BCD PUSH1 0xE5 SHL DUP2 MSTORE PUSH1 0x20 PUSH1 0x4 DUP3 ADD MSTORE PUSH1 0x27 PUSH1 0x24 DUP3 ADD MSTORE PUSH32 0x53706C6974526F757465723A204F6E6C7920776F726B73206F6E204261736520 PUSH1 0x44 DUP3 ADD MSTORE PUSH7 0x6E6574776F726B PUSH1 0xC8 SHL PUSH1 0x64 DUP3 ADD MSTORE PUSH1 0x84 ADD JUMPDEST PUSH1 0x40 MLOAD DUP1 SWAP2 SUB SWAP1 REVERT JUMPDEST PUSH1 0x1 PUSH1 0x1 PUSH1 0xA0 SHL SUB DUP2 AND PUSH3 0x114 JUMPI PUSH1 0x40 MLOAD PUSH3 0x461BCD PUSH1 0xE5 SHL DUP2 MSTORE PUSH1 0x20 PUSH1 0x4 DUP3 ADD MSTORE PUSH1 0x12 PUSH1 0x24 DUP3 ADD MSTORE PUSH18 0x125B9D985B1A590819195D881DD85B1B195D PUSH1 0x72 SHL PUSH1 0x44 DUP3 ADD MSTORE PUSH1 0x64 ADD PUSH3 0xBE JUMP JUMPDEST PUSH1 0x1 PUSH1 0x1 PUSH1 0xA0 SHL SUB SWAP7 DUP8 AND PUSH1 0xA0 MSTORE SWAP5 DUP7 AND PUSH1 0xC0 MSTORE SWAP3 DUP6 AND PUSH1 0xE0 MSTORE SWAP1 DUP5 AND PUSH2 0x100 DUP2 SWAP1 MSTORE SWAP1 DUP5 AND PUSH2 0x120 DUP2 SWAP1 MSTORE SWAP2 DUP5 AND PUSH2 0x140 MSTORE SWAP2 SWAP1 SWAP3 AND PUSH1 0x80 MSTORE PUSH2 0x160 MSTORE PUSH2 0x180 MSTORE PUSH3 0x25E JUMP JUMPDEST PUSH1 0x0 DUP1 SLOAD PUSH1 0x1 PUSH1 0x1 PUSH1 0xA0 SHL SUB DUP4 DUP2 AND PUSH1 0x1 PUSH1 0x1 PUSH1 0xA0 SHL SUB NOT DUP4 AND DUP2 OR DUP5 SSTORE PUSH1 0x40 MLOAD SWAP2 SWAP1 SWAP3 AND SWAP3 DUP4 SWAP2 PUSH32 0x8BE0079C531659141344CD1FD0A4F28419497F9722A3DAAFE3B4186F6B6457E0 SWAP2 SWAP1 LOG3 POP POP JUMP JUMPDEST DUP1 MLOAD PUSH1 0x1 PUSH1 0x1 PUSH1 0xA0 SHL SUB DUP2 AND DUP2 EQ PUSH3 0x1C4 JUMPI PUSH1 0x0 DUP1 REVERT JUMPDEST SWAP2 SWAP1 POP JUMP JUMPDEST PUSH1 0x0 DUP1 PUSH1 0x0 DUP1 PUSH1 0x0 DUP1 PUSH1 0x0 PUSH1 0xE0 DUP9 DUP11 SUB SLT ISZERO PUSH3 0x1E5 JUMPI PUSH1 0x0 DUP1 REVERT JUMPDEST PUSH3 0x1F0 DUP9 PUSH3 0x1AC JUMP JUMPDEST SWAP7 POP PUSH3 0x200 PUSH1 0x20 DUP10 ADD PUSH3 0x1AC JUMP JUMPDEST SWAP6 POP PUSH3 0x210 PUSH1 0x40 DUP10 ADD PUSH3 0x1AC JUMP JUMPDEST SWAP5 POP PUSH3 0x220 PUSH1 0x60 DUP10 ADD PUSH3 0x1AC JUMP JUMPDEST SWAP4 POP PUSH3 0x230 PUSH1 0x80 DUP10 ADD PUSH3 0x1AC JUMP JUMPDEST SWAP3 POP PUSH3 0x240 PUSH1 0xA0 DUP10 ADD PUSH3 0x1AC JUMP JUMPDEST SWAP2 POP PUSH3 0x250 PUSH1 0xC0 DUP10 ADD PUSH3 0x1AC JUMP JUMPDEST SWAP1 POP SWAP3 SWAP6 SWAP9 SWAP2 SWAP5 SWAP8 POP SWAP3 SWAP6 POP JUMP JUMPDEST PUSH1 0x80 MLOAD PUSH1 0xA0 MLOAD PUSH1 0xC0 MLOAD PUSH1 0xE0 MLOAD PUSH2 0x100 MLOAD PUSH2 0x120 MLOAD PUSH2 0x140 MLOAD PUSH2 0x160 MLOAD PUSH2 0x180 MLOAD PUSH2 0x2166 PUSH3 0x3AF PUSH1 0x0 CODECOPY PUSH1 0x0 DUP2 DUP2 PUSH2 0x3C3 ADD MSTORE DUP2 DUP2 PUSH2 0xCF6 ADD MSTORE DUP2 DUP2 PUSH2 0xDDB ADD MSTORE DUP2 DUP2 PUSH2 0x161E ADD MSTORE PUSH2 0x1727 ADD MSTORE PUSH1 0x0 DUP2 DUP2 PUSH2 0x39C ADD MSTORE DUP2 DUP2 PUSH2 0x17EB ADD MSTORE DUP2 DUP2 PUSH2 0x1937 ADD MSTORE DUP2 DUP2 PUSH2 0x1A6B ADD MSTORE PUSH2 0x1B9B ADD MSTORE PUSH1 0x0 PUSH2 0x1CE ADD MSTORE PUSH1 0x0 PUSH2 0x362 ADD MSTORE PUSH1 0x0 DUP2 DUP2 PUSH2 0x40D ADD MSTORE PUSH2 0xF73 ADD MSTORE PUSH1 0x0 PUSH2 0x212 ADD MSTORE PUSH1 0x0 DUP2 DUP2 PUSH2 0x33B ADD MSTORE DUP2 DUP2 PUSH2 0xC3D ADD MSTORE DUP2 DUP2 PUSH2 0xC88 ADD MSTORE DUP2 DUP2 PUSH2 0xFF2 ADD MSTORE DUP2 DUP2 PUSH2 0x15D1 ADD MSTORE DUP2 DUP2 PUSH2 0x16B9 ADD MSTORE DUP2 DUP2 PUSH2 0x17B2 ADD MSTORE DUP2 DUP2 PUSH2 0x1826 ADD MSTORE DUP2 DUP2 PUSH2 0x1AB5 ADD MSTORE PUSH2 0x1BD6 ADD MSTORE PUSH1 0x0 DUP2 DUP2 PUSH2 0x434 ADD MSTORE DUP2 DUP2 PUSH2 0x58C ADD MSTORE DUP2 DUP2 PUSH2 0xB06 ADD MSTORE DUP2 DUP2 PUSH2 0xCAD ADD MSTORE DUP2 DUP2 PUSH2 0xD92 ADD MSTORE DUP2 DUP2 PUSH2 0x1198 ADD MSTORE DUP2 DUP2 PUSH2 0x12A3 ADD MSTORE DUP2 DUP2 PUSH2 0x1349 ADD MSTORE DUP2 DUP2 PUSH2 0x1405 ADD MSTORE DUP2 DUP2 PUSH2 0x1498 ADD MSTORE DUP2 DUP2 PUSH2 0x16DE ADD MSTORE DUP2 DUP2 PUSH2 0x1855 ADD MSTORE DUP2 DUP2 PUSH2 0x1981 ADD MSTORE PUSH2 0x1C05 ADD MSTORE PUSH1 0x0 DUP2 DUP2 PUSH2 0x239 ADD MSTORE PUSH2 0x13D6 ADD MSTORE PUSH2 0x2166 PUSH1 0x0 RETURN INVALID PUSH1 0x80 PUSH1 0x40 MSTORE CALLVALUE DUP1 ISZERO PUSH2 0x10 JUMPI PUSH1 0x0 DUP1 REVERT JUMPDEST POP PUSH1 0x4 CALLDATASIZE LT PUSH2 0x1C4 JUMPI PUSH1 0x0 CALLDATALOAD PUSH1 0xE0 SHR DUP1 PUSH4 0xA10EAA89 GT PUSH2 0xF9 JUMPI DUP1 PUSH4 0xD73792A9 GT PUSH2 0x97 JUMPI DUP1 PUSH4 0xEFC21E3F GT PUSH2 0x71 JUMPI DUP1 PUSH4 0xEFC21E3F EQ PUSH2 0x456 JUMPI DUP1 PUSH4 0xF1B09FC1 EQ PUSH2 0x45F JUMPI DUP1 PUSH4 0xF2FDE38B EQ PUSH2 0x469 JUMPI DUP1 PUSH4 0xF34A2CF6 EQ PUSH2 0x47C JUMPI PUSH1 0x0 DUP1 REVERT JUMPDEST DUP1 PUSH4 0xD73792A9 EQ PUSH2 0x400 JUMPI DUP1 PUSH4 0xD8264920 EQ PUSH2 0x408 JUMPI DUP1 PUSH4 0xEE7CF415 EQ PUSH2 0x42F JUMPI PUSH1 0x0 DUP1 REVERT JUMPDEST DUP1 PUSH4 0xB492FC69 GT PUSH2 0xD3 JUMPI DUP1 PUSH4 0xB492FC69 EQ PUSH2 0x384 JUMPI DUP1 PUSH4 0xC31C9C07 EQ PUSH2 0x397 JUMPI DUP1 PUSH4 0xC6BBD5A7 EQ PUSH2 0x3BE JUMPI DUP1 PUSH4 0xD56D7F06 EQ PUSH2 0x3E5 JUMPI PUSH1 0x0 DUP1 REVERT JUMPDEST DUP1 PUSH4 0xA10EAA89 EQ PUSH2 0x32E JUMPI DUP1 PUSH4 0xAD5C4648 EQ PUSH2 0x336 JUMPI DUP1 PUSH4 0xB268630B EQ PUSH2 0x35D JUMPI PUSH1 0x0 DUP1 REVERT JUMPDEST DUP1 PUSH4 0x4FCC1DEF GT PUSH2 0x166 JUMPI DUP1 PUSH4 0x77A59BB5 GT PUSH2 0x140 JUMPI DUP1 PUSH4 0x77A59BB5 EQ PUSH2 0x2E1 JUMPI DUP1 PUSH4 0x7FCF0717 EQ PUSH2 0x302 JUMPI DUP1 PUSH4 0x84536017 EQ PUSH2 0x315 JUMPI DUP1 PUSH4 0x8DA5CB5B EQ PUSH2 0x31D JUMPI PUSH1 0x0 DUP1 REVERT JUMPDEST DUP1 PUSH4 0x4FCC1DEF EQ PUSH2 0x2A9 JUMPI DUP1 PUSH4 0x6FF1C9BC EQ PUSH2 0x2C6 JUMPI DUP1 PUSH4 0x715018A6 EQ PUSH2 0x2D9 JUMPI PUSH1 0x0 DUP1 REVERT JUMPDEST DUP1 PUSH4 0x34FBC9A1 GT PUSH2 0x1A2 JUMPI DUP1 PUSH4 0x34FBC9A1 EQ PUSH2 0x25B JUMPI DUP1 PUSH4 0x367917E3 EQ PUSH2 0x271 JUMPI DUP1 PUSH4 0x44DF4BE6 EQ PUSH2 0x28C JUMPI DUP1 PUSH4 0x4C28233F EQ PUSH2 0x294 JUMPI PUSH1 0x0 DUP1 REVERT JUMPDEST DUP1 PUSH4 0x1BEA83FE EQ PUSH2 0x1C9 JUMPI DUP1 PUSH4 0x1D610577 EQ PUSH2 0x20D JUMPI DUP1 PUSH4 0x2D04F820 EQ PUSH2 0x234 JUMPI JUMPDEST PUSH1 0x0 DUP1 REVERT JUMPDEST PUSH2 0x1F0 PUSH32 0x0 DUP2 JUMP JUMPDEST PUSH1 0x40 MLOAD PUSH1 0x1 PUSH1 0x1 PUSH1 0xA0 SHL SUB SWAP1 SWAP2 AND DUP2 MSTORE PUSH1 0x20 ADD JUMPDEST PUSH1 0x40 MLOAD DUP1 SWAP2 SUB SWAP1 RETURN JUMPDEST PUSH2 0x1F0 PUSH32 0x0 DUP2 JUMP JUMPDEST PUSH2 0x1F0 PUSH32 0x0 DUP2 JUMP JUMPDEST PUSH2 0x263 PUSH1 0x2 DUP2 JUMP JUMPDEST PUSH1 0x40 MLOAD SWAP1 DUP2 MSTORE PUSH1 0x20 ADD PUSH2 0x204 JUMP JUMPDEST PUSH2 0x1F0 PUSH20 0xD2A963866BD6D8DE525AC726AC79DDF46C287486 DUP2 JUMP JUMPDEST PUSH2 0x263 PUSH1 0x12 DUP2 JUMP JUMPDEST PUSH2 0x2A7 PUSH2 0x2A2 CALLDATASIZE PUSH1 0x4 PUSH2 0x1D36 JUMP JUMPDEST PUSH2 0x486 JUMP JUMPDEST STOP JUMPDEST PUSH2 0x2B2 PUSH2 0x2710 DUP2 JUMP JUMPDEST PUSH1 0x40 MLOAD PUSH3 0xFFFFFF SWAP1 SWAP2 AND DUP2 MSTORE PUSH1 0x20 ADD PUSH2 0x204 JUMP JUMPDEST PUSH2 0x2A7 PUSH2 0x2D4 CALLDATASIZE PUSH1 0x4 PUSH2 0x1DC6 JUMP JUMPDEST PUSH2 0x7EE JUMP JUMPDEST PUSH2 0x2A7 PUSH2 0x8FA JUMP JUMPDEST PUSH2 0x2F4 PUSH2 0x2EF CALLDATASIZE PUSH1 0x4 PUSH2 0x1DE1 JUMP JUMPDEST PUSH2 0x90E JUMP JUMPDEST PUSH1 0x40 MLOAD PUSH2 0x204 SWAP3 SWAP2 SWAP1 PUSH2 0x1E4D JUMP JUMPDEST PUSH2 0x2A7 PUSH2 0x310 CALLDATASIZE PUSH1 0x4 PUSH2 0x1E9B JUMP JUMPDEST PUSH2 0xAB1 JUMP JUMPDEST PUSH2 0x2A7 PUSH2 0xBE2 JUMP JUMPDEST PUSH1 0x0 SLOAD PUSH1 0x1 PUSH1 0x1 PUSH1 0xA0 SHL SUB AND PUSH2 0x1F0 JUMP JUMPDEST PUSH2 0x263 PUSH1 0x50 DUP2 JUMP JUMPDEST PUSH2 0x1F0 PUSH32 0x0 DUP2 JUMP JUMPDEST PUSH2 0x1F0 PUSH32 0x0 DUP2 JUMP JUMPDEST PUSH2 0x263 PUSH2 0x392 CALLDATASIZE PUSH1 0x4 PUSH2 0x1ECE JUMP JUMPDEST PUSH2 0xC39 JUMP JUMPDEST PUSH2 0x1F0 PUSH32 0x0 DUP2 JUMP JUMPDEST PUSH2 0x1F0 PUSH32 0x0 DUP2 JUMP JUMPDEST PUSH2 0x1F0 PUSH20 0xCC28456D4FF980CEE3457CA809A257E52CD9CDB0 DUP2 JUMP JUMPDEST PUSH2 0x263 PUSH1 0x64 DUP2 JUMP JUMPDEST PUSH2 0x1F0 PUSH32 0x0 DUP2 JUMP JUMPDEST PUSH2 0x1F0 PUSH32 0x0 DUP2 JUMP JUMPDEST PUSH2 0x263 PUSH2 0x2105 DUP2 JUMP JUMPDEST PUSH2 0x263 PUSH3 0x14A34 DUP2 JUMP JUMPDEST PUSH2 0x2A7 PUSH2 0x477 CALLDATASIZE PUSH1 0x4 PUSH2 0x1DC6 JUMP JUMPDEST PUSH2 0xE62 JUMP JUMPDEST PUSH2 0x263 PUSH3 0x14A33 DUP2 JUMP JUMPDEST PUSH2 0x48E PUSH2 0xEDB JUMP JUMPDEST DUP4 DUP3 EQ PUSH2 0x4AE JUMPI PUSH1 0x40 MLOAD PUSH4 0x7E11ACB PUSH1 0xE5 SHL DUP2 MSTORE PUSH1 0x4 ADD PUSH1 0x40 MLOAD DUP1 SWAP2 SUB SWAP1 REVERT JUMPDEST PUSH1 0x0 DUP5 SWAP1 SUB PUSH2 0x4D0 JUMPI PUSH1 0x40 MLOAD PUSH4 0xA600C81D PUSH1 0xE0 SHL DUP2 MSTORE PUSH1 0x4 ADD PUSH1 0x40 MLOAD DUP1 SWAP2 SUB SWAP1 REVERT JUMPDEST PUSH1 0x0 DUP1 JUMPDEST DUP6 DUP2 LT ISZERO PUSH2 0x75F JUMPI PUSH1 0x0 DUP8 DUP8 DUP4 DUP2 DUP2 LT PUSH2 0x4F0 JUMPI PUSH2 0x4F0 PUSH2 0x1EF8 JUMP JUMPDEST SWAP1 POP PUSH1 0x20 MUL ADD PUSH1 0x20 DUP2 ADD SWAP1 PUSH2 0x505 SWAP2 SWAP1 PUSH2 0x1DC6 JUMP JUMPDEST PUSH1 0x1 PUSH1 0x1 PUSH1 0xA0 SHL SUB AND SUB PUSH2 0x52C JUMPI PUSH1 0x40 MLOAD PUSH4 0xF580583 PUSH1 0xE1 SHL DUP2 MSTORE PUSH1 0x4 ADD PUSH1 0x40 MLOAD DUP1 SWAP2 SUB SWAP1 REVERT JUMPDEST DUP5 DUP5 DUP3 DUP2 DUP2 LT PUSH2 0x53E JUMPI PUSH2 0x53E PUSH2 0x1EF8 JUMP JUMPDEST SWAP1 POP PUSH1 0x20 MUL ADD CALLDATALOAD PUSH1 0x0 SUB PUSH2 0x58A JUMPI DUP5 DUP5 DUP3 DUP2 DUP2 LT PUSH2 0x55E JUMPI PUSH2 0x55E PUSH2 0x1EF8 JUMP JUMPDEST SWAP1 POP PUSH1 0x20 MUL ADD CALLDATALOAD PUSH1 0x40 MLOAD PUSH4 0x717D7485 PUSH1 0xE1 SHL DUP2 MSTORE PUSH1 0x4 ADD PUSH2 0x581 SWAP2 DUP2 MSTORE PUSH1 0x20 ADD SWAP1 JUMP JUMPDEST PUSH1 0x40 MLOAD DUP1 SWAP2 SUB SWAP1 REVERT JUMPDEST PUSH32 0x0 PUSH1 0x1 PUSH1 0x1 PUSH1 0xA0 SHL SUB AND DUP8 DUP8 DUP4 DUP2 DUP2 LT PUSH2 0x5C6 JUMPI PUSH2 0x5C6 PUSH2 0x1EF8 JUMP JUMPDEST SWAP1 POP PUSH1 0x20 MUL ADD PUSH1 0x20 DUP2 ADD SWAP1 PUSH2 0x5DB SWAP2 SWAP1 PUSH2 0x1DC6 JUMP JUMPDEST PUSH1 0x1 PUSH1 0x1 PUSH1 0xA0 SHL SUB AND SUB PUSH2 0x602 JUMPI PUSH1 0x40 MLOAD PUSH4 0x2F6BD91 PUSH1 0xE0 SHL DUP2 MSTORE PUSH1 0x4 ADD PUSH1 0x40 MLOAD DUP1 SWAP2 SUB SWAP1 REVERT JUMPDEST DUP7 DUP7 DUP3 DUP2 DUP2 LT PUSH2 0x614 JUMPI PUSH2 0x614 PUSH2 0x1EF8 JUMP JUMPDEST SWAP1 POP PUSH1 0x20 MUL ADD PUSH1 0x20 DUP2 ADD SWAP1 PUSH2 0x629 SWAP2 SWAP1 PUSH2 0x1DC6 JUMP JUMPDEST PUSH1 0x1 PUSH1 0x1 PUSH1 0xA0 SHL SUB AND PUSH4 0x23B872DD CALLER ADDRESS DUP9 DUP9 DUP7 DUP2 DUP2 LT PUSH2 0x64B JUMPI PUSH2 0x64B PUSH2 0x1EF8 JUMP JUMPDEST PUSH1 0x40 MLOAD PUSH1 0x1 PUSH1 0x1 PUSH1 0xE0 SHL SUB NOT PUSH1 0xE0 DUP9 SWAP1 SHL AND DUP2 MSTORE PUSH1 0x1 PUSH1 0x1 PUSH1 0xA0 SHL SUB SWAP6 DUP7 AND PUSH1 0x4 DUP3 ADD MSTORE SWAP5 SWAP1 SWAP4 AND PUSH1 0x24 DUP6 ADD MSTORE POP PUSH1 0x20 SWAP1 SWAP2 MUL ADD CALLDATALOAD PUSH1 0x44 DUP3 ADD MSTORE PUSH1 0x64 ADD PUSH1 0x20 PUSH1 0x40 MLOAD DUP1 DUP4 SUB DUP2 PUSH1 0x0 DUP8 GAS CALL ISZERO DUP1 ISZERO PUSH2 0x6A7 JUMPI RETURNDATASIZE PUSH1 0x0 DUP1 RETURNDATACOPY RETURNDATASIZE PUSH1 0x0 REVERT JUMPDEST POP POP POP POP PUSH1 0x40 MLOAD RETURNDATASIZE PUSH1 0x1F NOT PUSH1 0x1F DUP3 ADD AND DUP3 ADD DUP1 PUSH1 0x40 MSTORE POP DUP2 ADD SWAP1 PUSH2 0x6CB SWAP2 SWAP1 PUSH2 0x1F0E JUMP JUMPDEST POP PUSH1 0x0 PUSH2 0x718 DUP9 DUP9 DUP5 DUP2 DUP2 LT PUSH2 0x6E3 JUMPI PUSH2 0x6E3 PUSH2 0x1EF8 JUMP JUMPDEST SWAP1 POP PUSH1 0x20 MUL ADD PUSH1 0x20 DUP2 ADD SWAP1 PUSH2 0x6F8 SWAP2 SWAP1 PUSH2 0x1DC6 JUMP JUMPDEST DUP8 DUP8 DUP6 DUP2 DUP2 LT PUSH2 0x70A JUMPI PUSH2 0x70A PUSH2 0x1EF8 JUMP JUMPDEST SWAP1 POP PUSH1 0x20 MUL ADD CALLDATALOAD PUSH1 0x0 PUSH2 0xF34 JUMP JUMPDEST SWAP1 POP PUSH1 0x0 PUSH2 0x726 DUP3 DUP6 PUSH2 0x1F46 JUMP JUMPDEST SWAP1 POP DUP4 DUP2 LT ISZERO PUSH2 0x749 JUMPI PUSH1 0x40 MLOAD PUSH4 0x391FB01D PUSH1 0xE2 SHL DUP2 MSTORE PUSH1 0x4 ADD PUSH1 0x40 MLOAD DUP1 SWAP2 SUB SWAP1 REVERT JUMPDEST SWAP3 POP DUP2 SWAP1 POP PUSH2 0x757 DUP2 PUSH2 0x1F59 JUMP JUMPDEST SWAP2 POP POP PUSH2 0x4D4 JUMP JUMPDEST POP DUP2 DUP2 LT ISZERO PUSH2 0x78B JUMPI PUSH1 0x40 MLOAD PUSH4 0xD28D3EB5 PUSH1 0xE0 SHL DUP2 MSTORE PUSH1 0x4 DUP2 ADD DUP4 SWAP1 MSTORE PUSH1 0x24 DUP2 ADD DUP3 SWAP1 MSTORE PUSH1 0x44 ADD PUSH2 0x581 JUMP JUMPDEST PUSH2 0x794 DUP2 PUSH2 0x10F6 JUMP JUMPDEST CALLER PUSH1 0x1 PUSH1 0x1 PUSH1 0xA0 SHL SUB AND PUSH32 0xDD462561BA2CA14DAFDDE5E05EFAEFA8717B9A0ED58D4D819BF92EAD715916B0 DUP8 DUP8 DUP8 DUP8 DUP7 PUSH1 0x40 MLOAD PUSH2 0x7D5 SWAP6 SWAP5 SWAP4 SWAP3 SWAP2 SWAP1 PUSH2 0x1F72 JUMP JUMPDEST PUSH1 0x40 MLOAD DUP1 SWAP2 SUB SWAP1 LOG2 POP PUSH2 0x7E7 PUSH1 0x1 DUP1 SSTORE JUMP JUMPDEST POP POP POP POP POP JUMP JUMPDEST PUSH2 0x7F6 PUSH2 0x14F0 JUMP JUMPDEST PUSH1 0x40 MLOAD PUSH4 0x70A08231 PUSH1 0xE0 SHL DUP2 MSTORE ADDRESS PUSH1 0x4 DUP3 ADD MSTORE PUSH1 0x0 SWAP1 PUSH1 0x1 PUSH1 0x1 PUSH1 0xA0 SHL SUB DUP4 AND SWAP1 PUSH4 0x70A08231 SWAP1 PUSH1 0x24 ADD PUSH1 0x20 PUSH1 0x40 MLOAD DUP1 DUP4 SUB DUP2 DUP7 GAS STATICCALL ISZERO DUP1 ISZERO PUSH2 0x83D JUMPI RETURNDATASIZE PUSH1 0x0 DUP1 RETURNDATACOPY RETURNDATASIZE PUSH1 0x0 REVERT JUMPDEST POP POP POP POP PUSH1 0x40 MLOAD RETURNDATASIZE PUSH1 0x1F NOT PUSH1 0x1F DUP3 ADD AND DUP3 ADD DUP1 PUSH1 0x40 MSTORE POP DUP2 ADD SWAP1 PUSH2 0x861 SWAP2 SWAP1 PUSH2 0x1FF7 JUMP JUMPDEST SWAP1 POP DUP2 PUSH1 0x1 PUSH1 0x1 PUSH1 0xA0 SHL SUB AND PUSH4 0xA9059CBB PUSH2 0x884 PUSH1 0x0 SLOAD PUSH1 0x1 PUSH1 0x1 PUSH1 0xA0 SHL SUB AND SWAP1 JUMP JUMPDEST PUSH1 0x40 MLOAD PUSH1 0x1 PUSH1 0x1 PUSH1 0xE0 SHL SUB NOT PUSH1 0xE0 DUP5 SWAP1 SHL AND DUP2 MSTORE PUSH1 0x1 PUSH1 0x1 PUSH1 0xA0 SHL SUB SWAP1 SWAP2 AND PUSH1 0x4 DUP3 ADD MSTORE PUSH1 0x24 DUP2 ADD DUP5 SWAP1 MSTORE PUSH1 0x44 ADD PUSH1 0x20 PUSH1 0x40 MLOAD DUP1 DUP4 SUB DUP2 PUSH1 0x0 DUP8 GAS CALL ISZERO DUP1 ISZERO PUSH2 0x8D1 JUMPI RETURNDATASIZE PUSH1 0x0 DUP1 RETURNDATACOPY RETURNDATASIZE PUSH1 0x0 REVERT JUMPDEST POP POP POP POP PUSH1 0x40 MLOAD RETURNDATASIZE PUSH1 0x1F NOT PUSH1 0x1F DUP3 ADD AND DUP3 ADD DUP1 PUSH1 0x40 MSTORE POP DUP2 ADD SWAP1 PUSH2 0x8F5 SWAP2 SWAP1 PUSH2 0x1F0E JUMP JUMPDEST POP POP POP JUMP JUMPDEST PUSH2 0x902 PUSH2 0x14F0 JUMP JUMPDEST PUSH2 0x90C PUSH1 0x0 PUSH2 0x154A JUMP JUMPDEST JUMP JUMPDEST PUSH1 0x0 PUSH1 0x60 DUP5 DUP4 EQ PUSH2 0x95A JUMPI PUSH1 0x40 MLOAD PUSH3 0x461BCD PUSH1 0xE5 SHL DUP2 MSTORE PUSH1 0x20 PUSH1 0x4 DUP3 ADD MSTORE PUSH1 0x16 PUSH1 0x24 DUP3 ADD MSTORE PUSH22 0x82E4E4C2F2E640D8CADCCEE8D040DAD2E6DAC2E8C6D PUSH1 0x53 SHL PUSH1 0x44 DUP3 ADD MSTORE PUSH1 0x64 ADD PUSH2 0x581 JUMP JUMPDEST DUP5 PUSH8 0xFFFFFFFFFFFFFFFF DUP2 GT ISZERO PUSH2 0x973 JUMPI PUSH2 0x973 PUSH2 0x2010 JUMP JUMPDEST PUSH1 0x40 MLOAD SWAP1 DUP1 DUP3 MSTORE DUP1 PUSH1 0x20 MUL PUSH1 0x20 ADD DUP3 ADD PUSH1 0x40 MSTORE DUP1 ISZERO PUSH2 0x99C JUMPI DUP2 PUSH1 0x20 ADD PUSH1 0x20 DUP3 MUL DUP1 CALLDATASIZE DUP4 CALLDATACOPY ADD SWAP1 POP JUMPDEST POP SWAP1 POP PUSH1 0x0 SWAP2 POP PUSH1 0x0 JUMPDEST DUP6 DUP2 LT ISZERO PUSH2 0xAA7 JUMPI PUSH1 0x0 ADDRESS PUSH4 0xB492FC69 DUP10 DUP10 DUP6 DUP2 DUP2 LT PUSH2 0x9C8 JUMPI PUSH2 0x9C8 PUSH2 0x1EF8 JUMP JUMPDEST SWAP1 POP PUSH1 0x20 MUL ADD PUSH1 0x20 DUP2 ADD SWAP1 PUSH2 0x9DD SWAP2 SWAP1 PUSH2 0x1DC6 JUMP JUMPDEST DUP9 DUP9 DUP7 DUP2 DUP2 LT PUSH2 0x9EF JUMPI PUSH2 0x9EF PUSH2 0x1EF8 JUMP JUMPDEST PUSH1 0x40 MLOAD PUSH1 0x1 PUSH1 0x1 PUSH1 0xE0 SHL SUB NOT PUSH1 0xE0 DUP8 SWAP1 SHL AND DUP2 MSTORE PUSH1 0x1 PUSH1 0x1 PUSH1 0xA0 SHL SUB SWAP1 SWAP5 AND PUSH1 0x4 DUP6 ADD MSTORE PUSH1 0x20 MUL SWAP2 SWAP1 SWAP2 ADD CALLDATALOAD PUSH1 0x24 DUP4 ADD MSTORE POP PUSH1 0x44 ADD PUSH1 0x20 PUSH1 0x40 MLOAD DUP1 DUP4 SUB DUP2 PUSH1 0x0 DUP8 GAS CALL ISZERO DUP1 ISZERO PUSH2 0xA43 JUMPI RETURNDATASIZE PUSH1 0x0 DUP1 RETURNDATACOPY RETURNDATASIZE PUSH1 0x0 REVERT JUMPDEST POP POP POP POP PUSH1 0x40 MLOAD RETURNDATASIZE PUSH1 0x1F NOT PUSH1 0x1F DUP3 ADD AND DUP3 ADD DUP1 PUSH1 0x40 MSTORE POP DUP2 ADD SWAP1 PUSH2 0xA67 SWAP2 SWAP1 PUSH2 0x1FF7 JUMP JUMPDEST SWAP1 POP DUP1 DUP4 DUP4 DUP2 MLOAD DUP2 LT PUSH2 0xA7C JUMPI PUSH2 0xA7C PUSH2 0x1EF8 JUMP JUMPDEST PUSH1 0x20 SWAP1 DUP2 MUL SWAP2 SWAP1 SWAP2 ADD ADD MSTORE PUSH2 0xA91 DUP2 DUP6 PUSH2 0x1F46 JUMP JUMPDEST SWAP4 POP POP DUP1 DUP1 PUSH2 0xA9F SWAP1 PUSH2 0x1F59 JUMP JUMPDEST SWAP2 POP POP PUSH2 0x9A6 JUMP JUMPDEST POP SWAP5 POP SWAP5 SWAP3 POP POP POP JUMP JUMPDEST PUSH2 0xAB9 PUSH2 0xEDB JUMP JUMPDEST PUSH1 0x1 PUSH1 0x1 PUSH1 0xA0 SHL SUB DUP4 AND PUSH2 0xAE0 JUMPI PUSH1 0x40 MLOAD PUSH4 0xF580583 PUSH1 0xE1 SHL DUP2 MSTORE PUSH1 0x4 ADD PUSH1 0x40 MLOAD DUP1 SWAP2 SUB SWAP1 REVERT JUMPDEST DUP2 PUSH1 0x0 SUB PUSH2 0xB04 JUMPI PUSH1 0x40 MLOAD PUSH4 0x717D7485 PUSH1 0xE1 SHL DUP2 MSTORE PUSH1 0x4 DUP2 ADD DUP4 SWAP1 MSTORE PUSH1 0x24 ADD PUSH2 0x581 JUMP JUMPDEST PUSH32 0x0 PUSH1 0x1 PUSH1 0x1 PUSH1 0xA0 SHL SUB AND DUP4 PUSH1 0x1 PUSH1 0x1 PUSH1 0xA0 SHL SUB AND SUB PUSH2 0xB56 JUMPI PUSH1 0x40 MLOAD PUSH4 0x2F6BD91 PUSH1 0xE0 SHL DUP2 MSTORE PUSH1 0x4 ADD PUSH1 0x40 MLOAD DUP1 SWAP2 SUB SWAP1 REVERT JUMPDEST PUSH1 0x40 MLOAD PUSH4 0x23B872DD PUSH1 0xE0 SHL DUP2 MSTORE CALLER PUSH1 0x4 DUP3 ADD MSTORE ADDRESS PUSH1 0x24 DUP3 ADD MSTORE PUSH1 0x44 DUP2 ADD DUP4 SWAP1 MSTORE PUSH1 0x1 PUSH1 0x1 PUSH1 0xA0 SHL SUB DUP5 AND SWAP1 PUSH4 0x23B872DD SWAP1 PUSH1 0x64 ADD PUSH1 0x20 PUSH1 0x40 MLOAD DUP1 DUP4 SUB DUP2 PUSH1 0x0 DUP8 GAS CALL ISZERO DUP1 ISZERO PUSH2 0xBA9 JUMPI RETURNDATASIZE PUSH1 0x0 DUP1 RETURNDATACOPY RETURNDATASIZE PUSH1 0x0 REVERT JUMPDEST POP POP POP POP PUSH1 0x40 MLOAD RETURNDATASIZE PUSH1 0x1F NOT PUSH1 0x1F DUP3 ADD AND DUP3 ADD DUP1 PUSH1 0x40 MSTORE POP DUP2 ADD SWAP1 PUSH2 0xBCD SWAP2 SWAP1 PUSH2 0x1F0E JUMP JUMPDEST POP PUSH2 0xBD9 DUP4 DUP4 DUP4 PUSH2 0x159A JUMP JUMPDEST PUSH2 0x8F5 PUSH1 0x1 DUP1 SSTORE JUMP JUMPDEST PUSH2 0xBEA PUSH2 0x14F0 JUMP JUMPDEST SELFBALANCE PUSH2 0xBFD PUSH1 0x0 SLOAD PUSH1 0x1 PUSH1 0x1 PUSH1 0xA0 SHL SUB AND SWAP1 JUMP JUMPDEST PUSH1 0x1 PUSH1 0x1 PUSH1 0xA0 SHL SUB AND PUSH2 0x8FC DUP3 SWAP1 DUP2 ISZERO MUL SWAP1 PUSH1 0x40 MLOAD PUSH1 0x0 PUSH1 0x40 MLOAD DUP1 DUP4 SUB DUP2 DUP6 DUP9 DUP9 CALL SWAP4 POP POP POP POP ISZERO DUP1 ISZERO PUSH2 0xC35 JUMPI RETURNDATASIZE PUSH1 0x0 DUP1 RETURNDATACOPY RETURNDATASIZE PUSH1 0x0 REVERT JUMPDEST POP POP JUMP JUMPDEST PUSH1 0x0 PUSH32 0x0 PUSH1 0x1 PUSH1 0x1 PUSH1 0xA0 SHL SUB AND DUP4 PUSH1 0x1 PUSH1 0x1 PUSH1 0xA0 SHL SUB AND SUB PUSH2 0xD79 JUMPI PUSH1 0x40 DUP1 MLOAD PUSH1 0xA0 DUP2 ADD DUP3 MSTORE PUSH1 0x1 PUSH1 0x1 PUSH1 0xA0 SHL SUB PUSH32 0x0 DUP2 AND DUP3 MSTORE PUSH32 0x0 DUP2 AND PUSH1 0x20 DUP4 ADD MSTORE PUSH2 0x2710 DUP3 DUP5 ADD MSTORE PUSH1 0x60 DUP3 ADD DUP6 SWAP1 MSTORE PUSH1 0x0 PUSH1 0x80 DUP4 ADD MSTORE SWAP2 MLOAD PUSH4 0x59D88DBF PUSH1 0xE1 SHL DUP2 MSTORE PUSH32 0x0 SWAP1 SWAP3 AND SWAP2 PUSH4 0xB3B11B7E SWAP2 PUSH2 0xD2B SWAP2 PUSH1 0x4 ADD PUSH2 0x2026 JUMP JUMPDEST PUSH1 0x20 PUSH1 0x40 MLOAD DUP1 DUP4 SUB DUP2 PUSH1 0x0 DUP8 GAS CALL SWAP3 POP POP POP DUP1 ISZERO PUSH2 0xD66 JUMPI POP PUSH1 0x40 DUP1 MLOAD PUSH1 0x1F RETURNDATASIZE SWAP1 DUP2 ADD PUSH1 0x1F NOT AND DUP3 ADD SWAP1 SWAP3 MSTORE PUSH2 0xD63 SWAP2 DUP2 ADD SWAP1 PUSH2 0x1FF7 JUMP JUMPDEST PUSH1 0x1 JUMPDEST PUSH2 0xD72 JUMPI POP PUSH1 0x0 PUSH2 0xE5C JUMP JUMPDEST SWAP1 POP PUSH2 0xE5C JUMP JUMPDEST PUSH1 0x40 DUP1 MLOAD PUSH1 0xA0 DUP2 ADD DUP3 MSTORE PUSH1 0x1 PUSH1 0x1 PUSH1 0xA0 SHL SUB DUP6 DUP2 AND DUP3 MSTORE PUSH32 0x0 DUP2 AND PUSH1 0x20 DUP4 ADD MSTORE PUSH2 0x2710 DUP3 DUP5 ADD MSTORE PUSH1 0x60 DUP3 ADD DUP6 SWAP1 MSTORE PUSH1 0x0 PUSH1 0x80 DUP4 ADD MSTORE SWAP2 MLOAD PUSH4 0x59D88DBF PUSH1 0xE1 SHL DUP2 MSTORE PUSH32 0x0 SWAP1 SWAP3 AND SWAP2 PUSH4 0xB3B11B7E SWAP2 PUSH2 0xE10 SWAP2 PUSH1 0x4 ADD PUSH2 0x2026 JUMP JUMPDEST PUSH1 0x20 PUSH1 0x40 MLOAD DUP1 DUP4 SUB DUP2 PUSH1 0x0 DUP8 GAS CALL SWAP3 POP POP POP DUP1 ISZERO PUSH2 0xE4B JUMPI POP PUSH1 0x40 DUP1 MLOAD PUSH1 0x1F RETURNDATASIZE SWAP1 DUP2 ADD PUSH1 0x1F NOT AND DUP3 ADD SWAP1 SWAP3 MSTORE PUSH2 0xE48 SWAP2 DUP2 ADD SWAP1 PUSH2 0x1FF7 JUMP JUMPDEST PUSH1 0x1 JUMPDEST PUSH2 0xE59 JUMPI PUSH2 0xD72 DUP4 DUP4 PUSH2 0x15B8 JUMP JUMPDEST SWAP1 POP JUMPDEST SWAP3 SWAP2 POP POP JUMP JUMPDEST PUSH2 0xE6A PUSH2 0x14F0 JUMP JUMPDEST PUSH1 0x1 PUSH1 0x1 PUSH1 0xA0 SHL SUB DUP2 AND PUSH2 0xECF JUMPI PUSH1 0x40 MLOAD PUSH3 0x461BCD PUSH1 0xE5 SHL DUP2 MSTORE PUSH1 0x20 PUSH1 0x4 DUP3 ADD MSTORE PUSH1 0x26 PUSH1 0x24 DUP3 ADD MSTORE PUSH32 0x4F776E61626C653A206E6577206F776E657220697320746865207A65726F2061 PUSH1 0x44 DUP3 ADD MSTORE PUSH6 0x646472657373 PUSH1 0xD0 SHL PUSH1 0x64 DUP3 ADD MSTORE PUSH1 0x84 ADD PUSH2 0x581 JUMP JUMPDEST PUSH2 0xED8 DUP2 PUSH2 0x154A JUMP JUMPDEST POP JUMP JUMPDEST PUSH1 0x2 PUSH1 0x1 SLOAD SUB PUSH2 0xF2D JUMPI PUSH1 0x40 MLOAD PUSH3 0x461BCD PUSH1 0xE5 SHL DUP2 MSTORE PUSH1 0x20 PUSH1 0x4 DUP3 ADD MSTORE PUSH1 0x1F PUSH1 0x24 DUP3 ADD MSTORE PUSH32 0x5265656E7472616E637947756172643A207265656E7472616E742063616C6C00 PUSH1 0x44 DUP3 ADD MSTORE PUSH1 0x64 ADD PUSH2 0x581 JUMP JUMPDEST PUSH1 0x2 PUSH1 0x1 SSTORE JUMP JUMPDEST PUSH1 0x0 PUSH2 0x3E8 DUP4 LT ISZERO PUSH2 0xF5C JUMPI PUSH1 0x40 MLOAD PUSH4 0x717D7485 PUSH1 0xE1 SHL DUP2 MSTORE PUSH1 0x4 DUP2 ADD DUP5 SWAP1 MSTORE PUSH1 0x24 ADD PUSH2 0x581 JUMP JUMPDEST PUSH1 0x40 MLOAD PUSH4 0x95EA7B3 PUSH1 0xE0 SHL DUP2 MSTORE PUSH1 0x1 PUSH1 0x1 PUSH1 0xA0 SHL SUB PUSH32 0x0 DUP2 AND PUSH1 0x4 DUP4 ADD MSTORE PUSH1 0x24 DUP3 ADD DUP6 SWAP1 MSTORE DUP6 AND SWAP1 PUSH4 0x95EA7B3 SWAP1 PUSH1 0x44 ADD PUSH1 0x20 PUSH1 0x40 MLOAD DUP1 DUP4 SUB DUP2 PUSH1 0x0 DUP8 GAS CALL ISZERO DUP1 ISZERO PUSH2 0xFCB JUMPI RETURNDATASIZE PUSH1 0x0 DUP1 RETURNDATACOPY RETURNDATASIZE PUSH1 0x0 REVERT JUMPDEST POP POP POP POP PUSH1 0x40 MLOAD RETURNDATASIZE PUSH1 0x1F NOT PUSH1 0x1F DUP3 ADD AND DUP3 ADD DUP1 PUSH1 0x40 MSTORE POP DUP2 ADD SWAP1 PUSH2 0xFEF SWAP2 SWAP1 PUSH2 0x1F0E JUMP JUMPDEST POP PUSH32 0x0 PUSH1 0x1 PUSH1 0x1 PUSH1 0xA0 SHL SUB AND DUP5 PUSH1 0x1 PUSH1 0x1 PUSH1 0xA0 SHL SUB AND SUB PUSH2 0x103B JUMPI PUSH2 0x1034 DUP5 DUP5 DUP5 PUSH2 0x17AE JUMP JUMPDEST SWAP1 POP PUSH2 0x105E JUMP JUMPDEST PUSH2 0x1046 DUP5 DUP5 DUP5 PUSH2 0x17AE JUMP JUMPDEST SWAP1 POP DUP1 PUSH1 0x0 SUB PUSH2 0x105E JUMPI PUSH2 0x105B DUP5 DUP5 DUP5 PUSH2 0x1A62 JUMP JUMPDEST SWAP1 POP JUMPDEST DUP1 PUSH1 0x0 SUB PUSH2 0x107F JUMPI PUSH1 0x40 MLOAD PUSH4 0x255F023 PUSH1 0xE3 SHL DUP2 MSTORE PUSH1 0x4 ADD PUSH1 0x40 MLOAD DUP1 SWAP2 SUB SWAP1 REVERT JUMPDEST DUP2 DUP2 LT ISZERO PUSH2 0x10AA JUMPI PUSH1 0x40 MLOAD PUSH4 0xD28D3EB5 PUSH1 0xE0 SHL DUP2 MSTORE PUSH1 0x4 DUP2 ADD DUP4 SWAP1 MSTORE PUSH1 0x24 DUP2 ADD DUP3 SWAP1 MSTORE PUSH1 0x44 ADD PUSH2 0x581 JUMP JUMPDEST PUSH1 0x40 DUP1 MLOAD DUP5 DUP2 MSTORE PUSH1 0x20 DUP2 ADD DUP4 SWAP1 MSTORE PUSH1 0x1 PUSH1 0x1 PUSH1 0xA0 SHL SUB DUP7 AND SWAP2 PUSH32 0x7BC21558F1CC3CD504A080657A8EBECB07BFFEB02D1C85FF440CC42448C17B21 SWAP2 ADD PUSH1 0x40 MLOAD DUP1 SWAP2 SUB SWAP1 LOG2 JUMPDEST SWAP4 SWAP3 POP POP POP JUMP JUMPDEST PUSH1 0x0 PUSH1 0x64 PUSH2 0x1105 PUSH1 0x50 DUP5 PUSH2 0x206E JUMP JUMPDEST PUSH2 0x110F SWAP2 SWAP1 PUSH2 0x2085 JUMP JUMPDEST SWAP1 POP PUSH1 0x0 PUSH1 0x64 PUSH2 0x1120 PUSH1 0x12 DUP6 PUSH2 0x206E JUMP JUMPDEST PUSH2 0x112A SWAP2 SWAP1 PUSH2 0x2085 JUMP JUMPDEST SWAP1 POP PUSH1 0x0 PUSH1 0x64 PUSH2 0x113B PUSH1 0x2 DUP7 PUSH2 0x206E JUMP JUMPDEST PUSH2 0x1145 SWAP2 SWAP1 PUSH2 0x2085 JUMP JUMPDEST SWAP1 POP PUSH1 0x0 DUP2 PUSH2 0x1154 DUP5 DUP7 PUSH2 0x1F46 JUMP JUMPDEST PUSH2 0x115E SWAP2 SWAP1 PUSH2 0x1F46 JUMP JUMPDEST SWAP1 POP DUP5 DUP2 GT ISZERO PUSH2 0x1180 JUMPI DUP3 PUSH2 0x1173 DUP6 DUP8 PUSH2 0x20A7 JUMP JUMPDEST PUSH2 0x117D SWAP2 SWAP1 PUSH2 0x20A7 JUMP JUMPDEST SWAP2 POP JUMPDEST PUSH1 0x40 MLOAD PUSH4 0x70A08231 PUSH1 0xE0 SHL DUP2 MSTORE ADDRESS PUSH1 0x4 DUP3 ADD MSTORE PUSH1 0x0 SWAP1 PUSH32 0x0 PUSH1 0x1 PUSH1 0x1 PUSH1 0xA0 SHL SUB AND SWAP1 PUSH4 0x70A08231 SWAP1 PUSH1 0x24 ADD PUSH1 0x20 PUSH1 0x40 MLOAD DUP1 DUP4 SUB DUP2 DUP7 GAS STATICCALL ISZERO DUP1 ISZERO PUSH2 0x11E7 JUMPI RETURNDATASIZE PUSH1 0x0 DUP1 RETURNDATACOPY RETURNDATASIZE PUSH1 0x0 REVERT JUMPDEST POP POP POP POP PUSH1 0x40 MLOAD RETURNDATASIZE PUSH1 0x1F NOT PUSH1 0x1F DUP3 ADD AND DUP3 ADD DUP1 PUSH1 0x40 MSTORE POP DUP2 ADD SWAP1 PUSH2 0x120B SWAP2 SWAP1 PUSH2 0x1FF7 JUMP JUMPDEST SWAP1 POP DUP2 DUP2 LT ISZERO PUSH2 0x1238 JUMPI PUSH1 0x40 MLOAD PUSH4 0x6D66D93 PUSH1 0xE0 SHL DUP2 MSTORE PUSH1 0x4 DUP2 ADD DUP4 SWAP1 MSTORE PUSH1 0x24 DUP2 ADD DUP3 SWAP1 MSTORE PUSH1 0x44 ADD PUSH2 0x581 JUMP JUMPDEST PUSH1 0x40 DUP1 MLOAD DUP8 DUP2 MSTORE PUSH1 0x20 DUP2 ADD DUP8 SWAP1 MSTORE SWAP1 DUP2 ADD DUP6 SWAP1 MSTORE PUSH1 0x60 DUP2 ADD DUP5 SWAP1 MSTORE PUSH1 0x80 DUP2 ADD DUP3 SWAP1 MSTORE PUSH32 0xAE1988051D273725134B908B2129020347CD421407708907A0F8AD40CA33D9E1 SWAP1 PUSH1 0xA0 ADD PUSH1 0x40 MLOAD DUP1 SWAP2 SUB SWAP1 LOG1 PUSH1 0x40 MLOAD PUSH4 0xA9059CBB PUSH1 0xE0 SHL DUP2 MSTORE CALLER PUSH1 0x4 DUP3 ADD MSTORE PUSH1 0x24 DUP2 ADD DUP7 SWAP1 MSTORE PUSH32 0x0 PUSH1 0x1 PUSH1 0x1 PUSH1 0xA0 SHL SUB AND SWAP1 PUSH4 0xA9059CBB SWAP1 PUSH1 0x44 ADD PUSH1 0x20 PUSH1 0x40 MLOAD DUP1 DUP4 SUB DUP2 PUSH1 0x0 DUP8 GAS CALL ISZERO DUP1 ISZERO PUSH2 0x12F4 JUMPI RETURNDATASIZE PUSH1 0x0 DUP1 RETURNDATACOPY RETURNDATASIZE PUSH1 0x0 REVERT JUMPDEST POP POP POP POP PUSH1 0x40 MLOAD RETURNDATASIZE PUSH1 0x1F NOT PUSH1 0x1F DUP3 ADD AND DUP3 ADD DUP1 PUSH1 0x40 MSTORE POP DUP2 ADD SWAP1 PUSH2 0x1318 SWAP2 SWAP1 PUSH2 0x1F0E JUMP JUMPDEST POP PUSH1 0x40 MLOAD PUSH4 0xA9059CBB PUSH1 0xE0 SHL DUP2 MSTORE PUSH20 0xD2A963866BD6D8DE525AC726AC79DDF46C287486 PUSH1 0x4 DUP3 ADD MSTORE PUSH1 0x24 DUP2 ADD DUP6 SWAP1 MSTORE PUSH32 0x0 PUSH1 0x1 PUSH1 0x1 PUSH1 0xA0 SHL SUB AND SWAP1 PUSH4 0xA9059CBB SWAP1 PUSH1 0x44 ADD PUSH1 0x20 PUSH1 0x40 MLOAD DUP1 DUP4 SUB DUP2 PUSH1 0x0 DUP8 GAS CALL ISZERO DUP1 ISZERO PUSH2 0x139A JUMPI RETURNDATASIZE PUSH1 0x0 DUP1 RETURNDATACOPY RETURNDATASIZE PUSH1 0x0 REVERT JUMPDEST POP POP POP POP PUSH1 0x40 MLOAD RETURNDATASIZE PUSH1 0x1F NOT PUSH1 0x1F DUP3 ADD AND DUP3 ADD DUP1 PUSH1 0x40 MSTORE POP DUP2 ADD SWAP1 PUSH2 0x13BE SWAP2 SWAP1 PUSH2 0x1F0E JUMP JUMPDEST POP PUSH1 0x40 MLOAD PUSH4 0xA9059CBB PUSH1 0xE0 SHL DUP2 MSTORE PUSH1 0x1 PUSH1 0x1 PUSH1 0xA0 SHL SUB PUSH32 0x0 DUP2 AND PUSH1 0x4 DUP4 ADD MSTORE PUSH1 0x24 DUP3 ADD DUP6 SWAP1 MSTORE PUSH32 0x0 AND SWAP1 PUSH4 0xA9059CBB SWAP1 PUSH1 0x44 ADD PUSH1 0x20 PUSH1 0x40 MLOAD DUP1 DUP4 SUB DUP2 PUSH1 0x0 DUP8 GAS CALL ISZERO DUP1 ISZERO PUSH2 0x144E JUMPI RETURNDATASIZE PUSH1 0x0 DUP1 RETURNDATACOPY RETURNDATASIZE PUSH1 0x0 REVERT JUMPDEST POP POP POP POP PUSH1 0x40 MLOAD RETURNDATASIZE PUSH1 0x1F NOT PUSH1 0x1F DUP3 ADD AND DUP3 ADD DUP1 PUSH1 0x40 MSTORE POP DUP2 ADD SWAP1 PUSH2 0x1472 SWAP2 SWAP1 PUSH2 0x1F0E JUMP JUMPDEST POP PUSH1 0x40 DUP1 MLOAD DUP8 DUP2 MSTORE PUSH1 0x20 DUP2 ADD DUP8 SWAP1 MSTORE SWAP1 DUP2 ADD DUP6 SWAP1 MSTORE PUSH1 0x60 DUP2 ADD DUP5 SWAP1 MSTORE PUSH1 0x1 PUSH1 0x1 PUSH1 0xA0 SHL SUB PUSH32 0x0 AND SWAP1 CALLER SWAP1 PUSH32 0x2922638CAB0D1B5985F7105FF5C07253FB92CB6CE049948E3F7937F5A29DB0AC SWAP1 PUSH1 0x80 ADD PUSH1 0x40 MLOAD DUP1 SWAP2 SUB SWAP1 LOG3 POP POP POP POP POP POP JUMP JUMPDEST PUSH1 0x0 SLOAD PUSH1 0x1 PUSH1 0x1 PUSH1 0xA0 SHL SUB AND CALLER EQ PUSH2 0x90C JUMPI PUSH1 0x40 MLOAD PUSH3 0x461BCD PUSH1 0xE5 SHL DUP2 MSTORE PUSH1 0x20 PUSH1 0x4 DUP3 ADD DUP2 SWAP1 MSTORE PUSH1 0x24 DUP3 ADD MSTORE PUSH32 0x4F776E61626C653A2063616C6C6572206973206E6F7420746865206F776E6572 PUSH1 0x44 DUP3 ADD MSTORE PUSH1 0x64 ADD PUSH2 0x581 JUMP JUMPDEST PUSH1 0x0 DUP1 SLOAD PUSH1 0x1 PUSH1 0x1 PUSH1 0xA0 SHL SUB DUP4 DUP2 AND PUSH1 0x1 PUSH1 0x1 PUSH1 0xA0 SHL SUB NOT DUP4 AND DUP2 OR DUP5 SSTORE PUSH1 0x40 MLOAD SWAP2 SWAP1 SWAP3 AND SWAP3 DUP4 SWAP2 PUSH32 0x8BE0079C531659141344CD1FD0A4F28419497F9722A3DAAFE3B4186F6B6457E0 SWAP2 SWAP1 LOG3 POP POP JUMP JUMPDEST PUSH1 0x0 PUSH2 0x15A7 DUP5 DUP5 DUP5 PUSH2 0xF34 JUMP JUMPDEST SWAP1 POP PUSH2 0x15B2 DUP2 PUSH2 0x10F6 JUMP JUMPDEST POP POP POP POP JUMP JUMPDEST PUSH1 0x40 DUP1 MLOAD PUSH1 0xA0 DUP2 ADD DUP3 MSTORE PUSH1 0x1 PUSH1 0x1 PUSH1 0xA0 SHL SUB DUP5 DUP2 AND DUP3 MSTORE PUSH32 0x0 DUP2 AND PUSH1 0x20 DUP4 ADD MSTORE PUSH2 0x2710 DUP3 DUP5 ADD MSTORE PUSH1 0x60 DUP3 ADD DUP5 SWAP1 MSTORE PUSH1 0x0 PUSH1 0x80 DUP4 ADD DUP2 SWAP1 MSTORE SWAP3 MLOAD PUSH4 0x59D88DBF PUSH1 0xE1 SHL DUP2 MSTORE DUP4 SWAP3 PUSH32 0x0 SWAP1 SWAP3 AND SWAP2 PUSH4 0xB3B11B7E SWAP2 PUSH2 0x1654 SWAP2 SWAP1 PUSH1 0x4 ADD PUSH2 0x2026 JUMP JUMPDEST PUSH1 0x20 PUSH1 0x40 MLOAD DUP1 DUP4 SUB DUP2 PUSH1 0x0 DUP8 GAS CALL SWAP3 POP POP POP DUP1 ISZERO PUSH2 0x168F JUMPI POP PUSH1 0x40 DUP1 MLOAD PUSH1 0x1F RETURNDATASIZE SWAP1 DUP2 ADD PUSH1 0x1F NOT AND DUP3 ADD SWAP1 SWAP3 MSTORE PUSH2 0x168C SWAP2 DUP2 ADD SWAP1 PUSH2 0x1FF7 JUMP JUMPDEST PUSH1 0x1 JUMPDEST PUSH2 0x169D JUMPI PUSH1 0x0 SWAP2 POP POP PUSH2 0xE5C JUMP JUMPDEST SWAP1 POP DUP1 ISZERO PUSH2 0x17A7 JUMPI PUSH1 0x40 DUP1 MLOAD PUSH1 0xA0 DUP2 ADD DUP3 MSTORE PUSH1 0x1 PUSH1 0x1 PUSH1 0xA0 SHL SUB PUSH32 0x0 DUP2 AND DUP3 MSTORE PUSH32 0x0 DUP2 AND PUSH1 0x20 DUP4 ADD MSTORE PUSH2 0x2710 DUP3 DUP5 ADD MSTORE PUSH1 0x60 DUP3 ADD DUP5 SWAP1 MSTORE PUSH1 0x0 PUSH1 0x80 DUP4 ADD MSTORE SWAP2 MLOAD PUSH4 0x59D88DBF PUSH1 0xE1 SHL DUP2 MSTORE PUSH32 0x0 SWAP1 SWAP3 AND SWAP2 PUSH4 0xB3B11B7E SWAP2 PUSH2 0x175C SWAP2 PUSH1 0x4 ADD PUSH2 0x2026 JUMP JUMPDEST PUSH1 0x20 PUSH1 0x40 MLOAD DUP1 DUP4 SUB DUP2 PUSH1 0x0 DUP8 GAS CALL SWAP3 POP POP POP DUP1 ISZERO PUSH2 0x1797 JUMPI POP PUSH1 0x40 DUP1 MLOAD PUSH1 0x1F RETURNDATASIZE SWAP1 DUP2 ADD PUSH1 0x1F NOT AND DUP3 ADD SWAP1 SWAP3 MSTORE PUSH2 0x1794 SWAP2 DUP2 ADD SWAP1 PUSH2 0x1FF7 JUMP JUMPDEST PUSH1 0x1 JUMPDEST PUSH2 0x17A4 JUMPI PUSH1 0x0 SWAP2 POP PUSH2 0x17A7 JUMP JUMPDEST SWAP2 POP JUMPDEST POP SWAP3 SWAP2 POP POP JUMP JUMPDEST PUSH1 0x0 PUSH32 0x0 PUSH1 0x1 PUSH1 0x1 PUSH1 0xA0 SHL SUB AND DUP5 PUSH1 0x1 PUSH1 0x1 PUSH1 0xA0 SHL SUB AND SUB PUSH2 0x1935 JUMPI PUSH32 0x0 PUSH1 0x1 PUSH1 0x1 PUSH1 0xA0 SHL SUB AND PUSH4 0x414BF389 PUSH1 0x40 MLOAD DUP1 PUSH2 0x100 ADD PUSH1 0x40 MSTORE DUP1 PUSH32 0x0 PUSH1 0x1 PUSH1 0x1 PUSH1 0xA0 SHL SUB AND DUP2 MSTORE PUSH1 0x20 ADD PUSH32 0x0 PUSH1 0x1 PUSH1 0x1 PUSH1 0xA0 SHL SUB AND DUP2 MSTORE PUSH1 0x20 ADD PUSH2 0x2710 PUSH3 0xFFFFFF AND DUP2 MSTORE PUSH1 0x20 ADD ADDRESS PUSH1 0x1 PUSH1 0x1 PUSH1 0xA0 SHL SUB AND DUP2 MSTORE PUSH1 0x20 ADD TIMESTAMP PUSH2 0x12C PUSH2 0x18AC SWAP2 SWAP1 PUSH2 0x1F46 JUMP JUMPDEST DUP2 MSTORE PUSH1 0x20 ADD DUP7 DUP2 MSTORE PUSH1 0x20 ADD DUP6 DUP2 MSTORE PUSH1 0x20 ADD PUSH1 0x0 PUSH1 0x1 PUSH1 0x1 PUSH1 0xA0 SHL SUB AND DUP2 MSTORE POP PUSH1 0x40 MLOAD DUP3 PUSH4 0xFFFFFFFF AND PUSH1 0xE0 SHL DUP2 MSTORE PUSH1 0x4 ADD PUSH2 0x18E7 SWAP2 SWAP1 PUSH2 0x20BA JUMP JUMPDEST PUSH1 0x20 PUSH1 0x40 MLOAD DUP1 DUP4 SUB DUP2 PUSH1 0x0 DUP8 GAS CALL SWAP3 POP POP POP DUP1 ISZERO PUSH2 0x1922 JUMPI POP PUSH1 0x40 DUP1 MLOAD PUSH1 0x1F RETURNDATASIZE SWAP1 DUP2 ADD PUSH1 0x1F NOT AND DUP3 ADD SWAP1 SWAP3 MSTORE PUSH2 0x191F SWAP2 DUP2 ADD SWAP1 PUSH2 0x1FF7 JUMP JUMPDEST PUSH1 0x1 JUMPDEST PUSH2 0x192E JUMPI POP PUSH1 0x0 PUSH2 0x10EF JUMP JUMPDEST SWAP1 POP PUSH2 0x10EF JUMP JUMPDEST PUSH32 0x0 PUSH1 0x1 PUSH1 0x1 PUSH1 0xA0 SHL SUB AND PUSH4 0x414BF389 PUSH1 0x40 MLOAD DUP1 PUSH2 0x100 ADD PUSH1 0x40 MSTORE DUP1 DUP8 PUSH1 0x1 PUSH1 0x1 PUSH1 0xA0 SHL SUB AND DUP2 MSTORE PUSH1 0x20 ADD PUSH32 0x0 PUSH1 0x1 PUSH1 0x1 PUSH1 0xA0 SHL SUB AND DUP2 MSTORE PUSH1 0x20 ADD PUSH2 0x2710 PUSH3 0xFFFFFF AND DUP2 MSTORE PUSH1 0x20 ADD ADDRESS PUSH1 0x1 PUSH1 0x1 PUSH1 0xA0 SHL SUB AND DUP2 MSTORE PUSH1 0x20 ADD TIMESTAMP PUSH2 0x12C PUSH2 0x19D8 SWAP2 SWAP1 PUSH2 0x1F46 JUMP JUMPDEST DUP2 MSTORE PUSH1 0x20 ADD DUP7 DUP2 MSTORE PUSH1 0x20 ADD DUP6 DUP2 MSTORE PUSH1 0x20 ADD PUSH1 0x0 PUSH1 0x1 PUSH1 0x1 PUSH1 0xA0 SHL SUB AND DUP2 MSTORE POP PUSH1 0x40 MLOAD DUP3 PUSH4 0xFFFFFFFF AND PUSH1 0xE0 SHL DUP2 MSTORE PUSH1 0x4 ADD PUSH2 0x1A13 SWAP2 SWAP1 PUSH2 0x20BA JUMP JUMPDEST PUSH1 0x20 PUSH1 0x40 MLOAD DUP1 DUP4 SUB DUP2 PUSH1 0x0 DUP8 GAS CALL SWAP3 POP POP POP DUP1 ISZERO PUSH2 0x1A4E JUMPI POP PUSH1 0x40 DUP1 MLOAD PUSH1 0x1F RETURNDATASIZE SWAP1 DUP2 ADD PUSH1 0x1F NOT AND DUP3 ADD SWAP1 SWAP3 MSTORE PUSH2 0x1A4B SWAP2 DUP2 ADD SWAP1 PUSH2 0x1FF7 JUMP JUMPDEST PUSH1 0x1 JUMPDEST PUSH2 0x1A5A JUMPI POP PUSH1 0x0 PUSH2 0x10EF JUMP JUMPDEST SWAP5 SWAP4 POP POP POP POP JUMP JUMPDEST PUSH1 0x0 DUP1 PUSH1 0x0 SWAP1 POP PUSH32 0x0 PUSH1 0x1 PUSH1 0x1 PUSH1 0xA0 SHL SUB AND PUSH4 0x414BF389 PUSH1 0x40 MLOAD DUP1 PUSH2 0x100 ADD PUSH1 0x40 MSTORE DUP1 DUP9 PUSH1 0x1 PUSH1 0x1 PUSH1 0xA0 SHL SUB AND DUP2 MSTORE PUSH1 0x20 ADD PUSH32 0x0 PUSH1 0x1 PUSH1 0x1 PUSH1 0xA0 SHL SUB AND DUP2 MSTORE PUSH1 0x20 ADD PUSH2 0x2710 PUSH3 0xFFFFFF AND DUP2 MSTORE PUSH1 0x20 ADD ADDRESS PUSH1 0x1 PUSH1 0x1 PUSH1 0xA0 SHL SUB AND DUP2 MSTORE PUSH1 0x20 ADD TIMESTAMP PUSH2 0x12C PUSH2 0x1B0C SWAP2 SWAP1 PUSH2 0x1F46 JUMP JUMPDEST DUP2 MSTORE PUSH1 0x20 ADD DUP8 DUP2 MSTORE PUSH1 0x20 ADD PUSH1 0x0 DUP2 MSTORE PUSH1 0x20 ADD PUSH1 0x0 PUSH1 0x1 PUSH1 0x1 PUSH1 0xA0 SHL SUB AND DUP2 MSTORE POP PUSH1 0x40 MLOAD DUP3 PUSH4 0xFFFFFFFF AND PUSH1 0xE0 SHL DUP2 MSTORE PUSH1 0x4 ADD PUSH2 0x1B48 SWAP2 SWAP1 PUSH2 0x20BA JUMP JUMPDEST PUSH1 0x20 PUSH1 0x40 MLOAD DUP1 DUP4 SUB DUP2 PUSH1 0x0 DUP8 GAS CALL SWAP3 POP POP POP DUP1 ISZERO PUSH2 0x1B83 JUMPI POP PUSH1 0x40 DUP1 MLOAD PUSH1 0x1F RETURNDATASIZE SWAP1 DUP2 ADD PUSH1 0x1F NOT AND DUP3 ADD SWAP1 SWAP3 MSTORE PUSH2 0x1B80 SWAP2 DUP2 ADD SWAP1 PUSH2 0x1FF7 JUMP JUMPDEST PUSH1 0x1 JUMPDEST PUSH2 0x1B91 JUMPI PUSH1 0x0 SWAP2 POP POP PUSH2 0x10EF JUMP JUMPDEST SWAP1 POP DUP1 ISZERO PUSH2 0x1CE2 JUMPI PUSH32 0x0 PUSH1 0x1 PUSH1 0x1 PUSH1 0xA0 SHL SUB AND PUSH4 0x414BF389 PUSH1 0x40 MLOAD DUP1 PUSH2 0x100 ADD PUSH1 0x40 MSTORE DUP1 PUSH32 0x0 PUSH1 0x1 PUSH1 0x1 PUSH1 0xA0 SHL SUB AND DUP2 MSTORE PUSH1 0x20 ADD PUSH32 0x0 PUSH1 0x1 PUSH1 0x1 PUSH1 0xA0 SHL SUB AND DUP2 MSTORE PUSH1 0x20 ADD PUSH2 0x2710 PUSH3 0xFFFFFF AND DUP2 MSTORE PUSH1 0x20 ADD ADDRESS PUSH1 0x1 PUSH1 0x1 PUSH1 0xA0 SHL SUB AND DUP2 MSTORE PUSH1 0x20 ADD TIMESTAMP PUSH2 0x12C PUSH2 0x1C5C SWAP2 SWAP1 PUSH2 0x1F46 JUMP JUMPDEST DUP2 MSTORE PUSH1 0x20 ADD DUP5 DUP2 MSTORE PUSH1 0x20 ADD DUP7 DUP2 MSTORE PUSH1 0x20 ADD PUSH1 0x0 PUSH1 0x1 PUSH1 0x1 PUSH1 0xA0 SHL SUB AND DUP2 MSTORE POP PUSH1 0x40 MLOAD DUP3 PUSH4 0xFFFFFFFF AND PUSH1 0xE0 SHL DUP2 MSTORE PUSH1 0x4 ADD PUSH2 0x1C97 SWAP2 SWAP1 PUSH2 0x20BA JUMP JUMPDEST PUSH1 0x20 PUSH1 0x40 MLOAD DUP1 DUP4 SUB DUP2 PUSH1 0x0 DUP8 GAS CALL SWAP3 POP POP POP DUP1 ISZERO PUSH2 0x1CD2 JUMPI POP PUSH1 0x40 DUP1 MLOAD PUSH1 0x1F RETURNDATASIZE SWAP1 DUP2 ADD PUSH1 0x1F NOT AND DUP3 ADD SWAP1 SWAP3 MSTORE PUSH2 0x1CCF SWAP2 DUP2 ADD SWAP1 PUSH2 0x1FF7 JUMP JUMPDEST PUSH1 0x1 JUMPDEST PUSH2 0x1CDF JUMPI PUSH1 0x0 SWAP2 POP PUSH2 0x1CE2 JUMP JUMPDEST SWAP2 POP JUMPDEST POP SWAP4 SWAP3 POP POP POP JUMP JUMPDEST PUSH1 0x0 DUP1 DUP4 PUSH1 0x1F DUP5 ADD SLT PUSH2 0x1CFC JUMPI PUSH1 0x0 DUP1 REVERT JUMPDEST POP DUP2 CALLDATALOAD PUSH8 0xFFFFFFFFFFFFFFFF DUP2 GT ISZERO PUSH2 0x1D14 JUMPI PUSH1 0x0 DUP1 REVERT JUMPDEST PUSH1 0x20 DUP4 ADD SWAP2 POP DUP4 PUSH1 0x20 DUP3 PUSH1 0x5 SHL DUP6 ADD ADD GT ISZERO PUSH2 0x1D2F JUMPI PUSH1 0x0 DUP1 REVERT JUMPDEST SWAP3 POP SWAP3 SWAP1 POP JUMP JUMPDEST PUSH1 0x0 DUP1 PUSH1 0x0 DUP1 PUSH1 0x0 PUSH1 0x60 DUP7 DUP9 SUB SLT ISZERO PUSH2 0x1D4E JUMPI PUSH1 0x0 DUP1 REVERT JUMPDEST DUP6 CALLDATALOAD PUSH8 0xFFFFFFFFFFFFFFFF DUP1 DUP3 GT ISZERO PUSH2 0x1D66 JUMPI PUSH1 0x0 DUP1 REVERT JUMPDEST PUSH2 0x1D72 DUP10 DUP4 DUP11 ADD PUSH2 0x1CEA JUMP JUMPDEST SWAP1 SWAP8 POP SWAP6 POP PUSH1 0x20 DUP9 ADD CALLDATALOAD SWAP2 POP DUP1 DUP3 GT ISZERO PUSH2 0x1D8B JUMPI PUSH1 0x0 DUP1 REVERT JUMPDEST POP PUSH2 0x1D98 DUP9 DUP3 DUP10 ADD PUSH2 0x1CEA JUMP JUMPDEST SWAP7 SWAP10 SWAP6 SWAP9 POP SWAP7 PUSH1 0x40 ADD CALLDATALOAD SWAP5 SWAP4 POP POP POP POP JUMP JUMPDEST DUP1 CALLDATALOAD PUSH1 0x1 PUSH1 0x1 PUSH1 0xA0 SHL SUB DUP2 AND DUP2 EQ PUSH2 0x1DC1 JUMPI PUSH1 0x0 DUP1 REVERT JUMPDEST SWAP2 SWAP1 POP JUMP JUMPDEST PUSH1 0x0 PUSH1 0x20 DUP3 DUP5 SUB SLT ISZERO PUSH2 0x1DD8 JUMPI PUSH1 0x0 DUP1 REVERT JUMPDEST PUSH2 0x10EF DUP3 PUSH2 0x1DAA JUMP JUMPDEST PUSH1 0x0 DUP1 PUSH1 0x0 DUP1 PUSH1 0x40 DUP6 DUP8 SUB SLT ISZERO PUSH2 0x1DF7 JUMPI PUSH1 0x0 DUP1 REVERT JUMPDEST DUP5 CALLDATALOAD PUSH8 0xFFFFFFFFFFFFFFFF DUP1 DUP3 GT ISZERO PUSH2 0x1E0F JUMPI PUSH1 0x0 DUP1 REVERT JUMPDEST PUSH2 0x1E1B DUP9 DUP4 DUP10 ADD PUSH2 0x1CEA JUMP JUMPDEST SWAP1 SWAP7 POP SWAP5 POP PUSH1 0x20 DUP8 ADD CALLDATALOAD SWAP2 POP DUP1 DUP3 GT ISZERO PUSH2 0x1E34 JUMPI PUSH1 0x0 DUP1 REVERT JUMPDEST POP PUSH2 0x1E41 DUP8 DUP3 DUP9 ADD PUSH2 0x1CEA JUMP JUMPDEST SWAP6 SWAP9 SWAP5 SWAP8 POP SWAP6 POP POP POP POP JUMP JUMPDEST PUSH1 0x0 PUSH1 0x40 DUP3 ADD DUP5 DUP4 MSTORE PUSH1 0x20 PUSH1 0x40 DUP2 DUP6 ADD MSTORE DUP2 DUP6 MLOAD DUP1 DUP5 MSTORE PUSH1 0x60 DUP7 ADD SWAP2 POP DUP3 DUP8 ADD SWAP4 POP PUSH1 0x0 JUMPDEST DUP2 DUP2 LT ISZERO PUSH2 0x1E8E JUMPI DUP5 MLOAD DUP4 MSTORE SWAP4 DUP4 ADD SWAP4 SWAP2 DUP4 ADD SWAP2 PUSH1 0x1 ADD PUSH2 0x1E72 JUMP JUMPDEST POP SWAP1 SWAP8 SWAP7 POP POP POP POP POP POP POP JUMP JUMPDEST PUSH1 0x0 DUP1 PUSH1 0x0 PUSH1 0x60 DUP5 DUP7 SUB SLT ISZERO PUSH2 0x1EB0 JUMPI PUSH1 0x0 DUP1 REVERT JUMPDEST PUSH2 0x1EB9 DUP5 PUSH2 0x1DAA JUMP JUMPDEST SWAP6 PUSH1 0x20 DUP6 ADD CALLDATALOAD SWAP6 POP PUSH1 0x40 SWAP1 SWAP5 ADD CALLDATALOAD SWAP4 SWAP3 POP POP POP JUMP JUMPDEST PUSH1 0x0 DUP1 PUSH1 0x40 DUP4 DUP6 SUB SLT ISZERO PUSH2 0x1EE1 JUMPI PUSH1 0x0 DUP1 REVERT JUMPDEST PUSH2 0x1EEA DUP4 PUSH2 0x1DAA JUMP JUMPDEST SWAP5 PUSH1 0x20 SWAP4 SWAP1 SWAP4 ADD CALLDATALOAD SWAP4 POP POP POP JUMP JUMPDEST PUSH4 0x4E487B71 PUSH1 0xE0 SHL PUSH1 0x0 MSTORE PUSH1 0x32 PUSH1 0x4 MSTORE PUSH1 0x24 PUSH1 0x0 REVERT JUMPDEST PUSH1 0x0 PUSH1 0x20 DUP3 DUP5 SUB SLT ISZERO PUSH2 0x1F20 JUMPI PUSH1 0x0 DUP1 REVERT JUMPDEST DUP2 MLOAD DUP1 ISZERO ISZERO DUP2 EQ PUSH2 0xE59 JUMPI PUSH1 0x0 DUP1 REVERT JUMPDEST PUSH4 0x4E487B71 PUSH1 0xE0 SHL PUSH1 0x0 MSTORE PUSH1 0x11 PUSH1 0x4 MSTORE PUSH1 0x24 PUSH1 0x0 REVERT JUMPDEST DUP1 DUP3 ADD DUP1 DUP3 GT ISZERO PUSH2 0xE5C JUMPI PUSH2 0xE5C PUSH2 0x1F30 JUMP JUMPDEST PUSH1 0x0 PUSH1 0x1 DUP3 ADD PUSH2 0x1F6B JUMPI PUSH2 0x1F6B PUSH2 0x1F30 JUMP JUMPDEST POP PUSH1 0x1 ADD SWAP1 JUMP JUMPDEST PUSH1 0x60 DUP1 DUP3 MSTORE DUP2 ADD DUP6 SWAP1 MSTORE PUSH1 0x0 DUP7 PUSH1 0x80 DUP4 ADD DUP3 JUMPDEST DUP9 DUP2 LT ISZERO PUSH2 0x1FB3 JUMPI PUSH1 0x1 PUSH1 0x1 PUSH1 0xA0 SHL SUB PUSH2 0x1F9E DUP5 PUSH2 0x1DAA JUMP JUMPDEST AND DUP3 MSTORE PUSH1 0x20 SWAP3 DUP4 ADD SWAP3 SWAP1 SWAP2 ADD SWAP1 PUSH1 0x1 ADD PUSH2 0x1F85 JUMP JUMPDEST POP DUP4 DUP2 SUB PUSH1 0x20 DUP6 ADD MSTORE DUP6 DUP2 MSTORE PUSH1 0x1 PUSH1 0x1 PUSH1 0xFB SHL SUB DUP7 GT ISZERO PUSH2 0x1FD3 JUMPI PUSH1 0x0 DUP1 REVERT JUMPDEST DUP6 PUSH1 0x5 SHL SWAP2 POP DUP2 DUP8 PUSH1 0x20 DUP4 ADD CALLDATACOPY PUSH1 0x40 SWAP4 SWAP1 SWAP4 ADD SWAP4 SWAP1 SWAP4 MSTORE POP ADD PUSH1 0x20 ADD SWAP5 SWAP4 POP POP POP POP JUMP JUMPDEST PUSH1 0x0 PUSH1 0x20 DUP3 DUP5 SUB SLT ISZERO PUSH2 0x2009 JUMPI PUSH1 0x0 DUP1 REVERT JUMPDEST POP MLOAD SWAP2 SWAP1 POP JUMP JUMPDEST PUSH4 0x4E487B71 PUSH1 0xE0 SHL PUSH1 0x0 MSTORE PUSH1 0x41 PUSH1 0x4 MSTORE PUSH1 0x24 PUSH1 0x0 REVERT JUMPDEST DUP2 MLOAD PUSH1 0x1 PUSH1 0x1 PUSH1 0xA0 SHL SUB SWAP1 DUP2 AND DUP3 MSTORE PUSH1 0x20 DUP1 DUP5 ADD MLOAD DUP3 AND SWAP1 DUP4 ADD MSTORE PUSH1 0x40 DUP1 DUP5 ADD MLOAD PUSH3 0xFFFFFF AND SWAP1 DUP4 ADD MSTORE PUSH1 0x60 DUP1 DUP5 ADD MLOAD SWAP1 DUP4 ADD MSTORE PUSH1 0x80 SWAP3 DUP4 ADD MLOAD AND SWAP2 DUP2 ADD SWAP2 SWAP1 SWAP2 MSTORE PUSH1 0xA0 ADD SWAP1 JUMP JUMPDEST DUP1 DUP3 MUL DUP2 ISZERO DUP3 DUP3 DIV DUP5 EQ OR PUSH2 0xE5C JUMPI PUSH2 0xE5C PUSH2 0x1F30 JUMP JUMPDEST PUSH1 0x0 DUP3 PUSH2 0x20A2 JUMPI PUSH4 0x4E487B71 PUSH1 0xE0 SHL PUSH1 0x0 MSTORE PUSH1 0x12 PUSH1 0x4 MSTORE PUSH1 0x24 PUSH1 0x0 REVERT JUMPDEST POP DIV SWAP1 JUMP JUMPDEST DUP2 DUP2 SUB DUP2 DUP2 GT ISZERO PUSH2 0xE5C JUMPI PUSH2 0xE5C PUSH2 0x1F30 JUMP JUMPDEST PUSH1 0x0 PUSH2 0x100 DUP3 ADD SWAP1 POP PUSH1 0x1 DUP1 PUSH1 0xA0 SHL SUB DUP1 DUP5 MLOAD AND DUP4 MSTORE DUP1 PUSH1 0x20 DUP6 ADD MLOAD AND PUSH1 0x20 DUP5 ADD MSTORE PUSH3 0xFFFFFF PUSH1 0x40 DUP6 ADD MLOAD AND PUSH1 0x40 DUP5 ADD MSTORE DUP1 PUSH1 0x60 DUP6 ADD MLOAD AND PUSH1 0x60 DUP5 ADD MSTORE POP PUSH1 0x80 DUP4 ADD MLOAD PUSH1 0x80 DUP4 ADD MSTORE PUSH1 0xA0 DUP4 ADD MLOAD PUSH1 0xA0 DUP4 ADD MSTORE PUSH1 0xC0 DUP4 ADD MLOAD PUSH1 0xC0 DUP4 ADD MSTORE PUSH1 0xE0 DUP4 ADD MLOAD PUSH2 0x17A7 PUSH1 0xE0 DUP5 ADD DUP3 PUSH1 0x1 PUSH1 0x1 PUSH1 0xA0 SHL SUB AND SWAP1 MSTORE JUMP INVALID LOG2 PUSH5 0x6970667358 0x22 SLT KECCAK256 DELEGATECALL 0xE3 0x24 STATICCALL 0xE9 0xF9 PUSH27 0xC52C73005D05CE3D12592AE07C0E021D8DB0A958250913AB726473 PUSH16 0x6C634300081300330000000000000000 "},"methodIdentifiers":{"BASE_CHAIN_ID()":"efc21e3f","BASE_GOERLI_CHAIN_ID()":"f34a2cf6","BASE_SEPOLIA_CHAIN_ID()":"f1b09fc1","DEFAULT_FEE()":"4fcc1def","DEV_WALLET()":"2d04f820","FEE_DENOMINATOR()":"d73792a9","HIGHER()":"ee7cf415","PLATFORM_FEE()":"34fbc9a1","POL_RECIPIENT()":"367917e3","POL_SHARE()":"44df4be6","POSITION_MANAGER()":"1bea83fe","UNISWAP_POOL()":"1d610577","UNISWAP_QUOTER()":"b268630b","UNISWAP_ROUTER()":"d8264920","USER_SHARE()":"a10eaa89","WETH()":"ad5c4648","WETH_HIGHER_POOL()":"d56d7f06","emergencyWithdraw(address)":"6ff1c9bc","emergencyWithdrawETH()":"84536017","executeBulkSwap(address[],uint256[],uint256)":"4c28233f","executeSwap(address,uint256,uint256)":"7fcf0717","getBulkSwapQuote(address[],uint256[])":"77a59bb5","getSwapQuote(address,uint256)":"b492fc69","owner()":"8da5cb5b","quoter()":"c6bbd5a7","renounceOwnership()":"715018a6","swapRouter()":"c31c9c07","transferOwnership(address)":"f2fde38b"}}}}}