{"contracts/SplitRouterQuoter.sol":{"SplitRouterQuoter":{"abi":[{"inputs":[{"internalType":"address","name":"_higher","type":"address"},{"internalType":"address","name":"_weth","type":"address"},{"internalType":"address","name":"_ethUsdPriceFeed","type":"address"}],"stateMutability":"nonpayable","type":"constructor"},{"inputs":[],"name":"BASE_CHAIN_ID","outputs":[{"internalType":"uint256","name":"","type":"uint256"}],"stateMutability":"view","type":"function"},{"inputs":[],"name":"BASE_GOERLI_CHAIN_ID","outputs":[{"internalType":"uint256","name":"","type":"uint256"}],"stateMutability":"view","type":"function"},{"inputs":[],"name":"DEV_WALLET","outputs":[{"internalType":"address","name":"","type":"address"}],"stateMutability":"view","type":"function"},{"inputs":[],"name":"DUST_THRESHOLD_USD","outputs":[{"internalType":"uint256","name":"","type":"uint256"}],"stateMutability":"view","type":"function"},{"inputs":[],"name":"ETH_USD_PRICE_FEED","outputs":[{"internalType":"address","name":"","type":"address"}],"stateMutability":"view","type":"function"},{"inputs":[],"name":"FEE_DENOMINATOR","outputs":[{"internalType":"uint256","name":"","type":"uint256"}],"stateMutability":"view","type":"function"},{"inputs":[],"name":"HIGHER","outputs":[{"internalType":"address","name":"","type":"address"}],"stateMutability":"view","type":"function"},{"inputs":[],"name":"PLATFORM_FEE","outputs":[{"internalType":"uint256","name":"","type":"uint256"}],"stateMutability":"view","type":"function"},{"inputs":[],"name":"POL_SHARE","outputs":[{"internalType":"uint256","name":"","type":"uint256"}],"stateMutability":"view","type":"function"},{"inputs":[],"name":"USER_SHARE","outputs":[{"internalType":"uint256","name":"","type":"uint256"}],"stateMutability":"view","type":"function"},{"inputs":[],"name":"WETH","outputs":[{"internalType":"address","name":"","type":"address"}],"stateMutability":"view","type":"function"},{"inputs":[{"internalType":"address[]","name":"tokens","type":"address[]"},{"internalType":"uint256[]","name":"amounts","type":"uint256[]"}],"name":"getBulkSwapQuote","outputs":[{"components":[{"internalType":"address[]","name":"tokens","type":"address[]"},{"internalType":"uint256[]","name":"amounts","type":"uint256[]"},{"internalType":"uint256","name":"totalUserShare","type":"uint256"},{"internalType":"uint256","name":"totalPolShare","type":"uint256"},{"internalType":"uint256","name":"totalPlatformFee","type":"uint256"},{"internalType":"uint256","name":"totalValueUSD","type":"uint256"},{"internalType":"uint256","name":"dustTokensCount","type":"uint256"}],"internalType":"struct SplitRouterQuoter.DustQuote","name":"","type":"tuple"}],"stateMutability":"view","type":"function"},{"inputs":[],"name":"getETHPrice","outputs":[{"internalType":"uint256","name":"","type":"uint256"}],"stateMutability":"view","type":"function"},{"inputs":[{"internalType":"address","name":"tokenIn","type":"address"},{"internalType":"uint256","name":"amountIn","type":"uint256"}],"name":"getSwapQuote","outputs":[{"components":[{"internalType":"uint256","name":"amountIn","type":"uint256"},{"internalType":"uint256","name":"userShare","type":"uint256"},{"internalType":"uint256","name":"polShare","type":"uint256"},{"internalType":"uint256","name":"platformFee","type":"uint256"},{"internalType":"uint256","name":"totalValueUSD","type":"uint256"},{"internalType":"bool","name":"isDust","type":"bool"}],"internalType":"struct SplitRouterQuoter.SwapQuote","name":"","type":"tuple"}],"stateMutability":"view","type":"function"},{"inputs":[{"internalType":"address","name":"token","type":"address"},{"internalType":"uint256","name":"amount","type":"uint256"}],"name":"isDustToken","outputs":[{"internalType":"bool","name":"","type":"bool"}],"stateMutability":"view","type":"function"}],"evm":{"bytecode":{"linkReferences":{},"object":"60e060405234801561001057600080fd5b50604051610e21380380610e2183398101604081905261002f916100e0565b612105461480610041575062014a3346145b6100a75760405162461bcd60e51b815260206004820152602d60248201527f53706c6974526f7574657251756f7465723a204f6e6c7920776f726b73206f6e60448201526c2042617365206e6574776f726b60981b606482015260840160405180910390fd5b6001600160a01b0392831660805290821660a0521660c052610123565b80516001600160a01b03811681146100db57600080fd5b919050565b6000806000606084860312156100f557600080fd5b6100fe846100c4565b925061010c602085016100c4565b915061011a604085016100c4565b90509250925092565b60805160a05160c051610cba610167600039600081816101da0152610708015260006101b301526000818161026a0152818161045b01526108740152610cba6000f3fe608060405234801561001057600080fd5b50600436106100f55760003560e01c8063a607a8d911610097578063d73792a911610066578063d73792a91461025d578063ee7cf41514610265578063efc21e3f1461028c578063f34a2cf61461029557600080fd5b8063a607a8d9146101a6578063ad5c4648146101ae578063b0f0abe9146101d5578063b492fc69146101fc57600080fd5b806344df4be6116100d357806344df4be61461015357806377a59bb51461015b5780637e99e2281461017b578063a10eaa891461019e57600080fd5b806312d1d037146100fa5780632d04f8201461011857806334fbc9a11461014b575b600080fd5b6101056311e1a30081565b6040519081526020015b60405180910390f35b610133731831510811ddd00e6180c345f00f12c4536abaa381565b6040516001600160a01b03909116815260200161010f565b610105600281565b610105601281565b61016e6101693660046109cd565b61029f565b60405161010f9190610a74565b61018e610189366004610b3d565b6106f5565b604051901515815260200161010f565b610105605081565b610105610703565b6101337f000000000000000000000000000000000000000000000000000000000000000081565b6101337f000000000000000000000000000000000000000000000000000000000000000081565b61020f61020a366004610b3d565b610799565b60405161010f9190600060c082019050825182526020830151602083015260408301516040830152606083015160608301526080830151608083015260a0830151151560a083015292915050565b610105606481565b6101337f000000000000000000000000000000000000000000000000000000000000000081565b61010561210581565b61010562014a3381565b6102df6040518060e00160405280606081526020016060815260200160008152602001600081526020016000815260200160008152602001600081525090565b83821461032c5760405162461bcd60e51b8152602060048201526016602482015275082e4e4c2f2e640d8cadccee8d040dad2e6dac2e8c6d60531b60448201526064015b60405180910390fd5b836103685760405162461bcd60e51b815260206004820152600c60248201526b456d7074792061727261797360a01b6044820152606401610323565b6000806000806000805b8981101561064c5760008b8b8381811061038e5761038e610b67565b90506020020160208101906103a39190610b7d565b6001600160a01b0316036103f15760405162461bcd60e51b8152602060048201526015602482015274496e76616c696420746f6b656e206164647265737360581b6044820152606401610323565b600089898381811061040557610405610b67565b90506020020135116104595760405162461bcd60e51b815260206004820152601d60248201527f416d6f756e74206d7573742062652067726561746572207468616e20300000006044820152606401610323565b7f00000000000000000000000000000000000000000000000000000000000000006001600160a01b03168b8b8381811061049557610495610b67565b90506020020160208101906104aa9190610b7d565b6001600160a01b0316036105005760405162461bcd60e51b815260206004820152601c60248201527f43616e6e6f7420737761702048494748455220746f20484947484552000000006044820152606401610323565b600061054a8c8c8481811061051757610517610b67565b905060200201602081019061052c9190610b7d565b8b8b8581811061053e5761053e610b67565b90506020020135919050565b90506105568185610bb5565b93506311e1a300811015610572578261056e81610bc8565b9350505b6000606460508c8c8681811061058a5761058a610b67565b9050602002013561059b9190610be1565b6105a59190610bf8565b90506000606460128d8d878181106105bf576105bf610b67565b905060200201356105d09190610be1565b6105da9190610bf8565b90506000606460028e8e888181106105f4576105f4610b67565b905060200201356106059190610be1565b61060f9190610bf8565b905061061b838b610bb5565b9950610627828a610bb5565b98506106338189610bb5565b975050505050808061064490610bc8565b915050610372565b506040518060e001604052808b8b808060200260200160405190810160405280939291908181526020018383602002808284376000920191909152505050908252506040805160208b810282810182019093528b82529283019290918c918c918291850190849080828437600092019190915250505090825250602081019690965260408601949094526060850192909252608084015260a09092019190915295945050505050565b6311e1a30081105b92915050565b6000807f000000000000000000000000000000000000000000000000000000000000000090506000816001600160a01b031663feaf968c6040518163ffffffff1660e01b815260040160a060405180830381865afa158015610769573d6000803e3d6000fd5b505050506040513d601f19601f8201168201806040525081019061078d9190610c34565b50919695505050505050565b6107d46040518060c0016040528060008152602001600081526020016000815260200160008152602001600081526020016000151581525090565b6001600160a01b0383166108225760405162461bcd60e51b8152602060048201526015602482015274496e76616c696420746f6b656e206164647265737360581b6044820152606401610323565b600082116108725760405162461bcd60e51b815260206004820152601d60248201527f416d6f756e74206d7573742062652067726561746572207468616e20300000006044820152606401610323565b7f00000000000000000000000000000000000000000000000000000000000000006001600160a01b0316836001600160a01b0316036108f35760405162461bcd60e51b815260206004820152601c60248201527f43616e6e6f7420737761702048494748455220746f20484947484552000000006044820152606401610323565b816311e1a30081106000606461090a605085610be1565b6109149190610bf8565b905060006064610925601288610be1565b61092f9190610bf8565b905060006064610940600289610be1565b61094a9190610bf8565b6040805160c0810182529889526020890194909452928701919091525060608501526080840191909152151560a083015250919050565b60008083601f84011261099357600080fd5b50813567ffffffffffffffff8111156109ab57600080fd5b6020830191508360208260051b85010111156109c657600080fd5b9250929050565b600080600080604085870312156109e357600080fd5b843567ffffffffffffffff808211156109fb57600080fd5b610a0788838901610981565b90965094506020870135915080821115610a2057600080fd5b50610a2d87828801610981565b95989497509550505050565b600081518084526020808501945080840160005b83811015610a6957815187529582019590820190600101610a4d565b509495945050505050565b6020808252825160e083830152805161010084018190526000929182019083906101208601905b80831015610ac45783516001600160a01b03168252928401926001929092019190840190610a9b565b5092860151858403601f1901604087015292610ae08185610a39565b93505050506040840151606084015260608401516080840152608084015160a084015260a084015160c084015260c084015160e08401528091505092915050565b80356001600160a01b0381168114610b3857600080fd5b919050565b60008060408385031215610b5057600080fd5b610b5983610b21565b946020939093013593505050565b634e487b7160e01b600052603260045260246000fd5b600060208284031215610b8f57600080fd5b610b9882610b21565b9392505050565b634e487b7160e01b600052601160045260246000fd5b808201808211156106fd576106fd610b9f565b600060018201610bda57610bda610b9f565b5060010190565b80820281158282048414176106fd576106fd610b9f565b600082610c1557634e487b7160e01b600052601260045260246000fd5b500490565b805169ffffffffffffffffffff81168114610b3857600080fd5b600080600080600060a08688031215610c4c57600080fd5b610c5586610c1a565b9450602086015193506040860151925060608601519150610c7860808701610c1a565b9050929550929590935056fea264697066735822122090969353bcef4db22f6cfcd0f94bfaf181c00240a97cd08bc7c8b0238f558cf064736f6c63430008130033","opcodes":"PUSH1 0xE0 PUSH1 0x40 MSTORE CALLVALUE DUP1 ISZERO PUSH2 0x10 JUMPI PUSH1 0x0 DUP1 REVERT JUMPDEST POP PUSH1 0x40 MLOAD PUSH2 0xE21 CODESIZE SUB DUP1 PUSH2 0xE21 DUP4 CODECOPY DUP2 ADD PUSH1 0x40 DUP2 SWAP1 MSTORE PUSH2 0x2F SWAP2 PUSH2 0xE0 JUMP JUMPDEST PUSH2 0x2105 CHAINID EQ DUP1 PUSH2 0x41 JUMPI POP PUSH3 0x14A33 CHAINID EQ JUMPDEST PUSH2 0xA7 JUMPI PUSH1 0x40 MLOAD PUSH3 0x461BCD PUSH1 0xE5 SHL DUP2 MSTORE PUSH1 0x20 PUSH1 0x4 DUP3 ADD MSTORE PUSH1 0x2D PUSH1 0x24 DUP3 ADD MSTORE PUSH32 0x53706C6974526F7574657251756F7465723A204F6E6C7920776F726B73206F6E PUSH1 0x44 DUP3 ADD MSTORE PUSH13 0x2042617365206E6574776F726B PUSH1 0x98 SHL PUSH1 0x64 DUP3 ADD MSTORE PUSH1 0x84 ADD PUSH1 0x40 MLOAD DUP1 SWAP2 SUB SWAP1 REVERT JUMPDEST PUSH1 0x1 PUSH1 0x1 PUSH1 0xA0 SHL SUB SWAP3 DUP4 AND PUSH1 0x80 MSTORE SWAP1 DUP3 AND PUSH1 0xA0 MSTORE AND PUSH1 0xC0 MSTORE PUSH2 0x123 JUMP JUMPDEST DUP1 MLOAD PUSH1 0x1 PUSH1 0x1 PUSH1 0xA0 SHL SUB DUP2 AND DUP2 EQ PUSH2 0xDB JUMPI PUSH1 0x0 DUP1 REVERT JUMPDEST SWAP2 SWAP1 POP JUMP JUMPDEST PUSH1 0x0 DUP1 PUSH1 0x0 PUSH1 0x60 DUP5 DUP7 SUB SLT ISZERO PUSH2 0xF5 JUMPI PUSH1 0x0 DUP1 REVERT JUMPDEST PUSH2 0xFE DUP5 PUSH2 0xC4 JUMP JUMPDEST SWAP3 POP PUSH2 0x10C PUSH1 0x20 DUP6 ADD PUSH2 0xC4 JUMP JUMPDEST SWAP2 POP PUSH2 0x11A PUSH1 0x40 DUP6 ADD PUSH2 0xC4 JUMP JUMPDEST SWAP1 POP SWAP3 POP SWAP3 POP SWAP3 JUMP JUMPDEST PUSH1 0x80 MLOAD PUSH1 0xA0 MLOAD PUSH1 0xC0 MLOAD PUSH2 0xCBA PUSH2 0x167 PUSH1 0x0 CODECOPY PUSH1 0x0 DUP2 DUP2 PUSH2 0x1DA ADD MSTORE PUSH2 0x708 ADD MSTORE PUSH1 0x0 PUSH2 0x1B3 ADD MSTORE PUSH1 0x0 DUP2 DUP2 PUSH2 0x26A ADD MSTORE DUP2 DUP2 PUSH2 0x45B ADD MSTORE PUSH2 0x874 ADD MSTORE PUSH2 0xCBA PUSH1 0x0 RETURN INVALID PUSH1 0x80 PUSH1 0x40 MSTORE CALLVALUE DUP1 ISZERO PUSH2 0x10 JUMPI PUSH1 0x0 DUP1 REVERT JUMPDEST POP PUSH1 0x4 CALLDATASIZE LT PUSH2 0xF5 JUMPI PUSH1 0x0 CALLDATALOAD PUSH1 0xE0 SHR DUP1 PUSH4 0xA607A8D9 GT PUSH2 0x97 JUMPI DUP1 PUSH4 0xD73792A9 GT PUSH2 0x66 JUMPI DUP1 PUSH4 0xD73792A9 EQ PUSH2 0x25D JUMPI DUP1 PUSH4 0xEE7CF415 EQ PUSH2 0x265 JUMPI DUP1 PUSH4 0xEFC21E3F EQ PUSH2 0x28C JUMPI DUP1 PUSH4 0xF34A2CF6 EQ PUSH2 0x295 JUMPI PUSH1 0x0 DUP1 REVERT JUMPDEST DUP1 PUSH4 0xA607A8D9 EQ PUSH2 0x1A6 JUMPI DUP1 PUSH4 0xAD5C4648 EQ PUSH2 0x1AE JUMPI DUP1 PUSH4 0xB0F0ABE9 EQ PUSH2 0x1D5 JUMPI DUP1 PUSH4 0xB492FC69 EQ PUSH2 0x1FC JUMPI PUSH1 0x0 DUP1 REVERT JUMPDEST DUP1 PUSH4 0x44DF4BE6 GT PUSH2 0xD3 JUMPI DUP1 PUSH4 0x44DF4BE6 EQ PUSH2 0x153 JUMPI DUP1 PUSH4 0x77A59BB5 EQ PUSH2 0x15B JUMPI DUP1 PUSH4 0x7E99E228 EQ PUSH2 0x17B JUMPI DUP1 PUSH4 0xA10EAA89 EQ PUSH2 0x19E JUMPI PUSH1 0x0 DUP1 REVERT JUMPDEST DUP1 PUSH4 0x12D1D037 EQ PUSH2 0xFA JUMPI DUP1 PUSH4 0x2D04F820 EQ PUSH2 0x118 JUMPI DUP1 PUSH4 0x34FBC9A1 EQ PUSH2 0x14B JUMPI JUMPDEST PUSH1 0x0 DUP1 REVERT JUMPDEST PUSH2 0x105 PUSH4 0x11E1A300 DUP2 JUMP JUMPDEST PUSH1 0x40 MLOAD SWAP1 DUP2 MSTORE PUSH1 0x20 ADD JUMPDEST PUSH1 0x40 MLOAD DUP1 SWAP2 SUB SWAP1 RETURN JUMPDEST PUSH2 0x133 PUSH20 0x1831510811DDD00E6180C345F00F12C4536ABAA3 DUP2 JUMP JUMPDEST PUSH1 0x40 MLOAD PUSH1 0x1 PUSH1 0x1 PUSH1 0xA0 SHL SUB SWAP1 SWAP2 AND DUP2 MSTORE PUSH1 0x20 ADD PUSH2 0x10F JUMP JUMPDEST PUSH2 0x105 PUSH1 0x2 DUP2 JUMP JUMPDEST PUSH2 0x105 PUSH1 0x12 DUP2 JUMP JUMPDEST PUSH2 0x16E PUSH2 0x169 CALLDATASIZE PUSH1 0x4 PUSH2 0x9CD JUMP JUMPDEST PUSH2 0x29F JUMP JUMPDEST PUSH1 0x40 MLOAD PUSH2 0x10F SWAP2 SWAP1 PUSH2 0xA74 JUMP JUMPDEST PUSH2 0x18E PUSH2 0x189 CALLDATASIZE PUSH1 0x4 PUSH2 0xB3D JUMP JUMPDEST PUSH2 0x6F5 JUMP JUMPDEST PUSH1 0x40 MLOAD SWAP1 ISZERO ISZERO DUP2 MSTORE PUSH1 0x20 ADD PUSH2 0x10F JUMP JUMPDEST PUSH2 0x105 PUSH1 0x50 DUP2 JUMP JUMPDEST PUSH2 0x105 PUSH2 0x703 JUMP JUMPDEST PUSH2 0x133 PUSH32 0x0 DUP2 JUMP JUMPDEST PUSH2 0x133 PUSH32 0x0 DUP2 JUMP JUMPDEST PUSH2 0x20F PUSH2 0x20A CALLDATASIZE PUSH1 0x4 PUSH2 0xB3D JUMP JUMPDEST PUSH2 0x799 JUMP JUMPDEST PUSH1 0x40 MLOAD PUSH2 0x10F SWAP2 SWAP1 PUSH1 0x0 PUSH1 0xC0 DUP3 ADD SWAP1 POP DUP3 MLOAD DUP3 MSTORE PUSH1 0x20 DUP4 ADD MLOAD PUSH1 0x20 DUP4 ADD MSTORE PUSH1 0x40 DUP4 ADD MLOAD PUSH1 0x40 DUP4 ADD MSTORE PUSH1 0x60 DUP4 ADD MLOAD PUSH1 0x60 DUP4 ADD MSTORE PUSH1 0x80 DUP4 ADD MLOAD PUSH1 0x80 DUP4 ADD MSTORE PUSH1 0xA0 DUP4 ADD MLOAD ISZERO ISZERO PUSH1 0xA0 DUP4 ADD MSTORE SWAP3 SWAP2 POP POP JUMP JUMPDEST PUSH2 0x105 PUSH1 0x64 DUP2 JUMP JUMPDEST PUSH2 0x133 PUSH32 0x0 DUP2 JUMP JUMPDEST PUSH2 0x105 PUSH2 0x2105 DUP2 JUMP JUMPDEST PUSH2 0x105 PUSH3 0x14A33 DUP2 JUMP JUMPDEST PUSH2 0x2DF PUSH1 0x40 MLOAD DUP1 PUSH1 0xE0 ADD PUSH1 0x40 MSTORE DUP1 PUSH1 0x60 DUP2 MSTORE PUSH1 0x20 ADD PUSH1 0x60 DUP2 MSTORE PUSH1 0x20 ADD PUSH1 0x0 DUP2 MSTORE PUSH1 0x20 ADD PUSH1 0x0 DUP2 MSTORE PUSH1 0x20 ADD PUSH1 0x0 DUP2 MSTORE PUSH1 0x20 ADD PUSH1 0x0 DUP2 MSTORE PUSH1 0x20 ADD PUSH1 0x0 DUP2 MSTORE POP SWAP1 JUMP JUMPDEST DUP4 DUP3 EQ PUSH2 0x32C JUMPI PUSH1 0x40 MLOAD PUSH3 0x461BCD PUSH1 0xE5 SHL DUP2 MSTORE PUSH1 0x20 PUSH1 0x4 DUP3 ADD MSTORE PUSH1 0x16 PUSH1 0x24 DUP3 ADD MSTORE PUSH22 0x82E4E4C2F2E640D8CADCCEE8D040DAD2E6DAC2E8C6D PUSH1 0x53 SHL PUSH1 0x44 DUP3 ADD MSTORE PUSH1 0x64 ADD JUMPDEST PUSH1 0x40 MLOAD DUP1 SWAP2 SUB SWAP1 REVERT JUMPDEST DUP4 PUSH2 0x368 JUMPI PUSH1 0x40 MLOAD PUSH3 0x461BCD PUSH1 0xE5 SHL DUP2 MSTORE PUSH1 0x20 PUSH1 0x4 DUP3 ADD MSTORE PUSH1 0xC PUSH1 0x24 DUP3 ADD MSTORE PUSH12 0x456D70747920617272617973 PUSH1 0xA0 SHL PUSH1 0x44 DUP3 ADD MSTORE PUSH1 0x64 ADD PUSH2 0x323 JUMP JUMPDEST PUSH1 0x0 DUP1 PUSH1 0x0 DUP1 PUSH1 0x0 DUP1 JUMPDEST DUP10 DUP2 LT ISZERO PUSH2 0x64C JUMPI PUSH1 0x0 DUP12 DUP12 DUP4 DUP2 DUP2 LT PUSH2 0x38E JUMPI PUSH2 0x38E PUSH2 0xB67 JUMP JUMPDEST SWAP1 POP PUSH1 0x20 MUL ADD PUSH1 0x20 DUP2 ADD SWAP1 PUSH2 0x3A3 SWAP2 SWAP1 PUSH2 0xB7D JUMP JUMPDEST PUSH1 0x1 PUSH1 0x1 PUSH1 0xA0 SHL SUB AND SUB PUSH2 0x3F1 JUMPI PUSH1 0x40 MLOAD PUSH3 0x461BCD PUSH1 0xE5 SHL DUP2 MSTORE PUSH1 0x20 PUSH1 0x4 DUP3 ADD MSTORE PUSH1 0x15 PUSH1 0x24 DUP3 ADD MSTORE PUSH21 0x496E76616C696420746F6B656E2061646472657373 PUSH1 0x58 SHL PUSH1 0x44 DUP3 ADD MSTORE PUSH1 0x64 ADD PUSH2 0x323 JUMP JUMPDEST PUSH1 0x0 DUP10 DUP10 DUP4 DUP2 DUP2 LT PUSH2 0x405 JUMPI PUSH2 0x405 PUSH2 0xB67 JUMP JUMPDEST SWAP1 POP PUSH1 0x20 MUL ADD CALLDATALOAD GT PUSH2 0x459 JUMPI PUSH1 0x40 MLOAD PUSH3 0x461BCD PUSH1 0xE5 SHL DUP2 MSTORE PUSH1 0x20 PUSH1 0x4 DUP3 ADD MSTORE PUSH1 0x1D PUSH1 0x24 DUP3 ADD MSTORE PUSH32 0x416D6F756E74206D7573742062652067726561746572207468616E2030000000 PUSH1 0x44 DUP3 ADD MSTORE PUSH1 0x64 ADD PUSH2 0x323 JUMP JUMPDEST PUSH32 0x0 PUSH1 0x1 PUSH1 0x1 PUSH1 0xA0 SHL SUB AND DUP12 DUP12 DUP4 DUP2 DUP2 LT PUSH2 0x495 JUMPI PUSH2 0x495 PUSH2 0xB67 JUMP JUMPDEST SWAP1 POP PUSH1 0x20 MUL ADD PUSH1 0x20 DUP2 ADD SWAP1 PUSH2 0x4AA SWAP2 SWAP1 PUSH2 0xB7D JUMP JUMPDEST PUSH1 0x1 PUSH1 0x1 PUSH1 0xA0 SHL SUB AND SUB PUSH2 0x500 JUMPI PUSH1 0x40 MLOAD PUSH3 0x461BCD PUSH1 0xE5 SHL DUP2 MSTORE PUSH1 0x20 PUSH1 0x4 DUP3 ADD MSTORE PUSH1 0x1C PUSH1 0x24 DUP3 ADD MSTORE PUSH32 0x43616E6E6F7420737761702048494748455220746F2048494748455200000000 PUSH1 0x44 DUP3 ADD MSTORE PUSH1 0x64 ADD PUSH2 0x323 JUMP JUMPDEST PUSH1 0x0 PUSH2 0x54A DUP13 DUP13 DUP5 DUP2 DUP2 LT PUSH2 0x517 JUMPI PUSH2 0x517 PUSH2 0xB67 JUMP JUMPDEST SWAP1 POP PUSH1 0x20 MUL ADD PUSH1 0x20 DUP2 ADD SWAP1 PUSH2 0x52C SWAP2 SWAP1 PUSH2 0xB7D JUMP JUMPDEST DUP12 DUP12 DUP6 DUP2 DUP2 LT PUSH2 0x53E JUMPI PUSH2 0x53E PUSH2 0xB67 JUMP JUMPDEST SWAP1 POP PUSH1 0x20 MUL ADD CALLDATALOAD SWAP2 SWAP1 POP JUMP JUMPDEST SWAP1 POP PUSH2 0x556 DUP2 DUP6 PUSH2 0xBB5 JUMP JUMPDEST SWAP4 POP PUSH4 0x11E1A300 DUP2 LT ISZERO PUSH2 0x572 JUMPI DUP3 PUSH2 0x56E DUP2 PUSH2 0xBC8 JUMP JUMPDEST SWAP4 POP POP JUMPDEST PUSH1 0x0 PUSH1 0x64 PUSH1 0x50 DUP13 DUP13 DUP7 DUP2 DUP2 LT PUSH2 0x58A JUMPI PUSH2 0x58A PUSH2 0xB67 JUMP JUMPDEST SWAP1 POP PUSH1 0x20 MUL ADD CALLDATALOAD PUSH2 0x59B SWAP2 SWAP1 PUSH2 0xBE1 JUMP JUMPDEST PUSH2 0x5A5 SWAP2 SWAP1 PUSH2 0xBF8 JUMP JUMPDEST SWAP1 POP PUSH1 0x0 PUSH1 0x64 PUSH1 0x12 DUP14 DUP14 DUP8 DUP2 DUP2 LT PUSH2 0x5BF JUMPI PUSH2 0x5BF PUSH2 0xB67 JUMP JUMPDEST SWAP1 POP PUSH1 0x20 MUL ADD CALLDATALOAD PUSH2 0x5D0 SWAP2 SWAP1 PUSH2 0xBE1 JUMP JUMPDEST PUSH2 0x5DA SWAP2 SWAP1 PUSH2 0xBF8 JUMP JUMPDEST SWAP1 POP PUSH1 0x0 PUSH1 0x64 PUSH1 0x2 DUP15 DUP15 DUP9 DUP2 DUP2 LT PUSH2 0x5F4 JUMPI PUSH2 0x5F4 PUSH2 0xB67 JUMP JUMPDEST SWAP1 POP PUSH1 0x20 MUL ADD CALLDATALOAD PUSH2 0x605 SWAP2 SWAP1 PUSH2 0xBE1 JUMP JUMPDEST PUSH2 0x60F SWAP2 SWAP1 PUSH2 0xBF8 JUMP JUMPDEST SWAP1 POP PUSH2 0x61B DUP4 DUP12 PUSH2 0xBB5 JUMP JUMPDEST SWAP10 POP PUSH2 0x627 DUP3 DUP11 PUSH2 0xBB5 JUMP JUMPDEST SWAP9 POP PUSH2 0x633 DUP2 DUP10 PUSH2 0xBB5 JUMP JUMPDEST SWAP8 POP POP POP POP POP DUP1 DUP1 PUSH2 0x644 SWAP1 PUSH2 0xBC8 JUMP JUMPDEST SWAP2 POP POP PUSH2 0x372 JUMP JUMPDEST POP PUSH1 0x40 MLOAD DUP1 PUSH1 0xE0 ADD PUSH1 0x40 MSTORE DUP1 DUP12 DUP12 DUP1 DUP1 PUSH1 0x20 MUL PUSH1 0x20 ADD PUSH1 0x40 MLOAD SWAP1 DUP2 ADD PUSH1 0x40 MSTORE DUP1 SWAP4 SWAP3 SWAP2 SWAP1 DUP2 DUP2 MSTORE PUSH1 0x20 ADD DUP4 DUP4 PUSH1 0x20 MUL DUP1 DUP3 DUP5 CALLDATACOPY PUSH1 0x0 SWAP3 ADD SWAP2 SWAP1 SWAP2 MSTORE POP POP POP SWAP1 DUP3 MSTORE POP PUSH1 0x40 DUP1 MLOAD PUSH1 0x20 DUP12 DUP2 MUL DUP3 DUP2 ADD DUP3 ADD SWAP1 SWAP4 MSTORE DUP12 DUP3 MSTORE SWAP3 DUP4 ADD SWAP3 SWAP1 SWAP2 DUP13 SWAP2 DUP13 SWAP2 DUP3 SWAP2 DUP6 ADD SWAP1 DUP5 SWAP1 DUP1 DUP3 DUP5 CALLDATACOPY PUSH1 0x0 SWAP3 ADD SWAP2 SWAP1 SWAP2 MSTORE POP POP POP SWAP1 DUP3 MSTORE POP PUSH1 0x20 DUP2 ADD SWAP7 SWAP1 SWAP7 MSTORE PUSH1 0x40 DUP7 ADD SWAP5 SWAP1 SWAP5 MSTORE PUSH1 0x60 DUP6 ADD SWAP3 SWAP1 SWAP3 MSTORE PUSH1 0x80 DUP5 ADD MSTORE PUSH1 0xA0 SWAP1 SWAP3 ADD SWAP2 SWAP1 SWAP2 MSTORE SWAP6 SWAP5 POP POP POP POP POP JUMP JUMPDEST PUSH4 0x11E1A300 DUP2 LT JUMPDEST SWAP3 SWAP2 POP POP JUMP JUMPDEST PUSH1 0x0 DUP1 PUSH32 0x0 SWAP1 POP PUSH1 0x0 DUP2 PUSH1 0x1 PUSH1 0x1 PUSH1 0xA0 SHL SUB AND PUSH4 0xFEAF968C PUSH1 0x40 MLOAD DUP2 PUSH4 0xFFFFFFFF AND PUSH1 0xE0 SHL DUP2 MSTORE PUSH1 0x4 ADD PUSH1 0xA0 PUSH1 0x40 MLOAD DUP1 DUP4 SUB DUP2 DUP7 GAS STATICCALL ISZERO DUP1 ISZERO PUSH2 0x769 JUMPI RETURNDATASIZE PUSH1 0x0 DUP1 RETURNDATACOPY RETURNDATASIZE PUSH1 0x0 REVERT JUMPDEST POP POP POP POP PUSH1 0x40 MLOAD RETURNDATASIZE PUSH1 0x1F NOT PUSH1 0x1F DUP3 ADD AND DUP3 ADD DUP1 PUSH1 0x40 MSTORE POP DUP2 ADD SWAP1 PUSH2 0x78D SWAP2 SWAP1 PUSH2 0xC34 JUMP JUMPDEST POP SWAP2 SWAP7 SWAP6 POP POP POP POP POP POP JUMP JUMPDEST PUSH2 0x7D4 PUSH1 0x40 MLOAD DUP1 PUSH1 0xC0 ADD PUSH1 0x40 MSTORE DUP1 PUSH1 0x0 DUP2 MSTORE PUSH1 0x20 ADD PUSH1 0x0 DUP2 MSTORE PUSH1 0x20 ADD PUSH1 0x0 DUP2 MSTORE PUSH1 0x20 ADD PUSH1 0x0 DUP2 MSTORE PUSH1 0x20 ADD PUSH1 0x0 DUP2 MSTORE PUSH1 0x20 ADD PUSH1 0x0 ISZERO ISZERO DUP2 MSTORE POP SWAP1 JUMP JUMPDEST PUSH1 0x1 PUSH1 0x1 PUSH1 0xA0 SHL SUB DUP4 AND PUSH2 0x822 JUMPI PUSH1 0x40 MLOAD PUSH3 0x461BCD PUSH1 0xE5 SHL DUP2 MSTORE PUSH1 0x20 PUSH1 0x4 DUP3 ADD MSTORE PUSH1 0x15 PUSH1 0x24 DUP3 ADD MSTORE PUSH21 0x496E76616C696420746F6B656E2061646472657373 PUSH1 0x58 SHL PUSH1 0x44 DUP3 ADD MSTORE PUSH1 0x64 ADD PUSH2 0x323 JUMP JUMPDEST PUSH1 0x0 DUP3 GT PUSH2 0x872 JUMPI PUSH1 0x40 MLOAD PUSH3 0x461BCD PUSH1 0xE5 SHL DUP2 MSTORE PUSH1 0x20 PUSH1 0x4 DUP3 ADD MSTORE PUSH1 0x1D PUSH1 0x24 DUP3 ADD MSTORE PUSH32 0x416D6F756E74206D7573742062652067726561746572207468616E2030000000 PUSH1 0x44 DUP3 ADD MSTORE PUSH1 0x64 ADD PUSH2 0x323 JUMP JUMPDEST PUSH32 0x0 PUSH1 0x1 PUSH1 0x1 PUSH1 0xA0 SHL SUB AND DUP4 PUSH1 0x1 PUSH1 0x1 PUSH1 0xA0 SHL SUB AND SUB PUSH2 0x8F3 JUMPI PUSH1 0x40 MLOAD PUSH3 0x461BCD PUSH1 0xE5 SHL DUP2 MSTORE PUSH1 0x20 PUSH1 0x4 DUP3 ADD MSTORE PUSH1 0x1C PUSH1 0x24 DUP3 ADD MSTORE PUSH32 0x43616E6E6F7420737761702048494748455220746F2048494748455200000000 PUSH1 0x44 DUP3 ADD MSTORE PUSH1 0x64 ADD PUSH2 0x323 JUMP JUMPDEST DUP2 PUSH4 0x11E1A300 DUP2 LT PUSH1 0x0 PUSH1 0x64 PUSH2 0x90A PUSH1 0x50 DUP6 PUSH2 0xBE1 JUMP JUMPDEST PUSH2 0x914 SWAP2 SWAP1 PUSH2 0xBF8 JUMP JUMPDEST SWAP1 POP PUSH1 0x0 PUSH1 0x64 PUSH2 0x925 PUSH1 0x12 DUP9 PUSH2 0xBE1 JUMP JUMPDEST PUSH2 0x92F SWAP2 SWAP1 PUSH2 0xBF8 JUMP JUMPDEST SWAP1 POP PUSH1 0x0 PUSH1 0x64 PUSH2 0x940 PUSH1 0x2 DUP10 PUSH2 0xBE1 JUMP JUMPDEST PUSH2 0x94A SWAP2 SWAP1 PUSH2 0xBF8 JUMP JUMPDEST PUSH1 0x40 DUP1 MLOAD PUSH1 0xC0 DUP2 ADD DUP3 MSTORE SWAP9 DUP10 MSTORE PUSH1 0x20 DUP10 ADD SWAP5 SWAP1 SWAP5 MSTORE SWAP3 DUP8 ADD SWAP2 SWAP1 SWAP2 MSTORE POP PUSH1 0x60 DUP6 ADD MSTORE PUSH1 0x80 DUP5 ADD SWAP2 SWAP1 SWAP2 MSTORE ISZERO ISZERO PUSH1 0xA0 DUP4 ADD MSTORE POP SWAP2 SWAP1 POP JUMP JUMPDEST PUSH1 0x0 DUP1 DUP4 PUSH1 0x1F DUP5 ADD SLT PUSH2 0x993 JUMPI PUSH1 0x0 DUP1 REVERT JUMPDEST POP DUP2 CALLDATALOAD PUSH8 0xFFFFFFFFFFFFFFFF DUP2 GT ISZERO PUSH2 0x9AB JUMPI PUSH1 0x0 DUP1 REVERT JUMPDEST PUSH1 0x20 DUP4 ADD SWAP2 POP DUP4 PUSH1 0x20 DUP3 PUSH1 0x5 SHL DUP6 ADD ADD GT ISZERO PUSH2 0x9C6 JUMPI PUSH1 0x0 DUP1 REVERT JUMPDEST SWAP3 POP SWAP3 SWAP1 POP JUMP JUMPDEST PUSH1 0x0 DUP1 PUSH1 0x0 DUP1 PUSH1 0x40 DUP6 DUP8 SUB SLT ISZERO PUSH2 0x9E3 JUMPI PUSH1 0x0 DUP1 REVERT JUMPDEST DUP5 CALLDATALOAD PUSH8 0xFFFFFFFFFFFFFFFF DUP1 DUP3 GT ISZERO PUSH2 0x9FB JUMPI PUSH1 0x0 DUP1 REVERT JUMPDEST PUSH2 0xA07 DUP9 DUP4 DUP10 ADD PUSH2 0x981 JUMP JUMPDEST SWAP1 SWAP7 POP SWAP5 POP PUSH1 0x20 DUP8 ADD CALLDATALOAD SWAP2 POP DUP1 DUP3 GT ISZERO PUSH2 0xA20 JUMPI PUSH1 0x0 DUP1 REVERT JUMPDEST POP PUSH2 0xA2D DUP8 DUP3 DUP9 ADD PUSH2 0x981 JUMP JUMPDEST SWAP6 SWAP9 SWAP5 SWAP8 POP SWAP6 POP POP POP POP JUMP JUMPDEST PUSH1 0x0 DUP2 MLOAD DUP1 DUP5 MSTORE PUSH1 0x20 DUP1 DUP6 ADD SWAP5 POP DUP1 DUP5 ADD PUSH1 0x0 JUMPDEST DUP4 DUP2 LT ISZERO PUSH2 0xA69 JUMPI DUP2 MLOAD DUP8 MSTORE SWAP6 DUP3 ADD SWAP6 SWAP1 DUP3 ADD SWAP1 PUSH1 0x1 ADD PUSH2 0xA4D JUMP JUMPDEST POP SWAP5 SWAP6 SWAP5 POP POP POP POP POP JUMP JUMPDEST PUSH1 0x20 DUP1 DUP3 MSTORE DUP3 MLOAD PUSH1 0xE0 DUP4 DUP4 ADD MSTORE DUP1 MLOAD PUSH2 0x100 DUP5 ADD DUP2 SWAP1 MSTORE PUSH1 0x0 SWAP3 SWAP2 DUP3 ADD SWAP1 DUP4 SWAP1 PUSH2 0x120 DUP7 ADD SWAP1 JUMPDEST DUP1 DUP4 LT ISZERO PUSH2 0xAC4 JUMPI DUP4 MLOAD PUSH1 0x1 PUSH1 0x1 PUSH1 0xA0 SHL SUB AND DUP3 MSTORE SWAP3 DUP5 ADD SWAP3 PUSH1 0x1 SWAP3 SWAP1 SWAP3 ADD SWAP2 SWAP1 DUP5 ADD SWAP1 PUSH2 0xA9B JUMP JUMPDEST POP SWAP3 DUP7 ADD MLOAD DUP6 DUP5 SUB PUSH1 0x1F NOT ADD PUSH1 0x40 DUP8 ADD MSTORE SWAP3 PUSH2 0xAE0 DUP2 DUP6 PUSH2 0xA39 JUMP JUMPDEST SWAP4 POP POP POP POP PUSH1 0x40 DUP5 ADD MLOAD PUSH1 0x60 DUP5 ADD MSTORE PUSH1 0x60 DUP5 ADD MLOAD PUSH1 0x80 DUP5 ADD MSTORE PUSH1 0x80 DUP5 ADD MLOAD PUSH1 0xA0 DUP5 ADD MSTORE PUSH1 0xA0 DUP5 ADD MLOAD PUSH1 0xC0 DUP5 ADD MSTORE PUSH1 0xC0 DUP5 ADD MLOAD PUSH1 0xE0 DUP5 ADD MSTORE DUP1 SWAP2 POP POP SWAP3 SWAP2 POP POP JUMP JUMPDEST DUP1 CALLDATALOAD PUSH1 0x1 PUSH1 0x1 PUSH1 0xA0 SHL SUB DUP2 AND DUP2 EQ PUSH2 0xB38 JUMPI PUSH1 0x0 DUP1 REVERT JUMPDEST SWAP2 SWAP1 POP JUMP JUMPDEST PUSH1 0x0 DUP1 PUSH1 0x40 DUP4 DUP6 SUB SLT ISZERO PUSH2 0xB50 JUMPI PUSH1 0x0 DUP1 REVERT JUMPDEST PUSH2 0xB59 DUP4 PUSH2 0xB21 JUMP JUMPDEST SWAP5 PUSH1 0x20 SWAP4 SWAP1 SWAP4 ADD CALLDATALOAD SWAP4 POP POP POP JUMP JUMPDEST PUSH4 0x4E487B71 PUSH1 0xE0 SHL PUSH1 0x0 MSTORE PUSH1 0x32 PUSH1 0x4 MSTORE PUSH1 0x24 PUSH1 0x0 REVERT JUMPDEST PUSH1 0x0 PUSH1 0x20 DUP3 DUP5 SUB SLT ISZERO PUSH2 0xB8F JUMPI PUSH1 0x0 DUP1 REVERT JUMPDEST PUSH2 0xB98 DUP3 PUSH2 0xB21 JUMP JUMPDEST SWAP4 SWAP3 POP POP POP JUMP JUMPDEST PUSH4 0x4E487B71 PUSH1 0xE0 SHL PUSH1 0x0 MSTORE PUSH1 0x11 PUSH1 0x4 MSTORE PUSH1 0x24 PUSH1 0x0 REVERT JUMPDEST DUP1 DUP3 ADD DUP1 DUP3 GT ISZERO PUSH2 0x6FD JUMPI PUSH2 0x6FD PUSH2 0xB9F JUMP JUMPDEST PUSH1 0x0 PUSH1 0x1 DUP3 ADD PUSH2 0xBDA JUMPI PUSH2 0xBDA PUSH2 0xB9F JUMP JUMPDEST POP PUSH1 0x1 ADD SWAP1 JUMP JUMPDEST DUP1 DUP3 MUL DUP2 ISZERO DUP3 DUP3 DIV DUP5 EQ OR PUSH2 0x6FD JUMPI PUSH2 0x6FD PUSH2 0xB9F JUMP JUMPDEST PUSH1 0x0 DUP3 PUSH2 0xC15 JUMPI PUSH4 0x4E487B71 PUSH1 0xE0 SHL PUSH1 0x0 MSTORE PUSH1 0x12 PUSH1 0x4 MSTORE PUSH1 0x24 PUSH1 0x0 REVERT JUMPDEST POP DIV SWAP1 JUMP JUMPDEST DUP1 MLOAD PUSH10 0xFFFFFFFFFFFFFFFFFFFF DUP2 AND DUP2 EQ PUSH2 0xB38 JUMPI PUSH1 0x0 DUP1 REVERT JUMPDEST PUSH1 0x0 DUP1 PUSH1 0x0 DUP1 PUSH1 0x0 PUSH1 0xA0 DUP7 DUP9 SUB SLT ISZERO PUSH2 0xC4C JUMPI PUSH1 0x0 DUP1 REVERT JUMPDEST PUSH2 0xC55 DUP7 PUSH2 0xC1A JUMP JUMPDEST SWAP5 POP PUSH1 0x20 DUP7 ADD MLOAD SWAP4 POP PUSH1 0x40 DUP7 ADD MLOAD SWAP3 POP PUSH1 0x60 DUP7 ADD MLOAD SWAP2 POP PUSH2 0xC78 PUSH1 0x80 DUP8 ADD PUSH2 0xC1A JUMP JUMPDEST SWAP1 POP SWAP3 SWAP6 POP SWAP3 SWAP6 SWAP1 SWAP4 POP JUMP INVALID LOG2 PUSH5 0x6970667358 0x22 SLT KECCAK256 SWAP1 SWAP7 SWAP4 MSTORE8 0xBC 0xEF 0x4D 0xB2 0x2F PUSH13 0xFCD0F94BFAF181C00240A97CD0 DUP12 0xC7 0xC8 0xB0 0x23 DUP16 SSTORE DUP13 CREATE PUSH5 0x736F6C6343 STOP ADDMOD SGT STOP CALLER "},"methodIdentifiers":{"BASE_CHAIN_ID()":"efc21e3f","BASE_GOERLI_CHAIN_ID()":"f34a2cf6","DEV_WALLET()":"2d04f820","DUST_THRESHOLD_USD()":"12d1d037","ETH_USD_PRICE_FEED()":"b0f0abe9","FEE_DENOMINATOR()":"d73792a9","HIGHER()":"ee7cf415","PLATFORM_FEE()":"34fbc9a1","POL_SHARE()":"44df4be6","USER_SHARE()":"a10eaa89","WETH()":"ad5c4648","getBulkSwapQuote(address[],uint256[])":"77a59bb5","getETHPrice()":"a607a8d9","getSwapQuote(address,uint256)":"b492fc69","isDustToken(address,uint256)":"7e99e228"}}}}}