{"contracts/SplitRouterQuoter.sol":{"SplitRouterQuoter":{"abi":[{"inputs":[{"internalType":"address","name":"_higher","type":"address"},{"internalType":"address","name":"_weth","type":"address"},{"internalType":"address","name":"_ethUsdPriceFeed","type":"address"}],"stateMutability":"nonpayable","type":"constructor"},{"inputs":[],"name":"BASE_CHAIN_ID","outputs":[{"internalType":"uint256","name":"","type":"uint256"}],"stateMutability":"view","type":"function"},{"inputs":[],"name":"BASE_GOERLI_CHAIN_ID","outputs":[{"internalType":"uint256","name":"","type":"uint256"}],"stateMutability":"view","type":"function"},{"inputs":[],"name":"BASE_SEPOLIA_CHAIN_ID","outputs":[{"internalType":"uint256","name":"","type":"uint256"}],"stateMutability":"view","type":"function"},{"inputs":[],"name":"DEV_WALLET","outputs":[{"internalType":"address","name":"","type":"address"}],"stateMutability":"view","type":"function"},{"inputs":[],"name":"DUST_THRESHOLD_USD","outputs":[{"internalType":"uint256","name":"","type":"uint256"}],"stateMutability":"view","type":"function"},{"inputs":[],"name":"ETH_USD_PRICE_FEED","outputs":[{"internalType":"address","name":"","type":"address"}],"stateMutability":"view","type":"function"},{"inputs":[],"name":"FEE_DENOMINATOR","outputs":[{"internalType":"uint256","name":"","type":"uint256"}],"stateMutability":"view","type":"function"},{"inputs":[],"name":"HIGHER","outputs":[{"internalType":"address","name":"","type":"address"}],"stateMutability":"view","type":"function"},{"inputs":[],"name":"PLATFORM_FEE","outputs":[{"internalType":"uint256","name":"","type":"uint256"}],"stateMutability":"view","type":"function"},{"inputs":[],"name":"POL_SHARE","outputs":[{"internalType":"uint256","name":"","type":"uint256"}],"stateMutability":"view","type":"function"},{"inputs":[],"name":"USER_SHARE","outputs":[{"internalType":"uint256","name":"","type":"uint256"}],"stateMutability":"view","type":"function"},{"inputs":[],"name":"WETH","outputs":[{"internalType":"address","name":"","type":"address"}],"stateMutability":"view","type":"function"},{"inputs":[{"internalType":"address[]","name":"tokens","type":"address[]"},{"internalType":"uint256[]","name":"amounts","type":"uint256[]"}],"name":"getBulkSwapQuote","outputs":[{"components":[{"internalType":"address[]","name":"tokens","type":"address[]"},{"internalType":"uint256[]","name":"amounts","type":"uint256[]"},{"internalType":"uint256","name":"totalUserShare","type":"uint256"},{"internalType":"uint256","name":"totalPolShare","type":"uint256"},{"internalType":"uint256","name":"totalPlatformFee","type":"uint256"},{"internalType":"uint256","name":"totalValueUSD","type":"uint256"},{"internalType":"uint256","name":"dustTokensCount","type":"uint256"}],"internalType":"struct SplitRouterQuoter.DustQuote","name":"","type":"tuple"}],"stateMutability":"view","type":"function"},{"inputs":[],"name":"getETHPrice","outputs":[{"internalType":"uint256","name":"","type":"uint256"}],"stateMutability":"view","type":"function"},{"inputs":[{"internalType":"address","name":"tokenIn","type":"address"},{"internalType":"uint256","name":"amountIn","type":"uint256"}],"name":"getSwapQuote","outputs":[{"components":[{"internalType":"uint256","name":"amountIn","type":"uint256"},{"internalType":"uint256","name":"userShare","type":"uint256"},{"internalType":"uint256","name":"polShare","type":"uint256"},{"internalType":"uint256","name":"platformFee","type":"uint256"},{"internalType":"uint256","name":"totalValueUSD","type":"uint256"},{"internalType":"bool","name":"isDust","type":"bool"}],"internalType":"struct SplitRouterQuoter.SwapQuote","name":"","type":"tuple"}],"stateMutability":"view","type":"function"},{"inputs":[{"internalType":"address","name":"token","type":"address"},{"internalType":"uint256","name":"amount","type":"uint256"}],"name":"isDustToken","outputs":[{"internalType":"bool","name":"","type":"bool"}],"stateMutability":"view","type":"function"}],"evm":{"bytecode":{"linkReferences":{},"object":"60e060405234801561001057600080fd5b50604051610e43380380610e4383398101604081905261002f916100ed565b612105461480610041575062014a3446145b8061004e575062014a3346145b6100b45760405162461bcd60e51b815260206004820152602d60248201527f53706c6974526f7574657251756f7465723a204f6e6c7920776f726b73206f6e60448201526c2042617365206e6574776f726b60981b606482015260840160405180910390fd5b6001600160a01b0392831660805290821660a0521660c052610130565b80516001600160a01b03811681146100e857600080fd5b919050565b60008060006060848603121561010257600080fd5b61010b846100d1565b9250610119602085016100d1565b9150610127604085016100d1565b90509250925092565b60805160a05160c051610ccf610174600039600081816101e5015261071d015260006101be0152600081816102750152818161047001526108890152610ccf6000f3fe608060405234801561001057600080fd5b50600436106101005760003560e01c8063ad5c464811610097578063ee7cf41511610066578063ee7cf41514610270578063efc21e3f14610297578063f1b09fc1146102a0578063f34a2cf6146102aa57600080fd5b8063ad5c4648146101b9578063b0f0abe9146101e0578063b492fc6914610207578063d73792a91461026857600080fd5b806377a59bb5116100d357806377a59bb5146101665780637e99e22814610186578063a10eaa89146101a9578063a607a8d9146101b157600080fd5b806312d1d037146101055780632d04f8201461012357806334fbc9a11461015657806344df4be61461015e575b600080fd5b6101106311e1a30081565b6040519081526020015b60405180910390f35b61013e731831510811ddd00e6180c345f00f12c4536abaa381565b6040516001600160a01b03909116815260200161011a565b610110600281565b610110601281565b6101796101743660046109e2565b6102b4565b60405161011a9190610a89565b610199610194366004610b52565b61070a565b604051901515815260200161011a565b610110605081565b610110610718565b61013e7f000000000000000000000000000000000000000000000000000000000000000081565b61013e7f000000000000000000000000000000000000000000000000000000000000000081565b61021a610215366004610b52565b6107ae565b60405161011a9190600060c082019050825182526020830151602083015260408301516040830152606083015160608301526080830151608083015260a0830151151560a083015292915050565b610110606481565b61013e7f000000000000000000000000000000000000000000000000000000000000000081565b61011061210581565b61011062014a3481565b61011062014a3381565b6102f46040518060e00160405280606081526020016060815260200160008152602001600081526020016000815260200160008152602001600081525090565b8382146103415760405162461bcd60e51b8152602060048201526016602482015275082e4e4c2f2e640d8cadccee8d040dad2e6dac2e8c6d60531b60448201526064015b60405180910390fd5b8361037d5760405162461bcd60e51b815260206004820152600c60248201526b456d7074792061727261797360a01b6044820152606401610338565b6000806000806000805b898110156106615760008b8b838181106103a3576103a3610b7c565b90506020020160208101906103b89190610b92565b6001600160a01b0316036104065760405162461bcd60e51b8152602060048201526015602482015274496e76616c696420746f6b656e206164647265737360581b6044820152606401610338565b600089898381811061041a5761041a610b7c565b905060200201351161046e5760405162461bcd60e51b815260206004820152601d60248201527f416d6f756e74206d7573742062652067726561746572207468616e20300000006044820152606401610338565b7f00000000000000000000000000000000000000000000000000000000000000006001600160a01b03168b8b838181106104aa576104aa610b7c565b90506020020160208101906104bf9190610b92565b6001600160a01b0316036105155760405162461bcd60e51b815260206004820152601c60248201527f43616e6e6f7420737761702048494748455220746f20484947484552000000006044820152606401610338565b600061055f8c8c8481811061052c5761052c610b7c565b90506020020160208101906105419190610b92565b8b8b8581811061055357610553610b7c565b90506020020135919050565b905061056b8185610bca565b93506311e1a300811015610587578261058381610bdd565b9350505b6000606460508c8c8681811061059f5761059f610b7c565b905060200201356105b09190610bf6565b6105ba9190610c0d565b90506000606460128d8d878181106105d4576105d4610b7c565b905060200201356105e59190610bf6565b6105ef9190610c0d565b90506000606460028e8e8881811061060957610609610b7c565b9050602002013561061a9190610bf6565b6106249190610c0d565b9050610630838b610bca565b995061063c828a610bca565b98506106488189610bca565b975050505050808061065990610bdd565b915050610387565b506040518060e001604052808b8b808060200260200160405190810160405280939291908181526020018383602002808284376000920191909152505050908252506040805160208b810282810182019093528b82529283019290918c918c918291850190849080828437600092019190915250505090825250602081019690965260408601949094526060850192909252608084015260a09092019190915295945050505050565b6311e1a30081105b92915050565b6000807f000000000000000000000000000000000000000000000000000000000000000090506000816001600160a01b031663feaf968c6040518163ffffffff1660e01b815260040160a060405180830381865afa15801561077e573d6000803e3d6000fd5b505050506040513d601f19601f820116820180604052508101906107a29190610c49565b50919695505050505050565b6107e96040518060c0016040528060008152602001600081526020016000815260200160008152602001600081526020016000151581525090565b6001600160a01b0383166108375760405162461bcd60e51b8152602060048201526015602482015274496e76616c696420746f6b656e206164647265737360581b6044820152606401610338565b600082116108875760405162461bcd60e51b815260206004820152601d60248201527f416d6f756e74206d7573742062652067726561746572207468616e20300000006044820152606401610338565b7f00000000000000000000000000000000000000000000000000000000000000006001600160a01b0316836001600160a01b0316036109085760405162461bcd60e51b815260206004820152601c60248201527f43616e6e6f7420737761702048494748455220746f20484947484552000000006044820152606401610338565b816311e1a30081106000606461091f605085610bf6565b6109299190610c0d565b90506000606461093a601288610bf6565b6109449190610c0d565b905060006064610955600289610bf6565b61095f9190610c0d565b6040805160c0810182529889526020890194909452928701919091525060608501526080840191909152151560a083015250919050565b60008083601f8401126109a857600080fd5b50813567ffffffffffffffff8111156109c057600080fd5b6020830191508360208260051b85010111156109db57600080fd5b9250929050565b600080600080604085870312156109f857600080fd5b843567ffffffffffffffff80821115610a1057600080fd5b610a1c88838901610996565b90965094506020870135915080821115610a3557600080fd5b50610a4287828801610996565b95989497509550505050565b600081518084526020808501945080840160005b83811015610a7e57815187529582019590820190600101610a62565b509495945050505050565b6020808252825160e083830152805161010084018190526000929182019083906101208601905b80831015610ad95783516001600160a01b03168252928401926001929092019190840190610ab0565b5092860151858403601f1901604087015292610af58185610a4e565b93505050506040840151606084015260608401516080840152608084015160a084015260a084015160c084015260c084015160e08401528091505092915050565b80356001600160a01b0381168114610b4d57600080fd5b919050565b60008060408385031215610b6557600080fd5b610b6e83610b36565b946020939093013593505050565b634e487b7160e01b600052603260045260246000fd5b600060208284031215610ba457600080fd5b610bad82610b36565b9392505050565b634e487b7160e01b600052601160045260246000fd5b8082018082111561071257610712610bb4565b600060018201610bef57610bef610bb4565b5060010190565b808202811582820484141761071257610712610bb4565b600082610c2a57634e487b7160e01b600052601260045260246000fd5b500490565b805169ffffffffffffffffffff81168114610b4d57600080fd5b600080600080600060a08688031215610c6157600080fd5b610c6a86610c2f565b9450602086015193506040860151925060608601519150610c8d60808701610c2f565b9050929550929590935056fea2646970667358221220d00ff5ec3b329e8fc68d237913c855e76c89da993440adfe6968b6f060dda6a364736f6c63430008130033","opcodes":"PUSH1 0xE0 PUSH1 0x40 MSTORE CALLVALUE DUP1 ISZERO PUSH2 0x10 JUMPI PUSH1 0x0 DUP1 REVERT JUMPDEST POP PUSH1 0x40 MLOAD PUSH2 0xE43 CODESIZE SUB DUP1 PUSH2 0xE43 DUP4 CODECOPY DUP2 ADD PUSH1 0x40 DUP2 SWAP1 MSTORE PUSH2 0x2F SWAP2 PUSH2 0xED JUMP JUMPDEST PUSH2 0x2105 CHAINID EQ DUP1 PUSH2 0x41 JUMPI POP PUSH3 0x14A34 CHAINID EQ JUMPDEST DUP1 PUSH2 0x4E JUMPI POP PUSH3 0x14A33 CHAINID EQ JUMPDEST PUSH2 0xB4 JUMPI PUSH1 0x40 MLOAD PUSH3 0x461BCD PUSH1 0xE5 SHL DUP2 MSTORE PUSH1 0x20 PUSH1 0x4 DUP3 ADD MSTORE PUSH1 0x2D PUSH1 0x24 DUP3 ADD MSTORE PUSH32 0x53706C6974526F7574657251756F7465723A204F6E6C7920776F726B73206F6E PUSH1 0x44 DUP3 ADD MSTORE PUSH13 0x2042617365206E6574776F726B PUSH1 0x98 SHL PUSH1 0x64 DUP3 ADD MSTORE PUSH1 0x84 ADD PUSH1 0x40 MLOAD DUP1 SWAP2 SUB SWAP1 REVERT JUMPDEST PUSH1 0x1 PUSH1 0x1 PUSH1 0xA0 SHL SUB SWAP3 DUP4 AND PUSH1 0x80 MSTORE SWAP1 DUP3 AND PUSH1 0xA0 MSTORE AND PUSH1 0xC0 MSTORE PUSH2 0x130 JUMP JUMPDEST DUP1 MLOAD PUSH1 0x1 PUSH1 0x1 PUSH1 0xA0 SHL SUB DUP2 AND DUP2 EQ PUSH2 0xE8 JUMPI PUSH1 0x0 DUP1 REVERT JUMPDEST SWAP2 SWAP1 POP JUMP JUMPDEST PUSH1 0x0 DUP1 PUSH1 0x0 PUSH1 0x60 DUP5 DUP7 SUB SLT ISZERO PUSH2 0x102 JUMPI PUSH1 0x0 DUP1 REVERT JUMPDEST PUSH2 0x10B DUP5 PUSH2 0xD1 JUMP JUMPDEST SWAP3 POP PUSH2 0x119 PUSH1 0x20 DUP6 ADD PUSH2 0xD1 JUMP JUMPDEST SWAP2 POP PUSH2 0x127 PUSH1 0x40 DUP6 ADD PUSH2 0xD1 JUMP JUMPDEST SWAP1 POP SWAP3 POP SWAP3 POP SWAP3 JUMP JUMPDEST PUSH1 0x80 MLOAD PUSH1 0xA0 MLOAD PUSH1 0xC0 MLOAD PUSH2 0xCCF PUSH2 0x174 PUSH1 0x0 CODECOPY PUSH1 0x0 DUP2 DUP2 PUSH2 0x1E5 ADD MSTORE PUSH2 0x71D ADD MSTORE PUSH1 0x0 PUSH2 0x1BE ADD MSTORE PUSH1 0x0 DUP2 DUP2 PUSH2 0x275 ADD MSTORE DUP2 DUP2 PUSH2 0x470 ADD MSTORE PUSH2 0x889 ADD MSTORE PUSH2 0xCCF PUSH1 0x0 RETURN INVALID PUSH1 0x80 PUSH1 0x40 MSTORE CALLVALUE DUP1 ISZERO PUSH2 0x10 JUMPI PUSH1 0x0 DUP1 REVERT JUMPDEST POP PUSH1 0x4 CALLDATASIZE LT PUSH2 0x100 JUMPI PUSH1 0x0 CALLDATALOAD PUSH1 0xE0 SHR DUP1 PUSH4 0xAD5C4648 GT PUSH2 0x97 JUMPI DUP1 PUSH4 0xEE7CF415 GT PUSH2 0x66 JUMPI DUP1 PUSH4 0xEE7CF415 EQ PUSH2 0x270 JUMPI DUP1 PUSH4 0xEFC21E3F EQ PUSH2 0x297 JUMPI DUP1 PUSH4 0xF1B09FC1 EQ PUSH2 0x2A0 JUMPI DUP1 PUSH4 0xF34A2CF6 EQ PUSH2 0x2AA JUMPI PUSH1 0x0 DUP1 REVERT JUMPDEST DUP1 PUSH4 0xAD5C4648 EQ PUSH2 0x1B9 JUMPI DUP1 PUSH4 0xB0F0ABE9 EQ PUSH2 0x1E0 JUMPI DUP1 PUSH4 0xB492FC69 EQ PUSH2 0x207 JUMPI DUP1 PUSH4 0xD73792A9 EQ PUSH2 0x268 JUMPI PUSH1 0x0 DUP1 REVERT JUMPDEST DUP1 PUSH4 0x77A59BB5 GT PUSH2 0xD3 JUMPI DUP1 PUSH4 0x77A59BB5 EQ PUSH2 0x166 JUMPI DUP1 PUSH4 0x7E99E228 EQ PUSH2 0x186 JUMPI DUP1 PUSH4 0xA10EAA89 EQ PUSH2 0x1A9 JUMPI DUP1 PUSH4 0xA607A8D9 EQ PUSH2 0x1B1 JUMPI PUSH1 0x0 DUP1 REVERT JUMPDEST DUP1 PUSH4 0x12D1D037 EQ PUSH2 0x105 JUMPI DUP1 PUSH4 0x2D04F820 EQ PUSH2 0x123 JUMPI DUP1 PUSH4 0x34FBC9A1 EQ PUSH2 0x156 JUMPI DUP1 PUSH4 0x44DF4BE6 EQ PUSH2 0x15E JUMPI JUMPDEST PUSH1 0x0 DUP1 REVERT JUMPDEST PUSH2 0x110 PUSH4 0x11E1A300 DUP2 JUMP JUMPDEST PUSH1 0x40 MLOAD SWAP1 DUP2 MSTORE PUSH1 0x20 ADD JUMPDEST PUSH1 0x40 MLOAD DUP1 SWAP2 SUB SWAP1 RETURN JUMPDEST PUSH2 0x13E PUSH20 0x1831510811DDD00E6180C345F00F12C4536ABAA3 DUP2 JUMP JUMPDEST PUSH1 0x40 MLOAD PUSH1 0x1 PUSH1 0x1 PUSH1 0xA0 SHL SUB SWAP1 SWAP2 AND DUP2 MSTORE PUSH1 0x20 ADD PUSH2 0x11A JUMP JUMPDEST PUSH2 0x110 PUSH1 0x2 DUP2 JUMP JUMPDEST PUSH2 0x110 PUSH1 0x12 DUP2 JUMP JUMPDEST PUSH2 0x179 PUSH2 0x174 CALLDATASIZE PUSH1 0x4 PUSH2 0x9E2 JUMP JUMPDEST PUSH2 0x2B4 JUMP JUMPDEST PUSH1 0x40 MLOAD PUSH2 0x11A SWAP2 SWAP1 PUSH2 0xA89 JUMP JUMPDEST PUSH2 0x199 PUSH2 0x194 CALLDATASIZE PUSH1 0x4 PUSH2 0xB52 JUMP JUMPDEST PUSH2 0x70A JUMP JUMPDEST PUSH1 0x40 MLOAD SWAP1 ISZERO ISZERO DUP2 MSTORE PUSH1 0x20 ADD PUSH2 0x11A JUMP JUMPDEST PUSH2 0x110 PUSH1 0x50 DUP2 JUMP JUMPDEST PUSH2 0x110 PUSH2 0x718 JUMP JUMPDEST PUSH2 0x13E PUSH32 0x0 DUP2 JUMP JUMPDEST PUSH2 0x13E PUSH32 0x0 DUP2 JUMP JUMPDEST PUSH2 0x21A PUSH2 0x215 CALLDATASIZE PUSH1 0x4 PUSH2 0xB52 JUMP JUMPDEST PUSH2 0x7AE JUMP JUMPDEST PUSH1 0x40 MLOAD PUSH2 0x11A SWAP2 SWAP1 PUSH1 0x0 PUSH1 0xC0 DUP3 ADD SWAP1 POP DUP3 MLOAD DUP3 MSTORE PUSH1 0x20 DUP4 ADD MLOAD PUSH1 0x20 DUP4 ADD MSTORE PUSH1 0x40 DUP4 ADD MLOAD PUSH1 0x40 DUP4 ADD MSTORE PUSH1 0x60 DUP4 ADD MLOAD PUSH1 0x60 DUP4 ADD MSTORE PUSH1 0x80 DUP4 ADD MLOAD PUSH1 0x80 DUP4 ADD MSTORE PUSH1 0xA0 DUP4 ADD MLOAD ISZERO ISZERO PUSH1 0xA0 DUP4 ADD MSTORE SWAP3 SWAP2 POP POP JUMP JUMPDEST PUSH2 0x110 PUSH1 0x64 DUP2 JUMP JUMPDEST PUSH2 0x13E PUSH32 0x0 DUP2 JUMP JUMPDEST PUSH2 0x110 PUSH2 0x2105 DUP2 JUMP JUMPDEST PUSH2 0x110 PUSH3 0x14A34 DUP2 JUMP JUMPDEST PUSH2 0x110 PUSH3 0x14A33 DUP2 JUMP JUMPDEST PUSH2 0x2F4 PUSH1 0x40 MLOAD DUP1 PUSH1 0xE0 ADD PUSH1 0x40 MSTORE DUP1 PUSH1 0x60 DUP2 MSTORE PUSH1 0x20 ADD PUSH1 0x60 DUP2 MSTORE PUSH1 0x20 ADD PUSH1 0x0 DUP2 MSTORE PUSH1 0x20 ADD PUSH1 0x0 DUP2 MSTORE PUSH1 0x20 ADD PUSH1 0x0 DUP2 MSTORE PUSH1 0x20 ADD PUSH1 0x0 DUP2 MSTORE PUSH1 0x20 ADD PUSH1 0x0 DUP2 MSTORE POP SWAP1 JUMP JUMPDEST DUP4 DUP3 EQ PUSH2 0x341 JUMPI PUSH1 0x40 MLOAD PUSH3 0x461BCD PUSH1 0xE5 SHL DUP2 MSTORE PUSH1 0x20 PUSH1 0x4 DUP3 ADD MSTORE PUSH1 0x16 PUSH1 0x24 DUP3 ADD MSTORE PUSH22 0x82E4E4C2F2E640D8CADCCEE8D040DAD2E6DAC2E8C6D PUSH1 0x53 SHL PUSH1 0x44 DUP3 ADD MSTORE PUSH1 0x64 ADD JUMPDEST PUSH1 0x40 MLOAD DUP1 SWAP2 SUB SWAP1 REVERT JUMPDEST DUP4 PUSH2 0x37D JUMPI PUSH1 0x40 MLOAD PUSH3 0x461BCD PUSH1 0xE5 SHL DUP2 MSTORE PUSH1 0x20 PUSH1 0x4 DUP3 ADD MSTORE PUSH1 0xC PUSH1 0x24 DUP3 ADD MSTORE PUSH12 0x456D70747920617272617973 PUSH1 0xA0 SHL PUSH1 0x44 DUP3 ADD MSTORE PUSH1 0x64 ADD PUSH2 0x338 JUMP JUMPDEST PUSH1 0x0 DUP1 PUSH1 0x0 DUP1 PUSH1 0x0 DUP1 JUMPDEST DUP10 DUP2 LT ISZERO PUSH2 0x661 JUMPI PUSH1 0x0 DUP12 DUP12 DUP4 DUP2 DUP2 LT PUSH2 0x3A3 JUMPI PUSH2 0x3A3 PUSH2 0xB7C JUMP JUMPDEST SWAP1 POP PUSH1 0x20 MUL ADD PUSH1 0x20 DUP2 ADD SWAP1 PUSH2 0x3B8 SWAP2 SWAP1 PUSH2 0xB92 JUMP JUMPDEST PUSH1 0x1 PUSH1 0x1 PUSH1 0xA0 SHL SUB AND SUB PUSH2 0x406 JUMPI PUSH1 0x40 MLOAD PUSH3 0x461BCD PUSH1 0xE5 SHL DUP2 MSTORE PUSH1 0x20 PUSH1 0x4 DUP3 ADD MSTORE PUSH1 0x15 PUSH1 0x24 DUP3 ADD MSTORE PUSH21 0x496E76616C696420746F6B656E2061646472657373 PUSH1 0x58 SHL PUSH1 0x44 DUP3 ADD MSTORE PUSH1 0x64 ADD PUSH2 0x338 JUMP JUMPDEST PUSH1 0x0 DUP10 DUP10 DUP4 DUP2 DUP2 LT PUSH2 0x41A JUMPI PUSH2 0x41A PUSH2 0xB7C JUMP JUMPDEST SWAP1 POP PUSH1 0x20 MUL ADD CALLDATALOAD GT PUSH2 0x46E JUMPI PUSH1 0x40 MLOAD PUSH3 0x461BCD PUSH1 0xE5 SHL DUP2 MSTORE PUSH1 0x20 PUSH1 0x4 DUP3 ADD MSTORE PUSH1 0x1D PUSH1 0x24 DUP3 ADD MSTORE PUSH32 0x416D6F756E74206D7573742062652067726561746572207468616E2030000000 PUSH1 0x44 DUP3 ADD MSTORE PUSH1 0x64 ADD PUSH2 0x338 JUMP JUMPDEST PUSH32 0x0 PUSH1 0x1 PUSH1 0x1 PUSH1 0xA0 SHL SUB AND DUP12 DUP12 DUP4 DUP2 DUP2 LT PUSH2 0x4AA JUMPI PUSH2 0x4AA PUSH2 0xB7C JUMP JUMPDEST SWAP1 POP PUSH1 0x20 MUL ADD PUSH1 0x20 DUP2 ADD SWAP1 PUSH2 0x4BF SWAP2 SWAP1 PUSH2 0xB92 JUMP JUMPDEST PUSH1 0x1 PUSH1 0x1 PUSH1 0xA0 SHL SUB AND SUB PUSH2 0x515 JUMPI PUSH1 0x40 MLOAD PUSH3 0x461BCD PUSH1 0xE5 SHL DUP2 MSTORE PUSH1 0x20 PUSH1 0x4 DUP3 ADD MSTORE PUSH1 0x1C PUSH1 0x24 DUP3 ADD MSTORE PUSH32 0x43616E6E6F7420737761702048494748455220746F2048494748455200000000 PUSH1 0x44 DUP3 ADD MSTORE PUSH1 0x64 ADD PUSH2 0x338 JUMP JUMPDEST PUSH1 0x0 PUSH2 0x55F DUP13 DUP13 DUP5 DUP2 DUP2 LT PUSH2 0x52C JUMPI PUSH2 0x52C PUSH2 0xB7C JUMP JUMPDEST SWAP1 POP PUSH1 0x20 MUL ADD PUSH1 0x20 DUP2 ADD SWAP1 PUSH2 0x541 SWAP2 SWAP1 PUSH2 0xB92 JUMP JUMPDEST DUP12 DUP12 DUP6 DUP2 DUP2 LT PUSH2 0x553 JUMPI PUSH2 0x553 PUSH2 0xB7C JUMP JUMPDEST SWAP1 POP PUSH1 0x20 MUL ADD CALLDATALOAD SWAP2 SWAP1 POP JUMP JUMPDEST SWAP1 POP PUSH2 0x56B DUP2 DUP6 PUSH2 0xBCA JUMP JUMPDEST SWAP4 POP PUSH4 0x11E1A300 DUP2 LT ISZERO PUSH2 0x587 JUMPI DUP3 PUSH2 0x583 DUP2 PUSH2 0xBDD JUMP JUMPDEST SWAP4 POP POP JUMPDEST PUSH1 0x0 PUSH1 0x64 PUSH1 0x50 DUP13 DUP13 DUP7 DUP2 DUP2 LT PUSH2 0x59F JUMPI PUSH2 0x59F PUSH2 0xB7C JUMP JUMPDEST SWAP1 POP PUSH1 0x20 MUL ADD CALLDATALOAD PUSH2 0x5B0 SWAP2 SWAP1 PUSH2 0xBF6 JUMP JUMPDEST PUSH2 0x5BA SWAP2 SWAP1 PUSH2 0xC0D JUMP JUMPDEST SWAP1 POP PUSH1 0x0 PUSH1 0x64 PUSH1 0x12 DUP14 DUP14 DUP8 DUP2 DUP2 LT PUSH2 0x5D4 JUMPI PUSH2 0x5D4 PUSH2 0xB7C JUMP JUMPDEST SWAP1 POP PUSH1 0x20 MUL ADD CALLDATALOAD PUSH2 0x5E5 SWAP2 SWAP1 PUSH2 0xBF6 JUMP JUMPDEST PUSH2 0x5EF SWAP2 SWAP1 PUSH2 0xC0D JUMP JUMPDEST SWAP1 POP PUSH1 0x0 PUSH1 0x64 PUSH1 0x2 DUP15 DUP15 DUP9 DUP2 DUP2 LT PUSH2 0x609 JUMPI PUSH2 0x609 PUSH2 0xB7C JUMP JUMPDEST SWAP1 POP PUSH1 0x20 MUL ADD CALLDATALOAD PUSH2 0x61A SWAP2 SWAP1 PUSH2 0xBF6 JUMP JUMPDEST PUSH2 0x624 SWAP2 SWAP1 PUSH2 0xC0D JUMP JUMPDEST SWAP1 POP PUSH2 0x630 DUP4 DUP12 PUSH2 0xBCA JUMP JUMPDEST SWAP10 POP PUSH2 0x63C DUP3 DUP11 PUSH2 0xBCA JUMP JUMPDEST SWAP9 POP PUSH2 0x648 DUP2 DUP10 PUSH2 0xBCA JUMP JUMPDEST SWAP8 POP POP POP POP POP DUP1 DUP1 PUSH2 0x659 SWAP1 PUSH2 0xBDD JUMP JUMPDEST SWAP2 POP POP PUSH2 0x387 JUMP JUMPDEST POP PUSH1 0x40 MLOAD DUP1 PUSH1 0xE0 ADD PUSH1 0x40 MSTORE DUP1 DUP12 DUP12 DUP1 DUP1 PUSH1 0x20 MUL PUSH1 0x20 ADD PUSH1 0x40 MLOAD SWAP1 DUP2 ADD PUSH1 0x40 MSTORE DUP1 SWAP4 SWAP3 SWAP2 SWAP1 DUP2 DUP2 MSTORE PUSH1 0x20 ADD DUP4 DUP4 PUSH1 0x20 MUL DUP1 DUP3 DUP5 CALLDATACOPY PUSH1 0x0 SWAP3 ADD SWAP2 SWAP1 SWAP2 MSTORE POP POP POP SWAP1 DUP3 MSTORE POP PUSH1 0x40 DUP1 MLOAD PUSH1 0x20 DUP12 DUP2 MUL DUP3 DUP2 ADD DUP3 ADD SWAP1 SWAP4 MSTORE DUP12 DUP3 MSTORE SWAP3 DUP4 ADD SWAP3 SWAP1 SWAP2 DUP13 SWAP2 DUP13 SWAP2 DUP3 SWAP2 DUP6 ADD SWAP1 DUP5 SWAP1 DUP1 DUP3 DUP5 CALLDATACOPY PUSH1 0x0 SWAP3 ADD SWAP2 SWAP1 SWAP2 MSTORE POP POP POP SWAP1 DUP3 MSTORE POP PUSH1 0x20 DUP2 ADD SWAP7 SWAP1 SWAP7 MSTORE PUSH1 0x40 DUP7 ADD SWAP5 SWAP1 SWAP5 MSTORE PUSH1 0x60 DUP6 ADD SWAP3 SWAP1 SWAP3 MSTORE PUSH1 0x80 DUP5 ADD MSTORE PUSH1 0xA0 SWAP1 SWAP3 ADD SWAP2 SWAP1 SWAP2 MSTORE SWAP6 SWAP5 POP POP POP POP POP JUMP JUMPDEST PUSH4 0x11E1A300 DUP2 LT JUMPDEST SWAP3 SWAP2 POP POP JUMP JUMPDEST PUSH1 0x0 DUP1 PUSH32 0x0 SWAP1 POP PUSH1 0x0 DUP2 PUSH1 0x1 PUSH1 0x1 PUSH1 0xA0 SHL SUB AND PUSH4 0xFEAF968C PUSH1 0x40 MLOAD DUP2 PUSH4 0xFFFFFFFF AND PUSH1 0xE0 SHL DUP2 MSTORE PUSH1 0x4 ADD PUSH1 0xA0 PUSH1 0x40 MLOAD DUP1 DUP4 SUB DUP2 DUP7 GAS STATICCALL ISZERO DUP1 ISZERO PUSH2 0x77E JUMPI RETURNDATASIZE PUSH1 0x0 DUP1 RETURNDATACOPY RETURNDATASIZE PUSH1 0x0 REVERT JUMPDEST POP POP POP POP PUSH1 0x40 MLOAD RETURNDATASIZE PUSH1 0x1F NOT PUSH1 0x1F DUP3 ADD AND DUP3 ADD DUP1 PUSH1 0x40 MSTORE POP DUP2 ADD SWAP1 PUSH2 0x7A2 SWAP2 SWAP1 PUSH2 0xC49 JUMP JUMPDEST POP SWAP2 SWAP7 SWAP6 POP POP POP POP POP POP JUMP JUMPDEST PUSH2 0x7E9 PUSH1 0x40 MLOAD DUP1 PUSH1 0xC0 ADD PUSH1 0x40 MSTORE DUP1 PUSH1 0x0 DUP2 MSTORE PUSH1 0x20 ADD PUSH1 0x0 DUP2 MSTORE PUSH1 0x20 ADD PUSH1 0x0 DUP2 MSTORE PUSH1 0x20 ADD PUSH1 0x0 DUP2 MSTORE PUSH1 0x20 ADD PUSH1 0x0 DUP2 MSTORE PUSH1 0x20 ADD PUSH1 0x0 ISZERO ISZERO DUP2 MSTORE POP SWAP1 JUMP JUMPDEST PUSH1 0x1 PUSH1 0x1 PUSH1 0xA0 SHL SUB DUP4 AND PUSH2 0x837 JUMPI PUSH1 0x40 MLOAD PUSH3 0x461BCD PUSH1 0xE5 SHL DUP2 MSTORE PUSH1 0x20 PUSH1 0x4 DUP3 ADD MSTORE PUSH1 0x15 PUSH1 0x24 DUP3 ADD MSTORE PUSH21 0x496E76616C696420746F6B656E2061646472657373 PUSH1 0x58 SHL PUSH1 0x44 DUP3 ADD MSTORE PUSH1 0x64 ADD PUSH2 0x338 JUMP JUMPDEST PUSH1 0x0 DUP3 GT PUSH2 0x887 JUMPI PUSH1 0x40 MLOAD PUSH3 0x461BCD PUSH1 0xE5 SHL DUP2 MSTORE PUSH1 0x20 PUSH1 0x4 DUP3 ADD MSTORE PUSH1 0x1D PUSH1 0x24 DUP3 ADD MSTORE PUSH32 0x416D6F756E74206D7573742062652067726561746572207468616E2030000000 PUSH1 0x44 DUP3 ADD MSTORE PUSH1 0x64 ADD PUSH2 0x338 JUMP JUMPDEST PUSH32 0x0 PUSH1 0x1 PUSH1 0x1 PUSH1 0xA0 SHL SUB AND DUP4 PUSH1 0x1 PUSH1 0x1 PUSH1 0xA0 SHL SUB AND SUB PUSH2 0x908 JUMPI PUSH1 0x40 MLOAD PUSH3 0x461BCD PUSH1 0xE5 SHL DUP2 MSTORE PUSH1 0x20 PUSH1 0x4 DUP3 ADD MSTORE PUSH1 0x1C PUSH1 0x24 DUP3 ADD MSTORE PUSH32 0x43616E6E6F7420737761702048494748455220746F2048494748455200000000 PUSH1 0x44 DUP3 ADD MSTORE PUSH1 0x64 ADD PUSH2 0x338 JUMP JUMPDEST DUP2 PUSH4 0x11E1A300 DUP2 LT PUSH1 0x0 PUSH1 0x64 PUSH2 0x91F PUSH1 0x50 DUP6 PUSH2 0xBF6 JUMP JUMPDEST PUSH2 0x929 SWAP2 SWAP1 PUSH2 0xC0D JUMP JUMPDEST SWAP1 POP PUSH1 0x0 PUSH1 0x64 PUSH2 0x93A PUSH1 0x12 DUP9 PUSH2 0xBF6 JUMP JUMPDEST PUSH2 0x944 SWAP2 SWAP1 PUSH2 0xC0D JUMP JUMPDEST SWAP1 POP PUSH1 0x0 PUSH1 0x64 PUSH2 0x955 PUSH1 0x2 DUP10 PUSH2 0xBF6 JUMP JUMPDEST PUSH2 0x95F SWAP2 SWAP1 PUSH2 0xC0D JUMP JUMPDEST PUSH1 0x40 DUP1 MLOAD PUSH1 0xC0 DUP2 ADD DUP3 MSTORE SWAP9 DUP10 MSTORE PUSH1 0x20 DUP10 ADD SWAP5 SWAP1 SWAP5 MSTORE SWAP3 DUP8 ADD SWAP2 SWAP1 SWAP2 MSTORE POP PUSH1 0x60 DUP6 ADD MSTORE PUSH1 0x80 DUP5 ADD SWAP2 SWAP1 SWAP2 MSTORE ISZERO ISZERO PUSH1 0xA0 DUP4 ADD MSTORE POP SWAP2 SWAP1 POP JUMP JUMPDEST PUSH1 0x0 DUP1 DUP4 PUSH1 0x1F DUP5 ADD SLT PUSH2 0x9A8 JUMPI PUSH1 0x0 DUP1 REVERT JUMPDEST POP DUP2 CALLDATALOAD PUSH8 0xFFFFFFFFFFFFFFFF DUP2 GT ISZERO PUSH2 0x9C0 JUMPI PUSH1 0x0 DUP1 REVERT JUMPDEST PUSH1 0x20 DUP4 ADD SWAP2 POP DUP4 PUSH1 0x20 DUP3 PUSH1 0x5 SHL DUP6 ADD ADD GT ISZERO PUSH2 0x9DB JUMPI PUSH1 0x0 DUP1 REVERT JUMPDEST SWAP3 POP SWAP3 SWAP1 POP JUMP JUMPDEST PUSH1 0x0 DUP1 PUSH1 0x0 DUP1 PUSH1 0x40 DUP6 DUP8 SUB SLT ISZERO PUSH2 0x9F8 JUMPI PUSH1 0x0 DUP1 REVERT JUMPDEST DUP5 CALLDATALOAD PUSH8 0xFFFFFFFFFFFFFFFF DUP1 DUP3 GT ISZERO PUSH2 0xA10 JUMPI PUSH1 0x0 DUP1 REVERT JUMPDEST PUSH2 0xA1C DUP9 DUP4 DUP10 ADD PUSH2 0x996 JUMP JUMPDEST SWAP1 SWAP7 POP SWAP5 POP PUSH1 0x20 DUP8 ADD CALLDATALOAD SWAP2 POP DUP1 DUP3 GT ISZERO PUSH2 0xA35 JUMPI PUSH1 0x0 DUP1 REVERT JUMPDEST POP PUSH2 0xA42 DUP8 DUP3 DUP9 ADD PUSH2 0x996 JUMP JUMPDEST SWAP6 SWAP9 SWAP5 SWAP8 POP SWAP6 POP POP POP POP JUMP JUMPDEST PUSH1 0x0 DUP2 MLOAD DUP1 DUP5 MSTORE PUSH1 0x20 DUP1 DUP6 ADD SWAP5 POP DUP1 DUP5 ADD PUSH1 0x0 JUMPDEST DUP4 DUP2 LT ISZERO PUSH2 0xA7E JUMPI DUP2 MLOAD DUP8 MSTORE SWAP6 DUP3 ADD SWAP6 SWAP1 DUP3 ADD SWAP1 PUSH1 0x1 ADD PUSH2 0xA62 JUMP JUMPDEST POP SWAP5 SWAP6 SWAP5 POP POP POP POP POP JUMP JUMPDEST PUSH1 0x20 DUP1 DUP3 MSTORE DUP3 MLOAD PUSH1 0xE0 DUP4 DUP4 ADD MSTORE DUP1 MLOAD PUSH2 0x100 DUP5 ADD DUP2 SWAP1 MSTORE PUSH1 0x0 SWAP3 SWAP2 DUP3 ADD SWAP1 DUP4 SWAP1 PUSH2 0x120 DUP7 ADD SWAP1 JUMPDEST DUP1 DUP4 LT ISZERO PUSH2 0xAD9 JUMPI DUP4 MLOAD PUSH1 0x1 PUSH1 0x1 PUSH1 0xA0 SHL SUB AND DUP3 MSTORE SWAP3 DUP5 ADD SWAP3 PUSH1 0x1 SWAP3 SWAP1 SWAP3 ADD SWAP2 SWAP1 DUP5 ADD SWAP1 PUSH2 0xAB0 JUMP JUMPDEST POP SWAP3 DUP7 ADD MLOAD DUP6 DUP5 SUB PUSH1 0x1F NOT ADD PUSH1 0x40 DUP8 ADD MSTORE SWAP3 PUSH2 0xAF5 DUP2 DUP6 PUSH2 0xA4E JUMP JUMPDEST SWAP4 POP POP POP POP PUSH1 0x40 DUP5 ADD MLOAD PUSH1 0x60 DUP5 ADD MSTORE PUSH1 0x60 DUP5 ADD MLOAD PUSH1 0x80 DUP5 ADD MSTORE PUSH1 0x80 DUP5 ADD MLOAD PUSH1 0xA0 DUP5 ADD MSTORE PUSH1 0xA0 DUP5 ADD MLOAD PUSH1 0xC0 DUP5 ADD MSTORE PUSH1 0xC0 DUP5 ADD MLOAD PUSH1 0xE0 DUP5 ADD MSTORE DUP1 SWAP2 POP POP SWAP3 SWAP2 POP POP JUMP JUMPDEST DUP1 CALLDATALOAD PUSH1 0x1 PUSH1 0x1 PUSH1 0xA0 SHL SUB DUP2 AND DUP2 EQ PUSH2 0xB4D JUMPI PUSH1 0x0 DUP1 REVERT JUMPDEST SWAP2 SWAP1 POP JUMP JUMPDEST PUSH1 0x0 DUP1 PUSH1 0x40 DUP4 DUP6 SUB SLT ISZERO PUSH2 0xB65 JUMPI PUSH1 0x0 DUP1 REVERT JUMPDEST PUSH2 0xB6E DUP4 PUSH2 0xB36 JUMP JUMPDEST SWAP5 PUSH1 0x20 SWAP4 SWAP1 SWAP4 ADD CALLDATALOAD SWAP4 POP POP POP JUMP JUMPDEST PUSH4 0x4E487B71 PUSH1 0xE0 SHL PUSH1 0x0 MSTORE PUSH1 0x32 PUSH1 0x4 MSTORE PUSH1 0x24 PUSH1 0x0 REVERT JUMPDEST PUSH1 0x0 PUSH1 0x20 DUP3 DUP5 SUB SLT ISZERO PUSH2 0xBA4 JUMPI PUSH1 0x0 DUP1 REVERT JUMPDEST PUSH2 0xBAD DUP3 PUSH2 0xB36 JUMP JUMPDEST SWAP4 SWAP3 POP POP POP JUMP JUMPDEST PUSH4 0x4E487B71 PUSH1 0xE0 SHL PUSH1 0x0 MSTORE PUSH1 0x11 PUSH1 0x4 MSTORE PUSH1 0x24 PUSH1 0x0 REVERT JUMPDEST DUP1 DUP3 ADD DUP1 DUP3 GT ISZERO PUSH2 0x712 JUMPI PUSH2 0x712 PUSH2 0xBB4 JUMP JUMPDEST PUSH1 0x0 PUSH1 0x1 DUP3 ADD PUSH2 0xBEF JUMPI PUSH2 0xBEF PUSH2 0xBB4 JUMP JUMPDEST POP PUSH1 0x1 ADD SWAP1 JUMP JUMPDEST DUP1 DUP3 MUL DUP2 ISZERO DUP3 DUP3 DIV DUP5 EQ OR PUSH2 0x712 JUMPI PUSH2 0x712 PUSH2 0xBB4 JUMP JUMPDEST PUSH1 0x0 DUP3 PUSH2 0xC2A JUMPI PUSH4 0x4E487B71 PUSH1 0xE0 SHL PUSH1 0x0 MSTORE PUSH1 0x12 PUSH1 0x4 MSTORE PUSH1 0x24 PUSH1 0x0 REVERT JUMPDEST POP DIV SWAP1 JUMP JUMPDEST DUP1 MLOAD PUSH10 0xFFFFFFFFFFFFFFFFFFFF DUP2 AND DUP2 EQ PUSH2 0xB4D JUMPI PUSH1 0x0 DUP1 REVERT JUMPDEST PUSH1 0x0 DUP1 PUSH1 0x0 DUP1 PUSH1 0x0 PUSH1 0xA0 DUP7 DUP9 SUB SLT ISZERO PUSH2 0xC61 JUMPI PUSH1 0x0 DUP1 REVERT JUMPDEST PUSH2 0xC6A DUP7 PUSH2 0xC2F JUMP JUMPDEST SWAP5 POP PUSH1 0x20 DUP7 ADD MLOAD SWAP4 POP PUSH1 0x40 DUP7 ADD MLOAD SWAP3 POP PUSH1 0x60 DUP7 ADD MLOAD SWAP2 POP PUSH2 0xC8D PUSH1 0x80 DUP8 ADD PUSH2 0xC2F JUMP JUMPDEST SWAP1 POP SWAP3 SWAP6 POP SWAP3 SWAP6 SWAP1 SWAP4 POP JUMP INVALID LOG2 PUSH5 0x6970667358 0x22 SLT KECCAK256 0xD0 0xF CREATE2 0xEC EXTCODESIZE ORIGIN SWAP15 DUP16 0xC6 DUP14 0x23 PUSH26 0x13C855E76C89DA993440ADFE6968B6F060DDA6A364736F6C6343 STOP ADDMOD SGT STOP CALLER "},"methodIdentifiers":{"BASE_CHAIN_ID()":"efc21e3f","BASE_GOERLI_CHAIN_ID()":"f34a2cf6","BASE_SEPOLIA_CHAIN_ID()":"f1b09fc1","DEV_WALLET()":"2d04f820","DUST_THRESHOLD_USD()":"12d1d037","ETH_USD_PRICE_FEED()":"b0f0abe9","FEE_DENOMINATOR()":"d73792a9","HIGHER()":"ee7cf415","PLATFORM_FEE()":"34fbc9a1","POL_SHARE()":"44df4be6","USER_SHARE()":"a10eaa89","WETH()":"ad5c4648","getBulkSwapQuote(address[],uint256[])":"77a59bb5","getETHPrice()":"a607a8d9","getSwapQuote(address,uint256)":"b492fc69","isDustToken(address,uint256)":"7e99e228"}}}}}