{"contracts/HelloWorld.sol":{"HelloWorld":{"abi":[{"inputs":[],"name":"hello","outputs":[{"internalType":"string","name":"","type":"string"}],"stateMutability":"pure","type":"function"}],"evm":{"bytecode":{"linkReferences":{},"object":"608060405234801561001057600080fd5b5060e58061001f6000396000f3fe6080604052348015600f57600080fd5b506004361060285760003560e01c806319ff1d2114602d575b600080fd5b604080518082018252600d81526c48656c6c6f2c20776f726c642160981b60208201529051605a91906063565b60405180910390f35b600060208083528351808285015260005b81811015608e578581018301518582016040015282016074565b506000604082860101526040601f19601f830116850101925050509291505056fea264697066735822122099ab240e4f5928a1f25e868269716413df7efe1d59444232a70bcd51e877a51664736f6c63430008130033","opcodes":"PUSH1 0x80 PUSH1 0x40 MSTORE CALLVALUE DUP1 ISZERO PUSH2 0x10 JUMPI PUSH1 0x0 DUP1 REVERT JUMPDEST POP PUSH1 0xE5 DUP1 PUSH2 0x1F PUSH1 0x0 CODECOPY PUSH1 0x0 RETURN INVALID PUSH1 0x80 PUSH1 0x40 MSTORE CALLVALUE DUP1 ISZERO PUSH1 0xF JUMPI PUSH1 0x0 DUP1 REVERT JUMPDEST POP PUSH1 0x4 CALLDATASIZE LT PUSH1 0x28 JUMPI PUSH1 0x0 CALLDATALOAD PUSH1 0xE0 SHR DUP1 PUSH4 0x19FF1D21 EQ PUSH1 0x2D JUMPI JUMPDEST PUSH1 0x0 DUP1 REVERT JUMPDEST PUSH1 0x40 DUP1 MLOAD DUP1 DUP3 ADD DUP3 MSTORE PUSH1 0xD DUP2 MSTORE PUSH13 0x48656C6C6F2C20776F726C6421 PUSH1 0x98 SHL PUSH1 0x20 DUP3 ADD MSTORE SWAP1 MLOAD PUSH1 0x5A SWAP2 SWAP1 PUSH1 0x63 JUMP JUMPDEST PUSH1 0x40 MLOAD DUP1 SWAP2 SUB SWAP1 RETURN JUMPDEST PUSH1 0x0 PUSH1 0x20 DUP1 DUP4 MSTORE DUP4 MLOAD DUP1 DUP3 DUP6 ADD MSTORE PUSH1 0x0 JUMPDEST DUP2 DUP2 LT ISZERO PUSH1 0x8E JUMPI DUP6 DUP2 ADD DUP4 ADD MLOAD DUP6 DUP3 ADD PUSH1 0x40 ADD MSTORE DUP3 ADD PUSH1 0x74 JUMP JUMPDEST POP PUSH1 0x0 PUSH1 0x40 DUP3 DUP7 ADD ADD MSTORE PUSH1 0x40 PUSH1 0x1F NOT PUSH1 0x1F DUP4 ADD AND DUP6 ADD ADD SWAP3 POP POP POP SWAP3 SWAP2 POP POP JUMP INVALID LOG2 PUSH5 0x6970667358 0x22 SLT KECCAK256 SWAP10 0xAB 0x24 0xE 0x4F MSIZE 0x28 LOG1 CALLCODE 0x5E DUP7 DUP3 PUSH10 0x716413DF7EFE1D594442 ORIGIN 0xA7 SIGNEXTEND 0xCD MLOAD 0xE8 PUSH24 0xA51664736F6C634300081300330000000000000000000000 "},"methodIdentifiers":{"hello()":"19ff1d21"}}}}}