{"contracts/SplitRouter.sol":{"SplitRouter":{"abi":[{"inputs":[{"internalType":"address","name":"_higher","type":"address"},{"internalType":"address","name":"_weth","type":"address"},{"internalType":"address","name":"_uniswapPool","type":"address"},{"internalType":"address","name":"_uniswapRouter","type":"address"},{"internalType":"address","name":"_uniswapQuoter","type":"address"},{"internalType":"address","name":"_positionManager","type":"address"},{"internalType":"address","name":"_devWallet","type":"address"}],"stateMutability":"nonpayable","type":"constructor"},{"inputs":[{"internalType":"uint256","name":"amount","type":"uint256"}],"name":"AmountTooSmall","type":"error"},{"inputs":[],"name":"ArithmeticOverflow","type":"error"},{"inputs":[],"name":"ArraysLengthMismatch","type":"error"},{"inputs":[],"name":"CannotSwapHigherToHigher","type":"error"},{"inputs":[],"name":"EmptyArrays","type":"error"},{"inputs":[{"internalType":"uint256","name":"required","type":"uint256"},{"internalType":"uint256","name":"available","type":"uint256"}],"name":"InsufficientHigherBalance","type":"error"},{"inputs":[{"internalType":"uint256","name":"expected","type":"uint256"},{"internalType":"uint256","name":"received","type":"uint256"}],"name":"InsufficientOutputAmount","type":"error"},{"inputs":[],"name":"InvalidTokenAddress","type":"error"},{"inputs":[],"name":"SwapOutputWouldBeZero","type":"error"},{"anonymous":false,"inputs":[{"indexed":true,"internalType":"address","name":"user","type":"address"},{"indexed":false,"internalType":"address[]","name":"tokens","type":"address[]"},{"indexed":false,"internalType":"uint256[]","name":"amounts","type":"uint256[]"},{"indexed":false,"internalType":"uint256","name":"totalAmountOut","type":"uint256"}],"name":"BulkSwapExecuted","type":"event"},{"anonymous":false,"inputs":[{"indexed":false,"internalType":"uint256","name":"totalHigher","type":"uint256"},{"indexed":false,"internalType":"uint256","name":"userAmount","type":"uint256"},{"indexed":false,"internalType":"uint256","name":"polAmount","type":"uint256"},{"indexed":false,"internalType":"uint256","name":"platformFee","type":"uint256"},{"indexed":false,"internalType":"uint256","name":"contractBalance","type":"uint256"}],"name":"DistributionDebug","type":"event"},{"anonymous":false,"inputs":[{"indexed":true,"internalType":"address","name":"previousOwner","type":"address"},{"indexed":true,"internalType":"address","name":"newOwner","type":"address"}],"name":"OwnershipTransferred","type":"event"},{"anonymous":false,"inputs":[{"indexed":true,"internalType":"address","name":"token","type":"address"},{"indexed":false,"internalType":"uint256","name":"amountIn","type":"uint256"},{"indexed":false,"internalType":"uint256","name":"amountOut","type":"uint256"}],"name":"SwapDebug","type":"event"},{"anonymous":false,"inputs":[{"indexed":true,"internalType":"address","name":"user","type":"address"},{"indexed":true,"internalType":"address","name":"tokenIn","type":"address"},{"indexed":false,"internalType":"uint256","name":"amountIn","type":"uint256"},{"indexed":false,"internalType":"uint256","name":"amountOut","type":"uint256"},{"indexed":false,"internalType":"uint256","name":"polAmount","type":"uint256"},{"indexed":false,"internalType":"uint256","name":"platformFee","type":"uint256"}],"name":"SwapExecuted","type":"event"},{"inputs":[],"name":"BASE_CHAIN_ID","outputs":[{"internalType":"uint256","name":"","type":"uint256"}],"stateMutability":"view","type":"function"},{"inputs":[],"name":"BASE_GOERLI_CHAIN_ID","outputs":[{"internalType":"uint256","name":"","type":"uint256"}],"stateMutability":"view","type":"function"},{"inputs":[],"name":"BASE_SEPOLIA_CHAIN_ID","outputs":[{"internalType":"uint256","name":"","type":"uint256"}],"stateMutability":"view","type":"function"},{"inputs":[],"name":"DEFAULT_FEE","outputs":[{"internalType":"uint24","name":"","type":"uint24"}],"stateMutability":"view","type":"function"},{"inputs":[],"name":"DEV_WALLET","outputs":[{"internalType":"address","name":"","type":"address"}],"stateMutability":"view","type":"function"},{"inputs":[],"name":"FEE_DENOMINATOR","outputs":[{"internalType":"uint256","name":"","type":"uint256"}],"stateMutability":"view","type":"function"},{"inputs":[],"name":"HIGHER","outputs":[{"internalType":"address","name":"","type":"address"}],"stateMutability":"view","type":"function"},{"inputs":[],"name":"PLATFORM_FEE","outputs":[{"internalType":"uint256","name":"","type":"uint256"}],"stateMutability":"view","type":"function"},{"inputs":[],"name":"POL_RECIPIENT","outputs":[{"internalType":"address","name":"","type":"address"}],"stateMutability":"view","type":"function"},{"inputs":[],"name":"POL_SHARE","outputs":[{"internalType":"uint256","name":"","type":"uint256"}],"stateMutability":"view","type":"function"},{"inputs":[],"name":"POSITION_MANAGER","outputs":[{"internalType":"address","name":"","type":"address"}],"stateMutability":"view","type":"function"},{"inputs":[],"name":"UNISWAP_POOL","outputs":[{"internalType":"address","name":"","type":"address"}],"stateMutability":"view","type":"function"},{"inputs":[],"name":"UNISWAP_QUOTER","outputs":[{"internalType":"address","name":"","type":"address"}],"stateMutability":"view","type":"function"},{"inputs":[],"name":"UNISWAP_ROUTER","outputs":[{"internalType":"address","name":"","type":"address"}],"stateMutability":"view","type":"function"},{"inputs":[],"name":"USER_SHARE","outputs":[{"internalType":"uint256","name":"","type":"uint256"}],"stateMutability":"view","type":"function"},{"inputs":[],"name":"WETH","outputs":[{"internalType":"address","name":"","type":"address"}],"stateMutability":"view","type":"function"},{"inputs":[],"name":"WETH_HIGHER_POOL","outputs":[{"internalType":"address","name":"","type":"address"}],"stateMutability":"view","type":"function"},{"inputs":[{"internalType":"address","name":"token","type":"address"}],"name":"emergencyWithdraw","outputs":[],"stateMutability":"nonpayable","type":"function"},{"inputs":[],"name":"emergencyWithdrawETH","outputs":[],"stateMutability":"nonpayable","type":"function"},{"inputs":[{"internalType":"address[]","name":"tokens","type":"address[]"},{"internalType":"uint256[]","name":"amounts","type":"uint256[]"},{"internalType":"uint256","name":"minReceive","type":"uint256"}],"name":"executeBulkSwap","outputs":[],"stateMutability":"nonpayable","type":"function"},{"inputs":[{"internalType":"address","name":"tokenIn","type":"address"},{"internalType":"uint256","name":"amountIn","type":"uint256"},{"internalType":"uint256","name":"minReceive","type":"uint256"}],"name":"executeSwap","outputs":[],"stateMutability":"nonpayable","type":"function"},{"inputs":[{"internalType":"address[]","name":"tokens","type":"address[]"},{"internalType":"uint256[]","name":"amounts","type":"uint256[]"}],"name":"getBulkSwapQuote","outputs":[{"internalType":"uint256","name":"totalAmountOut","type":"uint256"},{"internalType":"uint256[]","name":"individualQuotes","type":"uint256[]"}],"stateMutability":"nonpayable","type":"function"},{"inputs":[{"internalType":"address","name":"tokenIn","type":"address"}],"name":"getMinimumAmount","outputs":[{"internalType":"uint256","name":"","type":"uint256"}],"stateMutability":"view","type":"function"},{"inputs":[{"internalType":"address","name":"tokenIn","type":"address"},{"internalType":"uint256","name":"amountIn","type":"uint256"}],"name":"getSwapQuote","outputs":[{"internalType":"uint256","name":"amountOut","type":"uint256"}],"stateMutability":"nonpayable","type":"function"},{"inputs":[],"name":"owner","outputs":[{"internalType":"address","name":"","type":"address"}],"stateMutability":"view","type":"function"},{"inputs":[],"name":"quoter","outputs":[{"internalType":"contract IQuoter","name":"","type":"address"}],"stateMutability":"view","type":"function"},{"inputs":[],"name":"renounceOwnership","outputs":[],"stateMutability":"nonpayable","type":"function"},{"inputs":[],"name":"swapRouter","outputs":[{"internalType":"contract ISwapRouter","name":"","type":"address"}],"stateMutability":"view","type":"function"},{"inputs":[{"internalType":"address","name":"newOwner","type":"address"}],"name":"transferOwnership","outputs":[],"stateMutability":"nonpayable","type":"function"}],"evm":{"bytecode":{"linkReferences":{},"object":"6101a06040523480156200001257600080fd5b506040516200268b3803806200268b8339810160408190526200003591620001c9565b62000040336200015c565b6001805546612105148062000057575062014a3446145b8062000065575062014a3346145b620000c75760405162461bcd60e51b815260206004820152602760248201527f53706c6974526f757465723a204f6e6c7920776f726b73206f6e2042617365206044820152666e6574776f726b60c81b60648201526084015b60405180910390fd5b6001600160a01b038116620001145760405162461bcd60e51b8152602060048201526012602482015271125b9d985b1a590819195d881dd85b1b195d60721b6044820152606401620000be565b6001600160a01b0396871660a05294861660c05292851660e052908416610100819052908416610120819052918416610140529190921660805261016052610180526200025e565b600080546001600160a01b038381166001600160a01b0319831681178455604051919092169283917f8be0079c531659141344cd1fd0a4f28419497f9722a3daafe3b4186f6b6457e09190a35050565b80516001600160a01b0381168114620001c457600080fd5b919050565b600080600080600080600060e0888a031215620001e557600080fd5b620001f088620001ac565b96506200020060208901620001ac565b95506200021060408901620001ac565b94506200022060608901620001ac565b93506200023060808901620001ac565b92506200024060a08901620001ac565b91506200025060c08901620001ac565b905092959891949750929550565b60805160a05160c05160e05161010051610120516101405161016051610180516122dc620003af600039600081816103e101528181610d8b01528181610e7001528181611776015261187f0152600081816103ba0152818161194301528181611a8f01528181611bc30152611cf3015260006101d90152600061038001526000818161042b01526110ca0152600061021d01526000818161035901528181610cd201528181610d1d0152818161114901528181611729015281816118110152818161190a0152818161197e01528181611c0d0152611d2e0152600081816104520152818161062101528181610b9b01528181610d4201528181610e27015281816112f0015281816113fb015281816114a10152818161155d015281816115f001528181611836015281816119ad01528181611ad90152611d5d015260008181610244015261152e01526122dc6000f3fe608060405234801561001057600080fd5b50600436106101cf5760003560e01c80638da5cb5b11610104578063d56d7f06116100a2578063efc21e3f11610071578063efc21e3f14610474578063f1b09fc11461047d578063f2fde38b14610487578063f34a2cf61461049a57600080fd5b8063d56d7f0614610403578063d73792a91461041e578063d826492014610426578063ee7cf4151461044d57600080fd5b8063b268630b116100de578063b268630b1461037b578063b492fc69146103a2578063c31c9c07146103b5578063c6bbd5a7146103dc57600080fd5b80638da5cb5b1461033b578063a10eaa891461034c578063ad5c46481461035457600080fd5b80634c28233f11610171578063715018a61161014b578063715018a6146102f757806377a59bb5146102ff5780637fcf071714610320578063845360171461033357600080fd5b80634c28233f146102b25780634fcc1def146102c75780636ff1c9bc146102e457600080fd5b806334fbc9a1116101ad57806334fbc9a114610266578063367917e31461027c5780633ad492221461029757806344df4be6146102aa57600080fd5b80631bea83fe146101d45780631d610577146102185780632d04f8201461023f575b600080fd5b6101fb7f000000000000000000000000000000000000000000000000000000000000000081565b6040516001600160a01b0390911681526020015b60405180910390f35b6101fb7f000000000000000000000000000000000000000000000000000000000000000081565b6101fb7f000000000000000000000000000000000000000000000000000000000000000081565b61026e600281565b60405190815260200161020f565b6101fb73d2a963866bd6d8de525ac726ac79ddf46c28748681565b61026e6102a5366004611e59565b6104a4565b61026e601281565b6102c56102c0366004611ec0565b61051b565b005b6102d061271081565b60405162ffffff909116815260200161020f565b6102c56102f2366004611e59565b610883565b6102c561098f565b61031261030d366004611f34565b6109a3565b60405161020f929190611fa0565b6102c561032e366004611fee565b610b46565b6102c5610c77565b6000546001600160a01b03166101fb565b61026e605081565b6101fb7f000000000000000000000000000000000000000000000000000000000000000081565b6101fb7f000000000000000000000000000000000000000000000000000000000000000081565b61026e6103b0366004612021565b610cce565b6101fb7f000000000000000000000000000000000000000000000000000000000000000081565b6101fb7f000000000000000000000000000000000000000000000000000000000000000081565b6101fb73cc28456d4ff980cee3457ca809a257e52cd9cdb081565b61026e606481565b6101fb7f000000000000000000000000000000000000000000000000000000000000000081565b6101fb7f000000000000000000000000000000000000000000000000000000000000000081565b61026e61210581565b61026e62014a3481565b6102c5610495366004611e59565b610ef7565b61026e62014a3381565b600080826001600160a01b031663313ce5676040518163ffffffff1660e01b8152600401602060405180830381865afa1580156104e5573d6000803e3d6000fd5b505050506040513d601f19601f82011682018060405250810190610509919061204b565b905061051481610f70565b9392505050565b610523610fc2565b838214610543576040516307e11acb60e51b815260040160405180910390fd5b60008490036105655760405163a600c81d60e01b815260040160405180910390fd5b6000805b858110156107f45760008787838181106105855761058561206e565b905060200201602081019061059a9190611e59565b6001600160a01b0316036105c157604051630f58058360e11b815260040160405180910390fd5b8484828181106105d3576105d361206e565b9050602002013560000361061f578484828181106105f3576105f361206e565b9050602002013560405163717d748560e11b815260040161061691815260200190565b60405180910390fd5b7f00000000000000000000000000000000000000000000000000000000000000006001600160a01b031687878381811061065b5761065b61206e565b90506020020160208101906106709190611e59565b6001600160a01b031603610697576040516302f6bd9160e01b815260040160405180910390fd5b8686828181106106a9576106a961206e565b90506020020160208101906106be9190611e59565b6001600160a01b03166323b872dd33308888868181106106e0576106e061206e565b6040516001600160e01b031960e088901b1681526001600160a01b039586166004820152949093166024850152506020909102013560448201526064016020604051808303816000875af115801561073c573d6000803e3d6000fd5b505050506040513d601f19601f820116820180604052508101906107609190612084565b5060006107ad8888848181106107785761077861206e565b905060200201602081019061078d9190611e59565b87878581811061079f5761079f61206e565b90506020020135600061101b565b905060006107bb82856120bc565b9050838110156107de5760405163391fb01d60e21b815260040160405180910390fd5b92508190506107ec816120cf565b915050610569565b50818110156108205760405163d28d3eb560e01b81526004810183905260248101829052604401610616565b6108298161124e565b336001600160a01b03167fdd462561ba2ca14dafdde5e05efaefa8717b9a0ed58d4d819bf92ead715916b0878787878660405161086a9594939291906120e8565b60405180910390a25061087c60018055565b5050505050565b61088b611648565b6040516370a0823160e01b81523060048201526000906001600160a01b038316906370a0823190602401602060405180830381865afa1580156108d2573d6000803e3d6000fd5b505050506040513d601f19601f820116820180604052508101906108f6919061216d565b9050816001600160a01b031663a9059cbb6109196000546001600160a01b031690565b6040516001600160e01b031960e084901b1681526001600160a01b039091166004820152602481018490526044016020604051808303816000875af1158015610966573d6000803e3d6000fd5b505050506040513d601f19601f8201168201806040525081019061098a9190612084565b505050565b610997611648565b6109a160006116a2565b565b600060608483146109ef5760405162461bcd60e51b8152602060048201526016602482015275082e4e4c2f2e640d8cadccee8d040dad2e6dac2e8c6d60531b6044820152606401610616565b8467ffffffffffffffff811115610a0857610a08612186565b604051908082528060200260200182016040528015610a31578160200160208202803683370190505b5090506000915060005b85811015610b3c5760003063b492fc69898985818110610a5d57610a5d61206e565b9050602002016020810190610a729190611e59565b888886818110610a8457610a8461206e565b6040516001600160e01b031960e087901b1681526001600160a01b03909416600485015260200291909101356024830152506044016020604051808303816000875af1158015610ad8573d6000803e3d6000fd5b505050506040513d601f19601f82011682018060405250810190610afc919061216d565b905080838381518110610b1157610b1161206e565b6020908102919091010152610b2681856120bc565b9350508080610b34906120cf565b915050610a3b565b5094509492505050565b610b4e610fc2565b6001600160a01b038316610b7557604051630f58058360e11b815260040160405180910390fd5b81600003610b995760405163717d748560e11b815260048101839052602401610616565b7f00000000000000000000000000000000000000000000000000000000000000006001600160a01b0316836001600160a01b031603610beb576040516302f6bd9160e01b815260040160405180910390fd5b6040516323b872dd60e01b8152336004820152306024820152604481018390526001600160a01b038416906323b872dd906064016020604051808303816000875af1158015610c3e573d6000803e3d6000fd5b505050506040513d601f19601f82011682018060405250810190610c629190612084565b50610c6e8383836116f2565b61098a60018055565b610c7f611648565b47610c926000546001600160a01b031690565b6001600160a01b03166108fc829081150290604051600060405180830381858888f19350505050158015610cca573d6000803e3d6000fd5b5050565b60007f00000000000000000000000000000000000000000000000000000000000000006001600160a01b0316836001600160a01b031603610e0e576040805160a0810182526001600160a01b037f0000000000000000000000000000000000000000000000000000000000000000811682527f00000000000000000000000000000000000000000000000000000000000000008116602083015261271082840152606082018590526000608083015291516359d88dbf60e11b81527f00000000000000000000000000000000000000000000000000000000000000009092169163b3b11b7e91610dc09160040161219c565b6020604051808303816000875af1925050508015610dfb575060408051601f3d908101601f19168201909252610df89181019061216d565b60015b610e0757506000610ef1565b9050610ef1565b6040805160a0810182526001600160a01b0385811682527f00000000000000000000000000000000000000000000000000000000000000008116602083015261271082840152606082018590526000608083015291516359d88dbf60e11b81527f00000000000000000000000000000000000000000000000000000000000000009092169163b3b11b7e91610ea59160040161219c565b6020604051808303816000875af1925050508015610ee0575060408051601f3d908101601f19168201909252610edd9181019061216d565b60015b610eee57610e078383611710565b90505b92915050565b610eff611648565b6001600160a01b038116610f645760405162461bcd60e51b815260206004820152602660248201527f4f776e61626c653a206e6577206f776e657220697320746865207a65726f206160448201526564647265737360d01b6064820152608401610616565b610f6d816116a2565b50565b600060128260ff1610610f8a5750655af3107a4000919050565b600c8260ff1610610fa057506305f5e100919050565b60068260ff1610610fb55750620186a0919050565b506064919050565b919050565b6002600154036110145760405162461bcd60e51b815260206004820152601f60248201527f5265656e7472616e637947756172643a207265656e7472616e742063616c6c006044820152606401610616565b6002600155565b600080846001600160a01b031663313ce5676040518163ffffffff1660e01b8152600401602060405180830381865afa15801561105c573d6000803e3d6000fd5b505050506040513d601f19601f82011682018060405250810190611080919061204b565b9050600061108d82610f70565b9050808510156110b35760405163717d748560e11b815260048101869052602401610616565b60405163095ea7b360e01b81526001600160a01b037f0000000000000000000000000000000000000000000000000000000000000000811660048301526024820187905287169063095ea7b3906044016020604051808303816000875af1158015611122573d6000803e3d6000fd5b505050506040513d601f19601f820116820180604052508101906111469190612084565b507f00000000000000000000000000000000000000000000000000000000000000006001600160a01b0316866001600160a01b0316036111925761118b868686611906565b92506111b5565b61119d868686611906565b9250826000036111b5576111b2868686611bba565b92505b826000036111d657604051630255f02360e31b815260040160405180910390fd5b838310156112015760405163d28d3eb560e01b81526004810185905260248101849052604401610616565b60408051868152602081018590526001600160a01b038816917f7bc21558f1cc3cd504a080657a8ebecb07bffeb02d1c85ff440cc42448c17b21910160405180910390a250509392505050565b6000606461125d6050846121e4565b61126791906121fb565b9050600060646112786012856121e4565b61128291906121fb565b9050600060646112936002866121e4565b61129d91906121fb565b90506000816112ac84866120bc565b6112b691906120bc565b9050848111156112d857826112cb858761221d565b6112d5919061221d565b91505b6040516370a0823160e01b81523060048201526000907f00000000000000000000000000000000000000000000000000000000000000006001600160a01b0316906370a0823190602401602060405180830381865afa15801561133f573d6000803e3d6000fd5b505050506040513d601f19601f82011682018060405250810190611363919061216d565b905081811015611390576040516306d66d9360e01b81526004810183905260248101829052604401610616565b604080518781526020810187905290810185905260608101849052608081018290527fae1988051d273725134b908b2129020347cd421407708907a0f8ad40ca33d9e19060a00160405180910390a160405163a9059cbb60e01b8152336004820152602481018690527f00000000000000000000000000000000000000000000000000000000000000006001600160a01b03169063a9059cbb906044016020604051808303816000875af115801561144c573d6000803e3d6000fd5b505050506040513d601f19601f820116820180604052508101906114709190612084565b5060405163a9059cbb60e01b815273d2a963866bd6d8de525ac726ac79ddf46c2874866004820152602481018590527f00000000000000000000000000000000000000000000000000000000000000006001600160a01b03169063a9059cbb906044016020604051808303816000875af11580156114f2573d6000803e3d6000fd5b505050506040513d601f19601f820116820180604052508101906115169190612084565b5060405163a9059cbb60e01b81526001600160a01b037f000000000000000000000000000000000000000000000000000000000000000081166004830152602482018590527f0000000000000000000000000000000000000000000000000000000000000000169063a9059cbb906044016020604051808303816000875af11580156115a6573d6000803e3d6000fd5b505050506040513d601f19601f820116820180604052508101906115ca9190612084565b506040805187815260208101879052908101859052606081018490526001600160a01b037f0000000000000000000000000000000000000000000000000000000000000000169033907f2922638cab0d1b5985f7105ff5c07253fb92cb6ce049948e3f7937f5a29db0ac9060800160405180910390a3505050505050565b6000546001600160a01b031633146109a15760405162461bcd60e51b815260206004820181905260248201527f4f776e61626c653a2063616c6c6572206973206e6f7420746865206f776e65726044820152606401610616565b600080546001600160a01b038381166001600160a01b0319831681178455604051919092169283917f8be0079c531659141344cd1fd0a4f28419497f9722a3daafe3b4186f6b6457e09190a35050565b60006116ff84848461101b565b905061170a8161124e565b50505050565b6040805160a0810182526001600160a01b0384811682527f000000000000000000000000000000000000000000000000000000000000000081166020830152612710828401526060820184905260006080830181905292516359d88dbf60e11b815283927f00000000000000000000000000000000000000000000000000000000000000009092169163b3b11b7e916117ac919060040161219c565b6020604051808303816000875af19250505080156117e7575060408051601f3d908101601f191682019092526117e49181019061216d565b60015b6117f5576000915050610ef1565b905080156118ff576040805160a0810182526001600160a01b037f0000000000000000000000000000000000000000000000000000000000000000811682527f00000000000000000000000000000000000000000000000000000000000000008116602083015261271082840152606082018490526000608083015291516359d88dbf60e11b81527f00000000000000000000000000000000000000000000000000000000000000009092169163b3b11b7e916118b49160040161219c565b6020604051808303816000875af19250505080156118ef575060408051601f3d908101601f191682019092526118ec9181019061216d565b60015b6118fc57600091506118ff565b91505b5092915050565b60007f00000000000000000000000000000000000000000000000000000000000000006001600160a01b0316846001600160a01b031603611a8d577f00000000000000000000000000000000000000000000000000000000000000006001600160a01b031663414bf3896040518061010001604052807f00000000000000000000000000000000000000000000000000000000000000006001600160a01b031681526020017f00000000000000000000000000000000000000000000000000000000000000006001600160a01b0316815260200161271062ffffff168152602001306001600160a01b031681526020014261012c611a0491906120bc565b815260200186815260200185815260200160006001600160a01b03168152506040518263ffffffff1660e01b8152600401611a3f9190612230565b6020604051808303816000875af1925050508015611a7a575060408051601f3d908101601f19168201909252611a779181019061216d565b60015b611a8657506000610514565b9050610514565b7f00000000000000000000000000000000000000000000000000000000000000006001600160a01b031663414bf389604051806101000160405280876001600160a01b031681526020017f00000000000000000000000000000000000000000000000000000000000000006001600160a01b0316815260200161271062ffffff168152602001306001600160a01b031681526020014261012c611b3091906120bc565b815260200186815260200185815260200160006001600160a01b03168152506040518263ffffffff1660e01b8152600401611b6b9190612230565b6020604051808303816000875af1925050508015611ba6575060408051601f3d908101601f19168201909252611ba39181019061216d565b60015b611bb257506000610514565b949350505050565b600080600090507f00000000000000000000000000000000000000000000000000000000000000006001600160a01b031663414bf389604051806101000160405280886001600160a01b031681526020017f00000000000000000000000000000000000000000000000000000000000000006001600160a01b0316815260200161271062ffffff168152602001306001600160a01b031681526020014261012c611c6491906120bc565b81526020018781526020016000815260200160006001600160a01b03168152506040518263ffffffff1660e01b8152600401611ca09190612230565b6020604051808303816000875af1925050508015611cdb575060408051601f3d908101601f19168201909252611cd89181019061216d565b60015b611ce9576000915050610514565b90508015611e3a577f00000000000000000000000000000000000000000000000000000000000000006001600160a01b031663414bf3896040518061010001604052807f00000000000000000000000000000000000000000000000000000000000000006001600160a01b031681526020017f00000000000000000000000000000000000000000000000000000000000000006001600160a01b0316815260200161271062ffffff168152602001306001600160a01b031681526020014261012c611db491906120bc565b815260200184815260200186815260200160006001600160a01b03168152506040518263ffffffff1660e01b8152600401611def9190612230565b6020604051808303816000875af1925050508015611e2a575060408051601f3d908101601f19168201909252611e279181019061216d565b60015b611e375760009150611e3a565b91505b509392505050565b80356001600160a01b0381168114610fbd57600080fd5b600060208284031215611e6b57600080fd5b61051482611e42565b60008083601f840112611e8657600080fd5b50813567ffffffffffffffff811115611e9e57600080fd5b6020830191508360208260051b8501011115611eb957600080fd5b9250929050565b600080600080600060608688031215611ed857600080fd5b853567ffffffffffffffff80821115611ef057600080fd5b611efc89838a01611e74565b90975095506020880135915080821115611f1557600080fd5b50611f2288828901611e74565b96999598509660400135949350505050565b60008060008060408587031215611f4a57600080fd5b843567ffffffffffffffff80821115611f6257600080fd5b611f6e88838901611e74565b90965094506020870135915080821115611f8757600080fd5b50611f9487828801611e74565b95989497509550505050565b6000604082018483526020604081850152818551808452606086019150828701935060005b81811015611fe157845183529383019391830191600101611fc5565b5090979650505050505050565b60008060006060848603121561200357600080fd5b61200c84611e42565b95602085013595506040909401359392505050565b6000806040838503121561203457600080fd5b61203d83611e42565b946020939093013593505050565b60006020828403121561205d57600080fd5b815160ff81168114610eee57600080fd5b634e487b7160e01b600052603260045260246000fd5b60006020828403121561209657600080fd5b81518015158114610eee57600080fd5b634e487b7160e01b600052601160045260246000fd5b80820180821115610ef157610ef16120a6565b6000600182016120e1576120e16120a6565b5060010190565b6060808252810185905260008660808301825b88811015612129576001600160a01b0361211484611e42565b168252602092830192909101906001016120fb565b5083810360208501528581526001600160fb1b0386111561214957600080fd5b8560051b915081876020830137604093909301939093525001602001949350505050565b60006020828403121561217f57600080fd5b5051919050565b634e487b7160e01b600052604160045260246000fd5b81516001600160a01b03908116825260208084015182169083015260408084015162ffffff169083015260608084015190830152608092830151169181019190915260a00190565b8082028115828204841417610ef157610ef16120a6565b60008261221857634e487b7160e01b600052601260045260246000fd5b500490565b81810381811115610ef157610ef16120a6565b60006101008201905060018060a01b0380845116835280602085015116602084015262ffffff6040850151166040840152806060850151166060840152506080830151608083015260a083015160a083015260c083015160c083015260e08301516118ff60e08401826001600160a01b0316905256fea264697066735822122005ab77d0ede1563471a79f2de38149985ccdbbe883296d4f4ba0a45384c5d69664736f6c63430008130033","opcodes":"PUSH2 0x1A0 PUSH1 0x40 MSTORE CALLVALUE DUP1 ISZERO PUSH3 0x12 JUMPI PUSH1 0x0 DUP1 REVERT JUMPDEST POP PUSH1 0x40 MLOAD PUSH3 0x268B CODESIZE SUB DUP1 PUSH3 0x268B DUP4 CODECOPY DUP2 ADD PUSH1 0x40 DUP2 SWAP1 MSTORE PUSH3 0x35 SWAP2 PUSH3 0x1C9 JUMP JUMPDEST PUSH3 0x40 CALLER PUSH3 0x15C JUMP JUMPDEST PUSH1 0x1 DUP1 SSTORE CHAINID PUSH2 0x2105 EQ DUP1 PUSH3 0x57 JUMPI POP PUSH3 0x14A34 CHAINID EQ JUMPDEST DUP1 PUSH3 0x65 JUMPI POP PUSH3 0x14A33 CHAINID EQ JUMPDEST PUSH3 0xC7 JUMPI PUSH1 0x40 MLOAD PUSH3 0x461BCD PUSH1 0xE5 SHL DUP2 MSTORE PUSH1 0x20 PUSH1 0x4 DUP3 ADD MSTORE PUSH1 0x27 PUSH1 0x24 DUP3 ADD MSTORE PUSH32 0x53706C6974526F757465723A204F6E6C7920776F726B73206F6E204261736520 PUSH1 0x44 DUP3 ADD MSTORE PUSH7 0x6E6574776F726B PUSH1 0xC8 SHL PUSH1 0x64 DUP3 ADD MSTORE PUSH1 0x84 ADD JUMPDEST PUSH1 0x40 MLOAD DUP1 SWAP2 SUB SWAP1 REVERT JUMPDEST PUSH1 0x1 PUSH1 0x1 PUSH1 0xA0 SHL SUB DUP2 AND PUSH3 0x114 JUMPI PUSH1 0x40 MLOAD PUSH3 0x461BCD PUSH1 0xE5 SHL DUP2 MSTORE PUSH1 0x20 PUSH1 0x4 DUP3 ADD MSTORE PUSH1 0x12 PUSH1 0x24 DUP3 ADD MSTORE PUSH18 0x125B9D985B1A590819195D881DD85B1B195D PUSH1 0x72 SHL PUSH1 0x44 DUP3 ADD MSTORE PUSH1 0x64 ADD PUSH3 0xBE JUMP JUMPDEST PUSH1 0x1 PUSH1 0x1 PUSH1 0xA0 SHL SUB SWAP7 DUP8 AND PUSH1 0xA0 MSTORE SWAP5 DUP7 AND PUSH1 0xC0 MSTORE SWAP3 DUP6 AND PUSH1 0xE0 MSTORE SWAP1 DUP5 AND PUSH2 0x100 DUP2 SWAP1 MSTORE SWAP1 DUP5 AND PUSH2 0x120 DUP2 SWAP1 MSTORE SWAP2 DUP5 AND PUSH2 0x140 MSTORE SWAP2 SWAP1 SWAP3 AND PUSH1 0x80 MSTORE PUSH2 0x160 MSTORE PUSH2 0x180 MSTORE PUSH3 0x25E JUMP JUMPDEST PUSH1 0x0 DUP1 SLOAD PUSH1 0x1 PUSH1 0x1 PUSH1 0xA0 SHL SUB DUP4 DUP2 AND PUSH1 0x1 PUSH1 0x1 PUSH1 0xA0 SHL SUB NOT DUP4 AND DUP2 OR DUP5 SSTORE PUSH1 0x40 MLOAD SWAP2 SWAP1 SWAP3 AND SWAP3 DUP4 SWAP2 PUSH32 0x8BE0079C531659141344CD1FD0A4F28419497F9722A3DAAFE3B4186F6B6457E0 SWAP2 SWAP1 LOG3 POP POP JUMP JUMPDEST DUP1 MLOAD PUSH1 0x1 PUSH1 0x1 PUSH1 0xA0 SHL SUB DUP2 AND DUP2 EQ PUSH3 0x1C4 JUMPI PUSH1 0x0 DUP1 REVERT JUMPDEST SWAP2 SWAP1 POP JUMP JUMPDEST PUSH1 0x0 DUP1 PUSH1 0x0 DUP1 PUSH1 0x0 DUP1 PUSH1 0x0 PUSH1 0xE0 DUP9 DUP11 SUB SLT ISZERO PUSH3 0x1E5 JUMPI PUSH1 0x0 DUP1 REVERT JUMPDEST PUSH3 0x1F0 DUP9 PUSH3 0x1AC JUMP JUMPDEST SWAP7 POP PUSH3 0x200 PUSH1 0x20 DUP10 ADD PUSH3 0x1AC JUMP JUMPDEST SWAP6 POP PUSH3 0x210 PUSH1 0x40 DUP10 ADD PUSH3 0x1AC JUMP JUMPDEST SWAP5 POP PUSH3 0x220 PUSH1 0x60 DUP10 ADD PUSH3 0x1AC JUMP JUMPDEST SWAP4 POP PUSH3 0x230 PUSH1 0x80 DUP10 ADD PUSH3 0x1AC JUMP JUMPDEST SWAP3 POP PUSH3 0x240 PUSH1 0xA0 DUP10 ADD PUSH3 0x1AC JUMP JUMPDEST SWAP2 POP PUSH3 0x250 PUSH1 0xC0 DUP10 ADD PUSH3 0x1AC JUMP JUMPDEST SWAP1 POP SWAP3 SWAP6 SWAP9 SWAP2 SWAP5 SWAP8 POP SWAP3 SWAP6 POP JUMP JUMPDEST PUSH1 0x80 MLOAD PUSH1 0xA0 MLOAD PUSH1 0xC0 MLOAD PUSH1 0xE0 MLOAD PUSH2 0x100 MLOAD PUSH2 0x120 MLOAD PUSH2 0x140 MLOAD PUSH2 0x160 MLOAD PUSH2 0x180 MLOAD PUSH2 0x22DC PUSH3 0x3AF PUSH1 0x0 CODECOPY PUSH1 0x0 DUP2 DUP2 PUSH2 0x3E1 ADD MSTORE DUP2 DUP2 PUSH2 0xD8B ADD MSTORE DUP2 DUP2 PUSH2 0xE70 ADD MSTORE DUP2 DUP2 PUSH2 0x1776 ADD MSTORE PUSH2 0x187F ADD MSTORE PUSH1 0x0 DUP2 DUP2 PUSH2 0x3BA ADD MSTORE DUP2 DUP2 PUSH2 0x1943 ADD MSTORE DUP2 DUP2 PUSH2 0x1A8F ADD MSTORE DUP2 DUP2 PUSH2 0x1BC3 ADD MSTORE PUSH2 0x1CF3 ADD MSTORE PUSH1 0x0 PUSH2 0x1D9 ADD MSTORE PUSH1 0x0 PUSH2 0x380 ADD MSTORE PUSH1 0x0 DUP2 DUP2 PUSH2 0x42B ADD MSTORE PUSH2 0x10CA ADD MSTORE PUSH1 0x0 PUSH2 0x21D ADD MSTORE PUSH1 0x0 DUP2 DUP2 PUSH2 0x359 ADD MSTORE DUP2 DUP2 PUSH2 0xCD2 ADD MSTORE DUP2 DUP2 PUSH2 0xD1D ADD MSTORE DUP2 DUP2 PUSH2 0x1149 ADD MSTORE DUP2 DUP2 PUSH2 0x1729 ADD MSTORE DUP2 DUP2 PUSH2 0x1811 ADD MSTORE DUP2 DUP2 PUSH2 0x190A ADD MSTORE DUP2 DUP2 PUSH2 0x197E ADD MSTORE DUP2 DUP2 PUSH2 0x1C0D ADD MSTORE PUSH2 0x1D2E ADD MSTORE PUSH1 0x0 DUP2 DUP2 PUSH2 0x452 ADD MSTORE DUP2 DUP2 PUSH2 0x621 ADD MSTORE DUP2 DUP2 PUSH2 0xB9B ADD MSTORE DUP2 DUP2 PUSH2 0xD42 ADD MSTORE DUP2 DUP2 PUSH2 0xE27 ADD MSTORE DUP2 DUP2 PUSH2 0x12F0 ADD MSTORE DUP2 DUP2 PUSH2 0x13FB ADD MSTORE DUP2 DUP2 PUSH2 0x14A1 ADD MSTORE DUP2 DUP2 PUSH2 0x155D ADD MSTORE DUP2 DUP2 PUSH2 0x15F0 ADD MSTORE DUP2 DUP2 PUSH2 0x1836 ADD MSTORE DUP2 DUP2 PUSH2 0x19AD ADD MSTORE DUP2 DUP2 PUSH2 0x1AD9 ADD MSTORE PUSH2 0x1D5D ADD MSTORE PUSH1 0x0 DUP2 DUP2 PUSH2 0x244 ADD MSTORE PUSH2 0x152E ADD MSTORE PUSH2 0x22DC PUSH1 0x0 RETURN INVALID PUSH1 0x80 PUSH1 0x40 MSTORE CALLVALUE DUP1 ISZERO PUSH2 0x10 JUMPI PUSH1 0x0 DUP1 REVERT JUMPDEST POP PUSH1 0x4 CALLDATASIZE LT PUSH2 0x1CF JUMPI PUSH1 0x0 CALLDATALOAD PUSH1 0xE0 SHR DUP1 PUSH4 0x8DA5CB5B GT PUSH2 0x104 JUMPI DUP1 PUSH4 0xD56D7F06 GT PUSH2 0xA2 JUMPI DUP1 PUSH4 0xEFC21E3F GT PUSH2 0x71 JUMPI DUP1 PUSH4 0xEFC21E3F EQ PUSH2 0x474 JUMPI DUP1 PUSH4 0xF1B09FC1 EQ PUSH2 0x47D JUMPI DUP1 PUSH4 0xF2FDE38B EQ PUSH2 0x487 JUMPI DUP1 PUSH4 0xF34A2CF6 EQ PUSH2 0x49A JUMPI PUSH1 0x0 DUP1 REVERT JUMPDEST DUP1 PUSH4 0xD56D7F06 EQ PUSH2 0x403 JUMPI DUP1 PUSH4 0xD73792A9 EQ PUSH2 0x41E JUMPI DUP1 PUSH4 0xD8264920 EQ PUSH2 0x426 JUMPI DUP1 PUSH4 0xEE7CF415 EQ PUSH2 0x44D JUMPI PUSH1 0x0 DUP1 REVERT JUMPDEST DUP1 PUSH4 0xB268630B GT PUSH2 0xDE JUMPI DUP1 PUSH4 0xB268630B EQ PUSH2 0x37B JUMPI DUP1 PUSH4 0xB492FC69 EQ PUSH2 0x3A2 JUMPI DUP1 PUSH4 0xC31C9C07 EQ PUSH2 0x3B5 JUMPI DUP1 PUSH4 0xC6BBD5A7 EQ PUSH2 0x3DC JUMPI PUSH1 0x0 DUP1 REVERT JUMPDEST DUP1 PUSH4 0x8DA5CB5B EQ PUSH2 0x33B JUMPI DUP1 PUSH4 0xA10EAA89 EQ PUSH2 0x34C JUMPI DUP1 PUSH4 0xAD5C4648 EQ PUSH2 0x354 JUMPI PUSH1 0x0 DUP1 REVERT JUMPDEST DUP1 PUSH4 0x4C28233F GT PUSH2 0x171 JUMPI DUP1 PUSH4 0x715018A6 GT PUSH2 0x14B JUMPI DUP1 PUSH4 0x715018A6 EQ PUSH2 0x2F7 JUMPI DUP1 PUSH4 0x77A59BB5 EQ PUSH2 0x2FF JUMPI DUP1 PUSH4 0x7FCF0717 EQ PUSH2 0x320 JUMPI DUP1 PUSH4 0x84536017 EQ PUSH2 0x333 JUMPI PUSH1 0x0 DUP1 REVERT JUMPDEST DUP1 PUSH4 0x4C28233F EQ PUSH2 0x2B2 JUMPI DUP1 PUSH4 0x4FCC1DEF EQ PUSH2 0x2C7 JUMPI DUP1 PUSH4 0x6FF1C9BC EQ PUSH2 0x2E4 JUMPI PUSH1 0x0 DUP1 REVERT JUMPDEST DUP1 PUSH4 0x34FBC9A1 GT PUSH2 0x1AD JUMPI DUP1 PUSH4 0x34FBC9A1 EQ PUSH2 0x266 JUMPI DUP1 PUSH4 0x367917E3 EQ PUSH2 0x27C JUMPI DUP1 PUSH4 0x3AD49222 EQ PUSH2 0x297 JUMPI DUP1 PUSH4 0x44DF4BE6 EQ PUSH2 0x2AA JUMPI PUSH1 0x0 DUP1 REVERT JUMPDEST DUP1 PUSH4 0x1BEA83FE EQ PUSH2 0x1D4 JUMPI DUP1 PUSH4 0x1D610577 EQ PUSH2 0x218 JUMPI DUP1 PUSH4 0x2D04F820 EQ PUSH2 0x23F JUMPI JUMPDEST PUSH1 0x0 DUP1 REVERT JUMPDEST PUSH2 0x1FB PUSH32 0x0 DUP2 JUMP JUMPDEST PUSH1 0x40 MLOAD PUSH1 0x1 PUSH1 0x1 PUSH1 0xA0 SHL SUB SWAP1 SWAP2 AND DUP2 MSTORE PUSH1 0x20 ADD JUMPDEST PUSH1 0x40 MLOAD DUP1 SWAP2 SUB SWAP1 RETURN JUMPDEST PUSH2 0x1FB PUSH32 0x0 DUP2 JUMP JUMPDEST PUSH2 0x1FB PUSH32 0x0 DUP2 JUMP JUMPDEST PUSH2 0x26E PUSH1 0x2 DUP2 JUMP JUMPDEST PUSH1 0x40 MLOAD SWAP1 DUP2 MSTORE PUSH1 0x20 ADD PUSH2 0x20F JUMP JUMPDEST PUSH2 0x1FB PUSH20 0xD2A963866BD6D8DE525AC726AC79DDF46C287486 DUP2 JUMP JUMPDEST PUSH2 0x26E PUSH2 0x2A5 CALLDATASIZE PUSH1 0x4 PUSH2 0x1E59 JUMP JUMPDEST PUSH2 0x4A4 JUMP JUMPDEST PUSH2 0x26E PUSH1 0x12 DUP2 JUMP JUMPDEST PUSH2 0x2C5 PUSH2 0x2C0 CALLDATASIZE PUSH1 0x4 PUSH2 0x1EC0 JUMP JUMPDEST PUSH2 0x51B JUMP JUMPDEST STOP JUMPDEST PUSH2 0x2D0 PUSH2 0x2710 DUP2 JUMP JUMPDEST PUSH1 0x40 MLOAD PUSH3 0xFFFFFF SWAP1 SWAP2 AND DUP2 MSTORE PUSH1 0x20 ADD PUSH2 0x20F JUMP JUMPDEST PUSH2 0x2C5 PUSH2 0x2F2 CALLDATASIZE PUSH1 0x4 PUSH2 0x1E59 JUMP JUMPDEST PUSH2 0x883 JUMP JUMPDEST PUSH2 0x2C5 PUSH2 0x98F JUMP JUMPDEST PUSH2 0x312 PUSH2 0x30D CALLDATASIZE PUSH1 0x4 PUSH2 0x1F34 JUMP JUMPDEST PUSH2 0x9A3 JUMP JUMPDEST PUSH1 0x40 MLOAD PUSH2 0x20F SWAP3 SWAP2 SWAP1 PUSH2 0x1FA0 JUMP JUMPDEST PUSH2 0x2C5 PUSH2 0x32E CALLDATASIZE PUSH1 0x4 PUSH2 0x1FEE JUMP JUMPDEST PUSH2 0xB46 JUMP JUMPDEST PUSH2 0x2C5 PUSH2 0xC77 JUMP JUMPDEST PUSH1 0x0 SLOAD PUSH1 0x1 PUSH1 0x1 PUSH1 0xA0 SHL SUB AND PUSH2 0x1FB JUMP JUMPDEST PUSH2 0x26E PUSH1 0x50 DUP2 JUMP JUMPDEST PUSH2 0x1FB PUSH32 0x0 DUP2 JUMP JUMPDEST PUSH2 0x1FB PUSH32 0x0 DUP2 JUMP JUMPDEST PUSH2 0x26E PUSH2 0x3B0 CALLDATASIZE PUSH1 0x4 PUSH2 0x2021 JUMP JUMPDEST PUSH2 0xCCE JUMP JUMPDEST PUSH2 0x1FB PUSH32 0x0 DUP2 JUMP JUMPDEST PUSH2 0x1FB PUSH32 0x0 DUP2 JUMP JUMPDEST PUSH2 0x1FB PUSH20 0xCC28456D4FF980CEE3457CA809A257E52CD9CDB0 DUP2 JUMP JUMPDEST PUSH2 0x26E PUSH1 0x64 DUP2 JUMP JUMPDEST PUSH2 0x1FB PUSH32 0x0 DUP2 JUMP JUMPDEST PUSH2 0x1FB PUSH32 0x0 DUP2 JUMP JUMPDEST PUSH2 0x26E PUSH2 0x2105 DUP2 JUMP JUMPDEST PUSH2 0x26E PUSH3 0x14A34 DUP2 JUMP JUMPDEST PUSH2 0x2C5 PUSH2 0x495 CALLDATASIZE PUSH1 0x4 PUSH2 0x1E59 JUMP JUMPDEST PUSH2 0xEF7 JUMP JUMPDEST PUSH2 0x26E PUSH3 0x14A33 DUP2 JUMP JUMPDEST PUSH1 0x0 DUP1 DUP3 PUSH1 0x1 PUSH1 0x1 PUSH1 0xA0 SHL SUB AND PUSH4 0x313CE567 PUSH1 0x40 MLOAD DUP2 PUSH4 0xFFFFFFFF AND PUSH1 0xE0 SHL DUP2 MSTORE PUSH1 0x4 ADD PUSH1 0x20 PUSH1 0x40 MLOAD DUP1 DUP4 SUB DUP2 DUP7 GAS STATICCALL ISZERO DUP1 ISZERO PUSH2 0x4E5 JUMPI RETURNDATASIZE PUSH1 0x0 DUP1 RETURNDATACOPY RETURNDATASIZE PUSH1 0x0 REVERT JUMPDEST POP POP POP POP PUSH1 0x40 MLOAD RETURNDATASIZE PUSH1 0x1F NOT PUSH1 0x1F DUP3 ADD AND DUP3 ADD DUP1 PUSH1 0x40 MSTORE POP DUP2 ADD SWAP1 PUSH2 0x509 SWAP2 SWAP1 PUSH2 0x204B JUMP JUMPDEST SWAP1 POP PUSH2 0x514 DUP2 PUSH2 0xF70 JUMP JUMPDEST SWAP4 SWAP3 POP POP POP JUMP JUMPDEST PUSH2 0x523 PUSH2 0xFC2 JUMP JUMPDEST DUP4 DUP3 EQ PUSH2 0x543 JUMPI PUSH1 0x40 MLOAD PUSH4 0x7E11ACB PUSH1 0xE5 SHL DUP2 MSTORE PUSH1 0x4 ADD PUSH1 0x40 MLOAD DUP1 SWAP2 SUB SWAP1 REVERT JUMPDEST PUSH1 0x0 DUP5 SWAP1 SUB PUSH2 0x565 JUMPI PUSH1 0x40 MLOAD PUSH4 0xA600C81D PUSH1 0xE0 SHL DUP2 MSTORE PUSH1 0x4 ADD PUSH1 0x40 MLOAD DUP1 SWAP2 SUB SWAP1 REVERT JUMPDEST PUSH1 0x0 DUP1 JUMPDEST DUP6 DUP2 LT ISZERO PUSH2 0x7F4 JUMPI PUSH1 0x0 DUP8 DUP8 DUP4 DUP2 DUP2 LT PUSH2 0x585 JUMPI PUSH2 0x585 PUSH2 0x206E JUMP JUMPDEST SWAP1 POP PUSH1 0x20 MUL ADD PUSH1 0x20 DUP2 ADD SWAP1 PUSH2 0x59A SWAP2 SWAP1 PUSH2 0x1E59 JUMP JUMPDEST PUSH1 0x1 PUSH1 0x1 PUSH1 0xA0 SHL SUB AND SUB PUSH2 0x5C1 JUMPI PUSH1 0x40 MLOAD PUSH4 0xF580583 PUSH1 0xE1 SHL DUP2 MSTORE PUSH1 0x4 ADD PUSH1 0x40 MLOAD DUP1 SWAP2 SUB SWAP1 REVERT JUMPDEST DUP5 DUP5 DUP3 DUP2 DUP2 LT PUSH2 0x5D3 JUMPI PUSH2 0x5D3 PUSH2 0x206E JUMP JUMPDEST SWAP1 POP PUSH1 0x20 MUL ADD CALLDATALOAD PUSH1 0x0 SUB PUSH2 0x61F JUMPI DUP5 DUP5 DUP3 DUP2 DUP2 LT PUSH2 0x5F3 JUMPI PUSH2 0x5F3 PUSH2 0x206E JUMP JUMPDEST SWAP1 POP PUSH1 0x20 MUL ADD CALLDATALOAD PUSH1 0x40 MLOAD PUSH4 0x717D7485 PUSH1 0xE1 SHL DUP2 MSTORE PUSH1 0x4 ADD PUSH2 0x616 SWAP2 DUP2 MSTORE PUSH1 0x20 ADD SWAP1 JUMP JUMPDEST PUSH1 0x40 MLOAD DUP1 SWAP2 SUB SWAP1 REVERT JUMPDEST PUSH32 0x0 PUSH1 0x1 PUSH1 0x1 PUSH1 0xA0 SHL SUB AND DUP8 DUP8 DUP4 DUP2 DUP2 LT PUSH2 0x65B JUMPI PUSH2 0x65B PUSH2 0x206E JUMP JUMPDEST SWAP1 POP PUSH1 0x20 MUL ADD PUSH1 0x20 DUP2 ADD SWAP1 PUSH2 0x670 SWAP2 SWAP1 PUSH2 0x1E59 JUMP JUMPDEST PUSH1 0x1 PUSH1 0x1 PUSH1 0xA0 SHL SUB AND SUB PUSH2 0x697 JUMPI PUSH1 0x40 MLOAD PUSH4 0x2F6BD91 PUSH1 0xE0 SHL DUP2 MSTORE PUSH1 0x4 ADD PUSH1 0x40 MLOAD DUP1 SWAP2 SUB SWAP1 REVERT JUMPDEST DUP7 DUP7 DUP3 DUP2 DUP2 LT PUSH2 0x6A9 JUMPI PUSH2 0x6A9 PUSH2 0x206E JUMP JUMPDEST SWAP1 POP PUSH1 0x20 MUL ADD PUSH1 0x20 DUP2 ADD SWAP1 PUSH2 0x6BE SWAP2 SWAP1 PUSH2 0x1E59 JUMP JUMPDEST PUSH1 0x1 PUSH1 0x1 PUSH1 0xA0 SHL SUB AND PUSH4 0x23B872DD CALLER ADDRESS DUP9 DUP9 DUP7 DUP2 DUP2 LT PUSH2 0x6E0 JUMPI PUSH2 0x6E0 PUSH2 0x206E JUMP JUMPDEST PUSH1 0x40 MLOAD PUSH1 0x1 PUSH1 0x1 PUSH1 0xE0 SHL SUB NOT PUSH1 0xE0 DUP9 SWAP1 SHL AND DUP2 MSTORE PUSH1 0x1 PUSH1 0x1 PUSH1 0xA0 SHL SUB SWAP6 DUP7 AND PUSH1 0x4 DUP3 ADD MSTORE SWAP5 SWAP1 SWAP4 AND PUSH1 0x24 DUP6 ADD MSTORE POP PUSH1 0x20 SWAP1 SWAP2 MUL ADD CALLDATALOAD PUSH1 0x44 DUP3 ADD MSTORE PUSH1 0x64 ADD PUSH1 0x20 PUSH1 0x40 MLOAD DUP1 DUP4 SUB DUP2 PUSH1 0x0 DUP8 GAS CALL ISZERO DUP1 ISZERO PUSH2 0x73C JUMPI RETURNDATASIZE PUSH1 0x0 DUP1 RETURNDATACOPY RETURNDATASIZE PUSH1 0x0 REVERT JUMPDEST POP POP POP POP PUSH1 0x40 MLOAD RETURNDATASIZE PUSH1 0x1F NOT PUSH1 0x1F DUP3 ADD AND DUP3 ADD DUP1 PUSH1 0x40 MSTORE POP DUP2 ADD SWAP1 PUSH2 0x760 SWAP2 SWAP1 PUSH2 0x2084 JUMP JUMPDEST POP PUSH1 0x0 PUSH2 0x7AD DUP9 DUP9 DUP5 DUP2 DUP2 LT PUSH2 0x778 JUMPI PUSH2 0x778 PUSH2 0x206E JUMP JUMPDEST SWAP1 POP PUSH1 0x20 MUL ADD PUSH1 0x20 DUP2 ADD SWAP1 PUSH2 0x78D SWAP2 SWAP1 PUSH2 0x1E59 JUMP JUMPDEST DUP8 DUP8 DUP6 DUP2 DUP2 LT PUSH2 0x79F JUMPI PUSH2 0x79F PUSH2 0x206E JUMP JUMPDEST SWAP1 POP PUSH1 0x20 MUL ADD CALLDATALOAD PUSH1 0x0 PUSH2 0x101B JUMP JUMPDEST SWAP1 POP PUSH1 0x0 PUSH2 0x7BB DUP3 DUP6 PUSH2 0x20BC JUMP JUMPDEST SWAP1 POP DUP4 DUP2 LT ISZERO PUSH2 0x7DE JUMPI PUSH1 0x40 MLOAD PUSH4 0x391FB01D PUSH1 0xE2 SHL DUP2 MSTORE PUSH1 0x4 ADD PUSH1 0x40 MLOAD DUP1 SWAP2 SUB SWAP1 REVERT JUMPDEST SWAP3 POP DUP2 SWAP1 POP PUSH2 0x7EC DUP2 PUSH2 0x20CF JUMP JUMPDEST SWAP2 POP POP PUSH2 0x569 JUMP JUMPDEST POP DUP2 DUP2 LT ISZERO PUSH2 0x820 JUMPI PUSH1 0x40 MLOAD PUSH4 0xD28D3EB5 PUSH1 0xE0 SHL DUP2 MSTORE PUSH1 0x4 DUP2 ADD DUP4 SWAP1 MSTORE PUSH1 0x24 DUP2 ADD DUP3 SWAP1 MSTORE PUSH1 0x44 ADD PUSH2 0x616 JUMP JUMPDEST PUSH2 0x829 DUP2 PUSH2 0x124E JUMP JUMPDEST CALLER PUSH1 0x1 PUSH1 0x1 PUSH1 0xA0 SHL SUB AND PUSH32 0xDD462561BA2CA14DAFDDE5E05EFAEFA8717B9A0ED58D4D819BF92EAD715916B0 DUP8 DUP8 DUP8 DUP8 DUP7 PUSH1 0x40 MLOAD PUSH2 0x86A SWAP6 SWAP5 SWAP4 SWAP3 SWAP2 SWAP1 PUSH2 0x20E8 JUMP JUMPDEST PUSH1 0x40 MLOAD DUP1 SWAP2 SUB SWAP1 LOG2 POP PUSH2 0x87C PUSH1 0x1 DUP1 SSTORE JUMP JUMPDEST POP POP POP POP POP JUMP JUMPDEST PUSH2 0x88B PUSH2 0x1648 JUMP JUMPDEST PUSH1 0x40 MLOAD PUSH4 0x70A08231 PUSH1 0xE0 SHL DUP2 MSTORE ADDRESS PUSH1 0x4 DUP3 ADD MSTORE PUSH1 0x0 SWAP1 PUSH1 0x1 PUSH1 0x1 PUSH1 0xA0 SHL SUB DUP4 AND SWAP1 PUSH4 0x70A08231 SWAP1 PUSH1 0x24 ADD PUSH1 0x20 PUSH1 0x40 MLOAD DUP1 DUP4 SUB DUP2 DUP7 GAS STATICCALL ISZERO DUP1 ISZERO PUSH2 0x8D2 JUMPI RETURNDATASIZE PUSH1 0x0 DUP1 RETURNDATACOPY RETURNDATASIZE PUSH1 0x0 REVERT JUMPDEST POP POP POP POP PUSH1 0x40 MLOAD RETURNDATASIZE PUSH1 0x1F NOT PUSH1 0x1F DUP3 ADD AND DUP3 ADD DUP1 PUSH1 0x40 MSTORE POP DUP2 ADD SWAP1 PUSH2 0x8F6 SWAP2 SWAP1 PUSH2 0x216D JUMP JUMPDEST SWAP1 POP DUP2 PUSH1 0x1 PUSH1 0x1 PUSH1 0xA0 SHL SUB AND PUSH4 0xA9059CBB PUSH2 0x919 PUSH1 0x0 SLOAD PUSH1 0x1 PUSH1 0x1 PUSH1 0xA0 SHL SUB AND SWAP1 JUMP JUMPDEST PUSH1 0x40 MLOAD PUSH1 0x1 PUSH1 0x1 PUSH1 0xE0 SHL SUB NOT PUSH1 0xE0 DUP5 SWAP1 SHL AND DUP2 MSTORE PUSH1 0x1 PUSH1 0x1 PUSH1 0xA0 SHL SUB SWAP1 SWAP2 AND PUSH1 0x4 DUP3 ADD MSTORE PUSH1 0x24 DUP2 ADD DUP5 SWAP1 MSTORE PUSH1 0x44 ADD PUSH1 0x20 PUSH1 0x40 MLOAD DUP1 DUP4 SUB DUP2 PUSH1 0x0 DUP8 GAS CALL ISZERO DUP1 ISZERO PUSH2 0x966 JUMPI RETURNDATASIZE PUSH1 0x0 DUP1 RETURNDATACOPY RETURNDATASIZE PUSH1 0x0 REVERT JUMPDEST POP POP POP POP PUSH1 0x40 MLOAD RETURNDATASIZE PUSH1 0x1F NOT PUSH1 0x1F DUP3 ADD AND DUP3 ADD DUP1 PUSH1 0x40 MSTORE POP DUP2 ADD SWAP1 PUSH2 0x98A SWAP2 SWAP1 PUSH2 0x2084 JUMP JUMPDEST POP POP POP JUMP JUMPDEST PUSH2 0x997 PUSH2 0x1648 JUMP JUMPDEST PUSH2 0x9A1 PUSH1 0x0 PUSH2 0x16A2 JUMP JUMPDEST JUMP JUMPDEST PUSH1 0x0 PUSH1 0x60 DUP5 DUP4 EQ PUSH2 0x9EF JUMPI PUSH1 0x40 MLOAD PUSH3 0x461BCD PUSH1 0xE5 SHL DUP2 MSTORE PUSH1 0x20 PUSH1 0x4 DUP3 ADD MSTORE PUSH1 0x16 PUSH1 0x24 DUP3 ADD MSTORE PUSH22 0x82E4E4C2F2E640D8CADCCEE8D040DAD2E6DAC2E8C6D PUSH1 0x53 SHL PUSH1 0x44 DUP3 ADD MSTORE PUSH1 0x64 ADD PUSH2 0x616 JUMP JUMPDEST DUP5 PUSH8 0xFFFFFFFFFFFFFFFF DUP2 GT ISZERO PUSH2 0xA08 JUMPI PUSH2 0xA08 PUSH2 0x2186 JUMP JUMPDEST PUSH1 0x40 MLOAD SWAP1 DUP1 DUP3 MSTORE DUP1 PUSH1 0x20 MUL PUSH1 0x20 ADD DUP3 ADD PUSH1 0x40 MSTORE DUP1 ISZERO PUSH2 0xA31 JUMPI DUP2 PUSH1 0x20 ADD PUSH1 0x20 DUP3 MUL DUP1 CALLDATASIZE DUP4 CALLDATACOPY ADD SWAP1 POP JUMPDEST POP SWAP1 POP PUSH1 0x0 SWAP2 POP PUSH1 0x0 JUMPDEST DUP6 DUP2 LT ISZERO PUSH2 0xB3C JUMPI PUSH1 0x0 ADDRESS PUSH4 0xB492FC69 DUP10 DUP10 DUP6 DUP2 DUP2 LT PUSH2 0xA5D JUMPI PUSH2 0xA5D PUSH2 0x206E JUMP JUMPDEST SWAP1 POP PUSH1 0x20 MUL ADD PUSH1 0x20 DUP2 ADD SWAP1 PUSH2 0xA72 SWAP2 SWAP1 PUSH2 0x1E59 JUMP JUMPDEST DUP9 DUP9 DUP7 DUP2 DUP2 LT PUSH2 0xA84 JUMPI PUSH2 0xA84 PUSH2 0x206E JUMP JUMPDEST PUSH1 0x40 MLOAD PUSH1 0x1 PUSH1 0x1 PUSH1 0xE0 SHL SUB NOT PUSH1 0xE0 DUP8 SWAP1 SHL AND DUP2 MSTORE PUSH1 0x1 PUSH1 0x1 PUSH1 0xA0 SHL SUB SWAP1 SWAP5 AND PUSH1 0x4 DUP6 ADD MSTORE PUSH1 0x20 MUL SWAP2 SWAP1 SWAP2 ADD CALLDATALOAD PUSH1 0x24 DUP4 ADD MSTORE POP PUSH1 0x44 ADD PUSH1 0x20 PUSH1 0x40 MLOAD DUP1 DUP4 SUB DUP2 PUSH1 0x0 DUP8 GAS CALL ISZERO DUP1 ISZERO PUSH2 0xAD8 JUMPI RETURNDATASIZE PUSH1 0x0 DUP1 RETURNDATACOPY RETURNDATASIZE PUSH1 0x0 REVERT JUMPDEST POP POP POP POP PUSH1 0x40 MLOAD RETURNDATASIZE PUSH1 0x1F NOT PUSH1 0x1F DUP3 ADD AND DUP3 ADD DUP1 PUSH1 0x40 MSTORE POP DUP2 ADD SWAP1 PUSH2 0xAFC SWAP2 SWAP1 PUSH2 0x216D JUMP JUMPDEST SWAP1 POP DUP1 DUP4 DUP4 DUP2 MLOAD DUP2 LT PUSH2 0xB11 JUMPI PUSH2 0xB11 PUSH2 0x206E JUMP JUMPDEST PUSH1 0x20 SWAP1 DUP2 MUL SWAP2 SWAP1 SWAP2 ADD ADD MSTORE PUSH2 0xB26 DUP2 DUP6 PUSH2 0x20BC JUMP JUMPDEST SWAP4 POP POP DUP1 DUP1 PUSH2 0xB34 SWAP1 PUSH2 0x20CF JUMP JUMPDEST SWAP2 POP POP PUSH2 0xA3B JUMP JUMPDEST POP SWAP5 POP SWAP5 SWAP3 POP POP POP JUMP JUMPDEST PUSH2 0xB4E PUSH2 0xFC2 JUMP JUMPDEST PUSH1 0x1 PUSH1 0x1 PUSH1 0xA0 SHL SUB DUP4 AND PUSH2 0xB75 JUMPI PUSH1 0x40 MLOAD PUSH4 0xF580583 PUSH1 0xE1 SHL DUP2 MSTORE PUSH1 0x4 ADD PUSH1 0x40 MLOAD DUP1 SWAP2 SUB SWAP1 REVERT JUMPDEST DUP2 PUSH1 0x0 SUB PUSH2 0xB99 JUMPI PUSH1 0x40 MLOAD PUSH4 0x717D7485 PUSH1 0xE1 SHL DUP2 MSTORE PUSH1 0x4 DUP2 ADD DUP4 SWAP1 MSTORE PUSH1 0x24 ADD PUSH2 0x616 JUMP JUMPDEST PUSH32 0x0 PUSH1 0x1 PUSH1 0x1 PUSH1 0xA0 SHL SUB AND DUP4 PUSH1 0x1 PUSH1 0x1 PUSH1 0xA0 SHL SUB AND SUB PUSH2 0xBEB JUMPI PUSH1 0x40 MLOAD PUSH4 0x2F6BD91 PUSH1 0xE0 SHL DUP2 MSTORE PUSH1 0x4 ADD PUSH1 0x40 MLOAD DUP1 SWAP2 SUB SWAP1 REVERT JUMPDEST PUSH1 0x40 MLOAD PUSH4 0x23B872DD PUSH1 0xE0 SHL DUP2 MSTORE CALLER PUSH1 0x4 DUP3 ADD MSTORE ADDRESS PUSH1 0x24 DUP3 ADD MSTORE PUSH1 0x44 DUP2 ADD DUP4 SWAP1 MSTORE PUSH1 0x1 PUSH1 0x1 PUSH1 0xA0 SHL SUB DUP5 AND SWAP1 PUSH4 0x23B872DD SWAP1 PUSH1 0x64 ADD PUSH1 0x20 PUSH1 0x40 MLOAD DUP1 DUP4 SUB DUP2 PUSH1 0x0 DUP8 GAS CALL ISZERO DUP1 ISZERO PUSH2 0xC3E JUMPI RETURNDATASIZE PUSH1 0x0 DUP1 RETURNDATACOPY RETURNDATASIZE PUSH1 0x0 REVERT JUMPDEST POP POP POP POP PUSH1 0x40 MLOAD RETURNDATASIZE PUSH1 0x1F NOT PUSH1 0x1F DUP3 ADD AND DUP3 ADD DUP1 PUSH1 0x40 MSTORE POP DUP2 ADD SWAP1 PUSH2 0xC62 SWAP2 SWAP1 PUSH2 0x2084 JUMP JUMPDEST POP PUSH2 0xC6E DUP4 DUP4 DUP4 PUSH2 0x16F2 JUMP JUMPDEST PUSH2 0x98A PUSH1 0x1 DUP1 SSTORE JUMP JUMPDEST PUSH2 0xC7F PUSH2 0x1648 JUMP JUMPDEST SELFBALANCE PUSH2 0xC92 PUSH1 0x0 SLOAD PUSH1 0x1 PUSH1 0x1 PUSH1 0xA0 SHL SUB AND SWAP1 JUMP JUMPDEST PUSH1 0x1 PUSH1 0x1 PUSH1 0xA0 SHL SUB AND PUSH2 0x8FC DUP3 SWAP1 DUP2 ISZERO MUL SWAP1 PUSH1 0x40 MLOAD PUSH1 0x0 PUSH1 0x40 MLOAD DUP1 DUP4 SUB DUP2 DUP6 DUP9 DUP9 CALL SWAP4 POP POP POP POP ISZERO DUP1 ISZERO PUSH2 0xCCA JUMPI RETURNDATASIZE PUSH1 0x0 DUP1 RETURNDATACOPY RETURNDATASIZE PUSH1 0x0 REVERT JUMPDEST POP POP JUMP JUMPDEST PUSH1 0x0 PUSH32 0x0 PUSH1 0x1 PUSH1 0x1 PUSH1 0xA0 SHL SUB AND DUP4 PUSH1 0x1 PUSH1 0x1 PUSH1 0xA0 SHL SUB AND SUB PUSH2 0xE0E JUMPI PUSH1 0x40 DUP1 MLOAD PUSH1 0xA0 DUP2 ADD DUP3 MSTORE PUSH1 0x1 PUSH1 0x1 PUSH1 0xA0 SHL SUB PUSH32 0x0 DUP2 AND DUP3 MSTORE PUSH32 0x0 DUP2 AND PUSH1 0x20 DUP4 ADD MSTORE PUSH2 0x2710 DUP3 DUP5 ADD MSTORE PUSH1 0x60 DUP3 ADD DUP6 SWAP1 MSTORE PUSH1 0x0 PUSH1 0x80 DUP4 ADD MSTORE SWAP2 MLOAD PUSH4 0x59D88DBF PUSH1 0xE1 SHL DUP2 MSTORE PUSH32 0x0 SWAP1 SWAP3 AND SWAP2 PUSH4 0xB3B11B7E SWAP2 PUSH2 0xDC0 SWAP2 PUSH1 0x4 ADD PUSH2 0x219C JUMP JUMPDEST PUSH1 0x20 PUSH1 0x40 MLOAD DUP1 DUP4 SUB DUP2 PUSH1 0x0 DUP8 GAS CALL SWAP3 POP POP POP DUP1 ISZERO PUSH2 0xDFB JUMPI POP PUSH1 0x40 DUP1 MLOAD PUSH1 0x1F RETURNDATASIZE SWAP1 DUP2 ADD PUSH1 0x1F NOT AND DUP3 ADD SWAP1 SWAP3 MSTORE PUSH2 0xDF8 SWAP2 DUP2 ADD SWAP1 PUSH2 0x216D JUMP JUMPDEST PUSH1 0x1 JUMPDEST PUSH2 0xE07 JUMPI POP PUSH1 0x0 PUSH2 0xEF1 JUMP JUMPDEST SWAP1 POP PUSH2 0xEF1 JUMP JUMPDEST PUSH1 0x40 DUP1 MLOAD PUSH1 0xA0 DUP2 ADD DUP3 MSTORE PUSH1 0x1 PUSH1 0x1 PUSH1 0xA0 SHL SUB DUP6 DUP2 AND DUP3 MSTORE PUSH32 0x0 DUP2 AND PUSH1 0x20 DUP4 ADD MSTORE PUSH2 0x2710 DUP3 DUP5 ADD MSTORE PUSH1 0x60 DUP3 ADD DUP6 SWAP1 MSTORE PUSH1 0x0 PUSH1 0x80 DUP4 ADD MSTORE SWAP2 MLOAD PUSH4 0x59D88DBF PUSH1 0xE1 SHL DUP2 MSTORE PUSH32 0x0 SWAP1 SWAP3 AND SWAP2 PUSH4 0xB3B11B7E SWAP2 PUSH2 0xEA5 SWAP2 PUSH1 0x4 ADD PUSH2 0x219C JUMP JUMPDEST PUSH1 0x20 PUSH1 0x40 MLOAD DUP1 DUP4 SUB DUP2 PUSH1 0x0 DUP8 GAS CALL SWAP3 POP POP POP DUP1 ISZERO PUSH2 0xEE0 JUMPI POP PUSH1 0x40 DUP1 MLOAD PUSH1 0x1F RETURNDATASIZE SWAP1 DUP2 ADD PUSH1 0x1F NOT AND DUP3 ADD SWAP1 SWAP3 MSTORE PUSH2 0xEDD SWAP2 DUP2 ADD SWAP1 PUSH2 0x216D JUMP JUMPDEST PUSH1 0x1 JUMPDEST PUSH2 0xEEE JUMPI PUSH2 0xE07 DUP4 DUP4 PUSH2 0x1710 JUMP JUMPDEST SWAP1 POP JUMPDEST SWAP3 SWAP2 POP POP JUMP JUMPDEST PUSH2 0xEFF PUSH2 0x1648 JUMP JUMPDEST PUSH1 0x1 PUSH1 0x1 PUSH1 0xA0 SHL SUB DUP2 AND PUSH2 0xF64 JUMPI PUSH1 0x40 MLOAD PUSH3 0x461BCD PUSH1 0xE5 SHL DUP2 MSTORE PUSH1 0x20 PUSH1 0x4 DUP3 ADD MSTORE PUSH1 0x26 PUSH1 0x24 DUP3 ADD MSTORE PUSH32 0x4F776E61626C653A206E6577206F776E657220697320746865207A65726F2061 PUSH1 0x44 DUP3 ADD MSTORE PUSH6 0x646472657373 PUSH1 0xD0 SHL PUSH1 0x64 DUP3 ADD MSTORE PUSH1 0x84 ADD PUSH2 0x616 JUMP JUMPDEST PUSH2 0xF6D DUP2 PUSH2 0x16A2 JUMP JUMPDEST POP JUMP JUMPDEST PUSH1 0x0 PUSH1 0x12 DUP3 PUSH1 0xFF AND LT PUSH2 0xF8A JUMPI POP PUSH6 0x5AF3107A4000 SWAP2 SWAP1 POP JUMP JUMPDEST PUSH1 0xC DUP3 PUSH1 0xFF AND LT PUSH2 0xFA0 JUMPI POP PUSH4 0x5F5E100 SWAP2 SWAP1 POP JUMP JUMPDEST PUSH1 0x6 DUP3 PUSH1 0xFF AND LT PUSH2 0xFB5 JUMPI POP PUSH3 0x186A0 SWAP2 SWAP1 POP JUMP JUMPDEST POP PUSH1 0x64 SWAP2 SWAP1 POP JUMP JUMPDEST SWAP2 SWAP1 POP JUMP JUMPDEST PUSH1 0x2 PUSH1 0x1 SLOAD SUB PUSH2 0x1014 JUMPI PUSH1 0x40 MLOAD PUSH3 0x461BCD PUSH1 0xE5 SHL DUP2 MSTORE PUSH1 0x20 PUSH1 0x4 DUP3 ADD MSTORE PUSH1 0x1F PUSH1 0x24 DUP3 ADD MSTORE PUSH32 0x5265656E7472616E637947756172643A207265656E7472616E742063616C6C00 PUSH1 0x44 DUP3 ADD MSTORE PUSH1 0x64 ADD PUSH2 0x616 JUMP JUMPDEST PUSH1 0x2 PUSH1 0x1 SSTORE JUMP JUMPDEST PUSH1 0x0 DUP1 DUP5 PUSH1 0x1 PUSH1 0x1 PUSH1 0xA0 SHL SUB AND PUSH4 0x313CE567 PUSH1 0x40 MLOAD DUP2 PUSH4 0xFFFFFFFF AND PUSH1 0xE0 SHL DUP2 MSTORE PUSH1 0x4 ADD PUSH1 0x20 PUSH1 0x40 MLOAD DUP1 DUP4 SUB DUP2 DUP7 GAS STATICCALL ISZERO DUP1 ISZERO PUSH2 0x105C JUMPI RETURNDATASIZE PUSH1 0x0 DUP1 RETURNDATACOPY RETURNDATASIZE PUSH1 0x0 REVERT JUMPDEST POP POP POP POP PUSH1 0x40 MLOAD RETURNDATASIZE PUSH1 0x1F NOT PUSH1 0x1F DUP3 ADD AND DUP3 ADD DUP1 PUSH1 0x40 MSTORE POP DUP2 ADD SWAP1 PUSH2 0x1080 SWAP2 SWAP1 PUSH2 0x204B JUMP JUMPDEST SWAP1 POP PUSH1 0x0 PUSH2 0x108D DUP3 PUSH2 0xF70 JUMP JUMPDEST SWAP1 POP DUP1 DUP6 LT ISZERO PUSH2 0x10B3 JUMPI PUSH1 0x40 MLOAD PUSH4 0x717D7485 PUSH1 0xE1 SHL DUP2 MSTORE PUSH1 0x4 DUP2 ADD DUP7 SWAP1 MSTORE PUSH1 0x24 ADD PUSH2 0x616 JUMP JUMPDEST PUSH1 0x40 MLOAD PUSH4 0x95EA7B3 PUSH1 0xE0 SHL DUP2 MSTORE PUSH1 0x1 PUSH1 0x1 PUSH1 0xA0 SHL SUB PUSH32 0x0 DUP2 AND PUSH1 0x4 DUP4 ADD MSTORE PUSH1 0x24 DUP3 ADD DUP8 SWAP1 MSTORE DUP8 AND SWAP1 PUSH4 0x95EA7B3 SWAP1 PUSH1 0x44 ADD PUSH1 0x20 PUSH1 0x40 MLOAD DUP1 DUP4 SUB DUP2 PUSH1 0x0 DUP8 GAS CALL ISZERO DUP1 ISZERO PUSH2 0x1122 JUMPI RETURNDATASIZE PUSH1 0x0 DUP1 RETURNDATACOPY RETURNDATASIZE PUSH1 0x0 REVERT JUMPDEST POP POP POP POP PUSH1 0x40 MLOAD RETURNDATASIZE PUSH1 0x1F NOT PUSH1 0x1F DUP3 ADD AND DUP3 ADD DUP1 PUSH1 0x40 MSTORE POP DUP2 ADD SWAP1 PUSH2 0x1146 SWAP2 SWAP1 PUSH2 0x2084 JUMP JUMPDEST POP PUSH32 0x0 PUSH1 0x1 PUSH1 0x1 PUSH1 0xA0 SHL SUB AND DUP7 PUSH1 0x1 PUSH1 0x1 PUSH1 0xA0 SHL SUB AND SUB PUSH2 0x1192 JUMPI PUSH2 0x118B DUP7 DUP7 DUP7 PUSH2 0x1906 JUMP JUMPDEST SWAP3 POP PUSH2 0x11B5 JUMP JUMPDEST PUSH2 0x119D DUP7 DUP7 DUP7 PUSH2 0x1906 JUMP JUMPDEST SWAP3 POP DUP3 PUSH1 0x0 SUB PUSH2 0x11B5 JUMPI PUSH2 0x11B2 DUP7 DUP7 DUP7 PUSH2 0x1BBA JUMP JUMPDEST SWAP3 POP JUMPDEST DUP3 PUSH1 0x0 SUB PUSH2 0x11D6 JUMPI PUSH1 0x40 MLOAD PUSH4 0x255F023 PUSH1 0xE3 SHL DUP2 MSTORE PUSH1 0x4 ADD PUSH1 0x40 MLOAD DUP1 SWAP2 SUB SWAP1 REVERT JUMPDEST DUP4 DUP4 LT ISZERO PUSH2 0x1201 JUMPI PUSH1 0x40 MLOAD PUSH4 0xD28D3EB5 PUSH1 0xE0 SHL DUP2 MSTORE PUSH1 0x4 DUP2 ADD DUP6 SWAP1 MSTORE PUSH1 0x24 DUP2 ADD DUP5 SWAP1 MSTORE PUSH1 0x44 ADD PUSH2 0x616 JUMP JUMPDEST PUSH1 0x40 DUP1 MLOAD DUP7 DUP2 MSTORE PUSH1 0x20 DUP2 ADD DUP6 SWAP1 MSTORE PUSH1 0x1 PUSH1 0x1 PUSH1 0xA0 SHL SUB DUP9 AND SWAP2 PUSH32 0x7BC21558F1CC3CD504A080657A8EBECB07BFFEB02D1C85FF440CC42448C17B21 SWAP2 ADD PUSH1 0x40 MLOAD DUP1 SWAP2 SUB SWAP1 LOG2 POP POP SWAP4 SWAP3 POP POP POP JUMP JUMPDEST PUSH1 0x0 PUSH1 0x64 PUSH2 0x125D PUSH1 0x50 DUP5 PUSH2 0x21E4 JUMP JUMPDEST PUSH2 0x1267 SWAP2 SWAP1 PUSH2 0x21FB JUMP JUMPDEST SWAP1 POP PUSH1 0x0 PUSH1 0x64 PUSH2 0x1278 PUSH1 0x12 DUP6 PUSH2 0x21E4 JUMP JUMPDEST PUSH2 0x1282 SWAP2 SWAP1 PUSH2 0x21FB JUMP JUMPDEST SWAP1 POP PUSH1 0x0 PUSH1 0x64 PUSH2 0x1293 PUSH1 0x2 DUP7 PUSH2 0x21E4 JUMP JUMPDEST PUSH2 0x129D SWAP2 SWAP1 PUSH2 0x21FB JUMP JUMPDEST SWAP1 POP PUSH1 0x0 DUP2 PUSH2 0x12AC DUP5 DUP7 PUSH2 0x20BC JUMP JUMPDEST PUSH2 0x12B6 SWAP2 SWAP1 PUSH2 0x20BC JUMP JUMPDEST SWAP1 POP DUP5 DUP2 GT ISZERO PUSH2 0x12D8 JUMPI DUP3 PUSH2 0x12CB DUP6 DUP8 PUSH2 0x221D JUMP JUMPDEST PUSH2 0x12D5 SWAP2 SWAP1 PUSH2 0x221D JUMP JUMPDEST SWAP2 POP JUMPDEST PUSH1 0x40 MLOAD PUSH4 0x70A08231 PUSH1 0xE0 SHL DUP2 MSTORE ADDRESS PUSH1 0x4 DUP3 ADD MSTORE PUSH1 0x0 SWAP1 PUSH32 0x0 PUSH1 0x1 PUSH1 0x1 PUSH1 0xA0 SHL SUB AND SWAP1 PUSH4 0x70A08231 SWAP1 PUSH1 0x24 ADD PUSH1 0x20 PUSH1 0x40 MLOAD DUP1 DUP4 SUB DUP2 DUP7 GAS STATICCALL ISZERO DUP1 ISZERO PUSH2 0x133F JUMPI RETURNDATASIZE PUSH1 0x0 DUP1 RETURNDATACOPY RETURNDATASIZE PUSH1 0x0 REVERT JUMPDEST POP POP POP POP PUSH1 0x40 MLOAD RETURNDATASIZE PUSH1 0x1F NOT PUSH1 0x1F DUP3 ADD AND DUP3 ADD DUP1 PUSH1 0x40 MSTORE POP DUP2 ADD SWAP1 PUSH2 0x1363 SWAP2 SWAP1 PUSH2 0x216D JUMP JUMPDEST SWAP1 POP DUP2 DUP2 LT ISZERO PUSH2 0x1390 JUMPI PUSH1 0x40 MLOAD PUSH4 0x6D66D93 PUSH1 0xE0 SHL DUP2 MSTORE PUSH1 0x4 DUP2 ADD DUP4 SWAP1 MSTORE PUSH1 0x24 DUP2 ADD DUP3 SWAP1 MSTORE PUSH1 0x44 ADD PUSH2 0x616 JUMP JUMPDEST PUSH1 0x40 DUP1 MLOAD DUP8 DUP2 MSTORE PUSH1 0x20 DUP2 ADD DUP8 SWAP1 MSTORE SWAP1 DUP2 ADD DUP6 SWAP1 MSTORE PUSH1 0x60 DUP2 ADD DUP5 SWAP1 MSTORE PUSH1 0x80 DUP2 ADD DUP3 SWAP1 MSTORE PUSH32 0xAE1988051D273725134B908B2129020347CD421407708907A0F8AD40CA33D9E1 SWAP1 PUSH1 0xA0 ADD PUSH1 0x40 MLOAD DUP1 SWAP2 SUB SWAP1 LOG1 PUSH1 0x40 MLOAD PUSH4 0xA9059CBB PUSH1 0xE0 SHL DUP2 MSTORE CALLER PUSH1 0x4 DUP3 ADD MSTORE PUSH1 0x24 DUP2 ADD DUP7 SWAP1 MSTORE PUSH32 0x0 PUSH1 0x1 PUSH1 0x1 PUSH1 0xA0 SHL SUB AND SWAP1 PUSH4 0xA9059CBB SWAP1 PUSH1 0x44 ADD PUSH1 0x20 PUSH1 0x40 MLOAD DUP1 DUP4 SUB DUP2 PUSH1 0x0 DUP8 GAS CALL ISZERO DUP1 ISZERO PUSH2 0x144C JUMPI RETURNDATASIZE PUSH1 0x0 DUP1 RETURNDATACOPY RETURNDATASIZE PUSH1 0x0 REVERT JUMPDEST POP POP POP POP PUSH1 0x40 MLOAD RETURNDATASIZE PUSH1 0x1F NOT PUSH1 0x1F DUP3 ADD AND DUP3 ADD DUP1 PUSH1 0x40 MSTORE POP DUP2 ADD SWAP1 PUSH2 0x1470 SWAP2 SWAP1 PUSH2 0x2084 JUMP JUMPDEST POP PUSH1 0x40 MLOAD PUSH4 0xA9059CBB PUSH1 0xE0 SHL DUP2 MSTORE PUSH20 0xD2A963866BD6D8DE525AC726AC79DDF46C287486 PUSH1 0x4 DUP3 ADD MSTORE PUSH1 0x24 DUP2 ADD DUP6 SWAP1 MSTORE PUSH32 0x0 PUSH1 0x1 PUSH1 0x1 PUSH1 0xA0 SHL SUB AND SWAP1 PUSH4 0xA9059CBB SWAP1 PUSH1 0x44 ADD PUSH1 0x20 PUSH1 0x40 MLOAD DUP1 DUP4 SUB DUP2 PUSH1 0x0 DUP8 GAS CALL ISZERO DUP1 ISZERO PUSH2 0x14F2 JUMPI RETURNDATASIZE PUSH1 0x0 DUP1 RETURNDATACOPY RETURNDATASIZE PUSH1 0x0 REVERT JUMPDEST POP POP POP POP PUSH1 0x40 MLOAD RETURNDATASIZE PUSH1 0x1F NOT PUSH1 0x1F DUP3 ADD AND DUP3 ADD DUP1 PUSH1 0x40 MSTORE POP DUP2 ADD SWAP1 PUSH2 0x1516 SWAP2 SWAP1 PUSH2 0x2084 JUMP JUMPDEST POP PUSH1 0x40 MLOAD PUSH4 0xA9059CBB PUSH1 0xE0 SHL DUP2 MSTORE PUSH1 0x1 PUSH1 0x1 PUSH1 0xA0 SHL SUB PUSH32 0x0 DUP2 AND PUSH1 0x4 DUP4 ADD MSTORE PUSH1 0x24 DUP3 ADD DUP6 SWAP1 MSTORE PUSH32 0x0 AND SWAP1 PUSH4 0xA9059CBB SWAP1 PUSH1 0x44 ADD PUSH1 0x20 PUSH1 0x40 MLOAD DUP1 DUP4 SUB DUP2 PUSH1 0x0 DUP8 GAS CALL ISZERO DUP1 ISZERO PUSH2 0x15A6 JUMPI RETURNDATASIZE PUSH1 0x0 DUP1 RETURNDATACOPY RETURNDATASIZE PUSH1 0x0 REVERT JUMPDEST POP POP POP POP PUSH1 0x40 MLOAD RETURNDATASIZE PUSH1 0x1F NOT PUSH1 0x1F DUP3 ADD AND DUP3 ADD DUP1 PUSH1 0x40 MSTORE POP DUP2 ADD SWAP1 PUSH2 0x15CA SWAP2 SWAP1 PUSH2 0x2084 JUMP JUMPDEST POP PUSH1 0x40 DUP1 MLOAD DUP8 DUP2 MSTORE PUSH1 0x20 DUP2 ADD DUP8 SWAP1 MSTORE SWAP1 DUP2 ADD DUP6 SWAP1 MSTORE PUSH1 0x60 DUP2 ADD DUP5 SWAP1 MSTORE PUSH1 0x1 PUSH1 0x1 PUSH1 0xA0 SHL SUB PUSH32 0x0 AND SWAP1 CALLER SWAP1 PUSH32 0x2922638CAB0D1B5985F7105FF5C07253FB92CB6CE049948E3F7937F5A29DB0AC SWAP1 PUSH1 0x80 ADD PUSH1 0x40 MLOAD DUP1 SWAP2 SUB SWAP1 LOG3 POP POP POP POP POP POP JUMP JUMPDEST PUSH1 0x0 SLOAD PUSH1 0x1 PUSH1 0x1 PUSH1 0xA0 SHL SUB AND CALLER EQ PUSH2 0x9A1 JUMPI PUSH1 0x40 MLOAD PUSH3 0x461BCD PUSH1 0xE5 SHL DUP2 MSTORE PUSH1 0x20 PUSH1 0x4 DUP3 ADD DUP2 SWAP1 MSTORE PUSH1 0x24 DUP3 ADD MSTORE PUSH32 0x4F776E61626C653A2063616C6C6572206973206E6F7420746865206F776E6572 PUSH1 0x44 DUP3 ADD MSTORE PUSH1 0x64 ADD PUSH2 0x616 JUMP JUMPDEST PUSH1 0x0 DUP1 SLOAD PUSH1 0x1 PUSH1 0x1 PUSH1 0xA0 SHL SUB DUP4 DUP2 AND PUSH1 0x1 PUSH1 0x1 PUSH1 0xA0 SHL SUB NOT DUP4 AND DUP2 OR DUP5 SSTORE PUSH1 0x40 MLOAD SWAP2 SWAP1 SWAP3 AND SWAP3 DUP4 SWAP2 PUSH32 0x8BE0079C531659141344CD1FD0A4F28419497F9722A3DAAFE3B4186F6B6457E0 SWAP2 SWAP1 LOG3 POP POP JUMP JUMPDEST PUSH1 0x0 PUSH2 0x16FF DUP5 DUP5 DUP5 PUSH2 0x101B JUMP JUMPDEST SWAP1 POP PUSH2 0x170A DUP2 PUSH2 0x124E JUMP JUMPDEST POP POP POP POP JUMP JUMPDEST PUSH1 0x40 DUP1 MLOAD PUSH1 0xA0 DUP2 ADD DUP3 MSTORE PUSH1 0x1 PUSH1 0x1 PUSH1 0xA0 SHL SUB DUP5 DUP2 AND DUP3 MSTORE PUSH32 0x0 DUP2 AND PUSH1 0x20 DUP4 ADD MSTORE PUSH2 0x2710 DUP3 DUP5 ADD MSTORE PUSH1 0x60 DUP3 ADD DUP5 SWAP1 MSTORE PUSH1 0x0 PUSH1 0x80 DUP4 ADD DUP2 SWAP1 MSTORE SWAP3 MLOAD PUSH4 0x59D88DBF PUSH1 0xE1 SHL DUP2 MSTORE DUP4 SWAP3 PUSH32 0x0 SWAP1 SWAP3 AND SWAP2 PUSH4 0xB3B11B7E SWAP2 PUSH2 0x17AC SWAP2 SWAP1 PUSH1 0x4 ADD PUSH2 0x219C JUMP JUMPDEST PUSH1 0x20 PUSH1 0x40 MLOAD DUP1 DUP4 SUB DUP2 PUSH1 0x0 DUP8 GAS CALL SWAP3 POP POP POP DUP1 ISZERO PUSH2 0x17E7 JUMPI POP PUSH1 0x40 DUP1 MLOAD PUSH1 0x1F RETURNDATASIZE SWAP1 DUP2 ADD PUSH1 0x1F NOT AND DUP3 ADD SWAP1 SWAP3 MSTORE PUSH2 0x17E4 SWAP2 DUP2 ADD SWAP1 PUSH2 0x216D JUMP JUMPDEST PUSH1 0x1 JUMPDEST PUSH2 0x17F5 JUMPI PUSH1 0x0 SWAP2 POP POP PUSH2 0xEF1 JUMP JUMPDEST SWAP1 POP DUP1 ISZERO PUSH2 0x18FF JUMPI PUSH1 0x40 DUP1 MLOAD PUSH1 0xA0 DUP2 ADD DUP3 MSTORE PUSH1 0x1 PUSH1 0x1 PUSH1 0xA0 SHL SUB PUSH32 0x0 DUP2 AND DUP3 MSTORE PUSH32 0x0 DUP2 AND PUSH1 0x20 DUP4 ADD MSTORE PUSH2 0x2710 DUP3 DUP5 ADD MSTORE PUSH1 0x60 DUP3 ADD DUP5 SWAP1 MSTORE PUSH1 0x0 PUSH1 0x80 DUP4 ADD MSTORE SWAP2 MLOAD PUSH4 0x59D88DBF PUSH1 0xE1 SHL DUP2 MSTORE PUSH32 0x0 SWAP1 SWAP3 AND SWAP2 PUSH4 0xB3B11B7E SWAP2 PUSH2 0x18B4 SWAP2 PUSH1 0x4 ADD PUSH2 0x219C JUMP JUMPDEST PUSH1 0x20 PUSH1 0x40 MLOAD DUP1 DUP4 SUB DUP2 PUSH1 0x0 DUP8 GAS CALL SWAP3 POP POP POP DUP1 ISZERO PUSH2 0x18EF JUMPI POP PUSH1 0x40 DUP1 MLOAD PUSH1 0x1F RETURNDATASIZE SWAP1 DUP2 ADD PUSH1 0x1F NOT AND DUP3 ADD SWAP1 SWAP3 MSTORE PUSH2 0x18EC SWAP2 DUP2 ADD SWAP1 PUSH2 0x216D JUMP JUMPDEST PUSH1 0x1 JUMPDEST PUSH2 0x18FC JUMPI PUSH1 0x0 SWAP2 POP PUSH2 0x18FF JUMP JUMPDEST SWAP2 POP JUMPDEST POP SWAP3 SWAP2 POP POP JUMP JUMPDEST PUSH1 0x0 PUSH32 0x0 PUSH1 0x1 PUSH1 0x1 PUSH1 0xA0 SHL SUB AND DUP5 PUSH1 0x1 PUSH1 0x1 PUSH1 0xA0 SHL SUB AND SUB PUSH2 0x1A8D JUMPI PUSH32 0x0 PUSH1 0x1 PUSH1 0x1 PUSH1 0xA0 SHL SUB AND PUSH4 0x414BF389 PUSH1 0x40 MLOAD DUP1 PUSH2 0x100 ADD PUSH1 0x40 MSTORE DUP1 PUSH32 0x0 PUSH1 0x1 PUSH1 0x1 PUSH1 0xA0 SHL SUB AND DUP2 MSTORE PUSH1 0x20 ADD PUSH32 0x0 PUSH1 0x1 PUSH1 0x1 PUSH1 0xA0 SHL SUB AND DUP2 MSTORE PUSH1 0x20 ADD PUSH2 0x2710 PUSH3 0xFFFFFF AND DUP2 MSTORE PUSH1 0x20 ADD ADDRESS PUSH1 0x1 PUSH1 0x1 PUSH1 0xA0 SHL SUB AND DUP2 MSTORE PUSH1 0x20 ADD TIMESTAMP PUSH2 0x12C PUSH2 0x1A04 SWAP2 SWAP1 PUSH2 0x20BC JUMP JUMPDEST DUP2 MSTORE PUSH1 0x20 ADD DUP7 DUP2 MSTORE PUSH1 0x20 ADD DUP6 DUP2 MSTORE PUSH1 0x20 ADD PUSH1 0x0 PUSH1 0x1 PUSH1 0x1 PUSH1 0xA0 SHL SUB AND DUP2 MSTORE POP PUSH1 0x40 MLOAD DUP3 PUSH4 0xFFFFFFFF AND PUSH1 0xE0 SHL DUP2 MSTORE PUSH1 0x4 ADD PUSH2 0x1A3F SWAP2 SWAP1 PUSH2 0x2230 JUMP JUMPDEST PUSH1 0x20 PUSH1 0x40 MLOAD DUP1 DUP4 SUB DUP2 PUSH1 0x0 DUP8 GAS CALL SWAP3 POP POP POP DUP1 ISZERO PUSH2 0x1A7A JUMPI POP PUSH1 0x40 DUP1 MLOAD PUSH1 0x1F RETURNDATASIZE SWAP1 DUP2 ADD PUSH1 0x1F NOT AND DUP3 ADD SWAP1 SWAP3 MSTORE PUSH2 0x1A77 SWAP2 DUP2 ADD SWAP1 PUSH2 0x216D JUMP JUMPDEST PUSH1 0x1 JUMPDEST PUSH2 0x1A86 JUMPI POP PUSH1 0x0 PUSH2 0x514 JUMP JUMPDEST SWAP1 POP PUSH2 0x514 JUMP JUMPDEST PUSH32 0x0 PUSH1 0x1 PUSH1 0x1 PUSH1 0xA0 SHL SUB AND PUSH4 0x414BF389 PUSH1 0x40 MLOAD DUP1 PUSH2 0x100 ADD PUSH1 0x40 MSTORE DUP1 DUP8 PUSH1 0x1 PUSH1 0x1 PUSH1 0xA0 SHL SUB AND DUP2 MSTORE PUSH1 0x20 ADD PUSH32 0x0 PUSH1 0x1 PUSH1 0x1 PUSH1 0xA0 SHL SUB AND DUP2 MSTORE PUSH1 0x20 ADD PUSH2 0x2710 PUSH3 0xFFFFFF AND DUP2 MSTORE PUSH1 0x20 ADD ADDRESS PUSH1 0x1 PUSH1 0x1 PUSH1 0xA0 SHL SUB AND DUP2 MSTORE PUSH1 0x20 ADD TIMESTAMP PUSH2 0x12C PUSH2 0x1B30 SWAP2 SWAP1 PUSH2 0x20BC JUMP JUMPDEST DUP2 MSTORE PUSH1 0x20 ADD DUP7 DUP2 MSTORE PUSH1 0x20 ADD DUP6 DUP2 MSTORE PUSH1 0x20 ADD PUSH1 0x0 PUSH1 0x1 PUSH1 0x1 PUSH1 0xA0 SHL SUB AND DUP2 MSTORE POP PUSH1 0x40 MLOAD DUP3 PUSH4 0xFFFFFFFF AND PUSH1 0xE0 SHL DUP2 MSTORE PUSH1 0x4 ADD PUSH2 0x1B6B SWAP2 SWAP1 PUSH2 0x2230 JUMP JUMPDEST PUSH1 0x20 PUSH1 0x40 MLOAD DUP1 DUP4 SUB DUP2 PUSH1 0x0 DUP8 GAS CALL SWAP3 POP POP POP DUP1 ISZERO PUSH2 0x1BA6 JUMPI POP PUSH1 0x40 DUP1 MLOAD PUSH1 0x1F RETURNDATASIZE SWAP1 DUP2 ADD PUSH1 0x1F NOT AND DUP3 ADD SWAP1 SWAP3 MSTORE PUSH2 0x1BA3 SWAP2 DUP2 ADD SWAP1 PUSH2 0x216D JUMP JUMPDEST PUSH1 0x1 JUMPDEST PUSH2 0x1BB2 JUMPI POP PUSH1 0x0 PUSH2 0x514 JUMP JUMPDEST SWAP5 SWAP4 POP POP POP POP JUMP JUMPDEST PUSH1 0x0 DUP1 PUSH1 0x0 SWAP1 POP PUSH32 0x0 PUSH1 0x1 PUSH1 0x1 PUSH1 0xA0 SHL SUB AND PUSH4 0x414BF389 PUSH1 0x40 MLOAD DUP1 PUSH2 0x100 ADD PUSH1 0x40 MSTORE DUP1 DUP9 PUSH1 0x1 PUSH1 0x1 PUSH1 0xA0 SHL SUB AND DUP2 MSTORE PUSH1 0x20 ADD PUSH32 0x0 PUSH1 0x1 PUSH1 0x1 PUSH1 0xA0 SHL SUB AND DUP2 MSTORE PUSH1 0x20 ADD PUSH2 0x2710 PUSH3 0xFFFFFF AND DUP2 MSTORE PUSH1 0x20 ADD ADDRESS PUSH1 0x1 PUSH1 0x1 PUSH1 0xA0 SHL SUB AND DUP2 MSTORE PUSH1 0x20 ADD TIMESTAMP PUSH2 0x12C PUSH2 0x1C64 SWAP2 SWAP1 PUSH2 0x20BC JUMP JUMPDEST DUP2 MSTORE PUSH1 0x20 ADD DUP8 DUP2 MSTORE PUSH1 0x20 ADD PUSH1 0x0 DUP2 MSTORE PUSH1 0x20 ADD PUSH1 0x0 PUSH1 0x1 PUSH1 0x1 PUSH1 0xA0 SHL SUB AND DUP2 MSTORE POP PUSH1 0x40 MLOAD DUP3 PUSH4 0xFFFFFFFF AND PUSH1 0xE0 SHL DUP2 MSTORE PUSH1 0x4 ADD PUSH2 0x1CA0 SWAP2 SWAP1 PUSH2 0x2230 JUMP JUMPDEST PUSH1 0x20 PUSH1 0x40 MLOAD DUP1 DUP4 SUB DUP2 PUSH1 0x0 DUP8 GAS CALL SWAP3 POP POP POP DUP1 ISZERO PUSH2 0x1CDB JUMPI POP PUSH1 0x40 DUP1 MLOAD PUSH1 0x1F RETURNDATASIZE SWAP1 DUP2 ADD PUSH1 0x1F NOT AND DUP3 ADD SWAP1 SWAP3 MSTORE PUSH2 0x1CD8 SWAP2 DUP2 ADD SWAP1 PUSH2 0x216D JUMP JUMPDEST PUSH1 0x1 JUMPDEST PUSH2 0x1CE9 JUMPI PUSH1 0x0 SWAP2 POP POP PUSH2 0x514 JUMP JUMPDEST SWAP1 POP DUP1 ISZERO PUSH2 0x1E3A JUMPI PUSH32 0x0 PUSH1 0x1 PUSH1 0x1 PUSH1 0xA0 SHL SUB AND PUSH4 0x414BF389 PUSH1 0x40 MLOAD DUP1 PUSH2 0x100 ADD PUSH1 0x40 MSTORE DUP1 PUSH32 0x0 PUSH1 0x1 PUSH1 0x1 PUSH1 0xA0 SHL SUB AND DUP2 MSTORE PUSH1 0x20 ADD PUSH32 0x0 PUSH1 0x1 PUSH1 0x1 PUSH1 0xA0 SHL SUB AND DUP2 MSTORE PUSH1 0x20 ADD PUSH2 0x2710 PUSH3 0xFFFFFF AND DUP2 MSTORE PUSH1 0x20 ADD ADDRESS PUSH1 0x1 PUSH1 0x1 PUSH1 0xA0 SHL SUB AND DUP2 MSTORE PUSH1 0x20 ADD TIMESTAMP PUSH2 0x12C PUSH2 0x1DB4 SWAP2 SWAP1 PUSH2 0x20BC JUMP JUMPDEST DUP2 MSTORE PUSH1 0x20 ADD DUP5 DUP2 MSTORE PUSH1 0x20 ADD DUP7 DUP2 MSTORE PUSH1 0x20 ADD PUSH1 0x0 PUSH1 0x1 PUSH1 0x1 PUSH1 0xA0 SHL SUB AND DUP2 MSTORE POP PUSH1 0x40 MLOAD DUP3 PUSH4 0xFFFFFFFF AND PUSH1 0xE0 SHL DUP2 MSTORE PUSH1 0x4 ADD PUSH2 0x1DEF SWAP2 SWAP1 PUSH2 0x2230 JUMP JUMPDEST PUSH1 0x20 PUSH1 0x40 MLOAD DUP1 DUP4 SUB DUP2 PUSH1 0x0 DUP8 GAS CALL SWAP3 POP POP POP DUP1 ISZERO PUSH2 0x1E2A JUMPI POP PUSH1 0x40 DUP1 MLOAD PUSH1 0x1F RETURNDATASIZE SWAP1 DUP2 ADD PUSH1 0x1F NOT AND DUP3 ADD SWAP1 SWAP3 MSTORE PUSH2 0x1E27 SWAP2 DUP2 ADD SWAP1 PUSH2 0x216D JUMP JUMPDEST PUSH1 0x1 JUMPDEST PUSH2 0x1E37 JUMPI PUSH1 0x0 SWAP2 POP PUSH2 0x1E3A JUMP JUMPDEST SWAP2 POP JUMPDEST POP SWAP4 SWAP3 POP POP POP JUMP JUMPDEST DUP1 CALLDATALOAD PUSH1 0x1 PUSH1 0x1 PUSH1 0xA0 SHL SUB DUP2 AND DUP2 EQ PUSH2 0xFBD JUMPI PUSH1 0x0 DUP1 REVERT JUMPDEST PUSH1 0x0 PUSH1 0x20 DUP3 DUP5 SUB SLT ISZERO PUSH2 0x1E6B JUMPI PUSH1 0x0 DUP1 REVERT JUMPDEST PUSH2 0x514 DUP3 PUSH2 0x1E42 JUMP JUMPDEST PUSH1 0x0 DUP1 DUP4 PUSH1 0x1F DUP5 ADD SLT PUSH2 0x1E86 JUMPI PUSH1 0x0 DUP1 REVERT JUMPDEST POP DUP2 CALLDATALOAD PUSH8 0xFFFFFFFFFFFFFFFF DUP2 GT ISZERO PUSH2 0x1E9E JUMPI PUSH1 0x0 DUP1 REVERT JUMPDEST PUSH1 0x20 DUP4 ADD SWAP2 POP DUP4 PUSH1 0x20 DUP3 PUSH1 0x5 SHL DUP6 ADD ADD GT ISZERO PUSH2 0x1EB9 JUMPI PUSH1 0x0 DUP1 REVERT JUMPDEST SWAP3 POP SWAP3 SWAP1 POP JUMP JUMPDEST PUSH1 0x0 DUP1 PUSH1 0x0 DUP1 PUSH1 0x0 PUSH1 0x60 DUP7 DUP9 SUB SLT ISZERO PUSH2 0x1ED8 JUMPI PUSH1 0x0 DUP1 REVERT JUMPDEST DUP6 CALLDATALOAD PUSH8 0xFFFFFFFFFFFFFFFF DUP1 DUP3 GT ISZERO PUSH2 0x1EF0 JUMPI PUSH1 0x0 DUP1 REVERT JUMPDEST PUSH2 0x1EFC DUP10 DUP4 DUP11 ADD PUSH2 0x1E74 JUMP JUMPDEST SWAP1 SWAP8 POP SWAP6 POP PUSH1 0x20 DUP9 ADD CALLDATALOAD SWAP2 POP DUP1 DUP3 GT ISZERO PUSH2 0x1F15 JUMPI PUSH1 0x0 DUP1 REVERT JUMPDEST POP PUSH2 0x1F22 DUP9 DUP3 DUP10 ADD PUSH2 0x1E74 JUMP JUMPDEST SWAP7 SWAP10 SWAP6 SWAP9 POP SWAP7 PUSH1 0x40 ADD CALLDATALOAD SWAP5 SWAP4 POP POP POP POP JUMP JUMPDEST PUSH1 0x0 DUP1 PUSH1 0x0 DUP1 PUSH1 0x40 DUP6 DUP8 SUB SLT ISZERO PUSH2 0x1F4A JUMPI PUSH1 0x0 DUP1 REVERT JUMPDEST DUP5 CALLDATALOAD PUSH8 0xFFFFFFFFFFFFFFFF DUP1 DUP3 GT ISZERO PUSH2 0x1F62 JUMPI PUSH1 0x0 DUP1 REVERT JUMPDEST PUSH2 0x1F6E DUP9 DUP4 DUP10 ADD PUSH2 0x1E74 JUMP JUMPDEST SWAP1 SWAP7 POP SWAP5 POP PUSH1 0x20 DUP8 ADD CALLDATALOAD SWAP2 POP DUP1 DUP3 GT ISZERO PUSH2 0x1F87 JUMPI PUSH1 0x0 DUP1 REVERT JUMPDEST POP PUSH2 0x1F94 DUP8 DUP3 DUP9 ADD PUSH2 0x1E74 JUMP JUMPDEST SWAP6 SWAP9 SWAP5 SWAP8 POP SWAP6 POP POP POP POP JUMP JUMPDEST PUSH1 0x0 PUSH1 0x40 DUP3 ADD DUP5 DUP4 MSTORE PUSH1 0x20 PUSH1 0x40 DUP2 DUP6 ADD MSTORE DUP2 DUP6 MLOAD DUP1 DUP5 MSTORE PUSH1 0x60 DUP7 ADD SWAP2 POP DUP3 DUP8 ADD SWAP4 POP PUSH1 0x0 JUMPDEST DUP2 DUP2 LT ISZERO PUSH2 0x1FE1 JUMPI DUP5 MLOAD DUP4 MSTORE SWAP4 DUP4 ADD SWAP4 SWAP2 DUP4 ADD SWAP2 PUSH1 0x1 ADD PUSH2 0x1FC5 JUMP JUMPDEST POP SWAP1 SWAP8 SWAP7 POP POP POP POP POP POP POP JUMP JUMPDEST PUSH1 0x0 DUP1 PUSH1 0x0 PUSH1 0x60 DUP5 DUP7 SUB SLT ISZERO PUSH2 0x2003 JUMPI PUSH1 0x0 DUP1 REVERT JUMPDEST PUSH2 0x200C DUP5 PUSH2 0x1E42 JUMP JUMPDEST SWAP6 PUSH1 0x20 DUP6 ADD CALLDATALOAD SWAP6 POP PUSH1 0x40 SWAP1 SWAP5 ADD CALLDATALOAD SWAP4 SWAP3 POP POP POP JUMP JUMPDEST PUSH1 0x0 DUP1 PUSH1 0x40 DUP4 DUP6 SUB SLT ISZERO PUSH2 0x2034 JUMPI PUSH1 0x0 DUP1 REVERT JUMPDEST PUSH2 0x203D DUP4 PUSH2 0x1E42 JUMP JUMPDEST SWAP5 PUSH1 0x20 SWAP4 SWAP1 SWAP4 ADD CALLDATALOAD SWAP4 POP POP POP JUMP JUMPDEST PUSH1 0x0 PUSH1 0x20 DUP3 DUP5 SUB SLT ISZERO PUSH2 0x205D JUMPI PUSH1 0x0 DUP1 REVERT JUMPDEST DUP2 MLOAD PUSH1 0xFF DUP2 AND DUP2 EQ PUSH2 0xEEE JUMPI PUSH1 0x0 DUP1 REVERT JUMPDEST PUSH4 0x4E487B71 PUSH1 0xE0 SHL PUSH1 0x0 MSTORE PUSH1 0x32 PUSH1 0x4 MSTORE PUSH1 0x24 PUSH1 0x0 REVERT JUMPDEST PUSH1 0x0 PUSH1 0x20 DUP3 DUP5 SUB SLT ISZERO PUSH2 0x2096 JUMPI PUSH1 0x0 DUP1 REVERT JUMPDEST DUP2 MLOAD DUP1 ISZERO ISZERO DUP2 EQ PUSH2 0xEEE JUMPI PUSH1 0x0 DUP1 REVERT JUMPDEST PUSH4 0x4E487B71 PUSH1 0xE0 SHL PUSH1 0x0 MSTORE PUSH1 0x11 PUSH1 0x4 MSTORE PUSH1 0x24 PUSH1 0x0 REVERT JUMPDEST DUP1 DUP3 ADD DUP1 DUP3 GT ISZERO PUSH2 0xEF1 JUMPI PUSH2 0xEF1 PUSH2 0x20A6 JUMP JUMPDEST PUSH1 0x0 PUSH1 0x1 DUP3 ADD PUSH2 0x20E1 JUMPI PUSH2 0x20E1 PUSH2 0x20A6 JUMP JUMPDEST POP PUSH1 0x1 ADD SWAP1 JUMP JUMPDEST PUSH1 0x60 DUP1 DUP3 MSTORE DUP2 ADD DUP6 SWAP1 MSTORE PUSH1 0x0 DUP7 PUSH1 0x80 DUP4 ADD DUP3 JUMPDEST DUP9 DUP2 LT ISZERO PUSH2 0x2129 JUMPI PUSH1 0x1 PUSH1 0x1 PUSH1 0xA0 SHL SUB PUSH2 0x2114 DUP5 PUSH2 0x1E42 JUMP JUMPDEST AND DUP3 MSTORE PUSH1 0x20 SWAP3 DUP4 ADD SWAP3 SWAP1 SWAP2 ADD SWAP1 PUSH1 0x1 ADD PUSH2 0x20FB JUMP JUMPDEST POP DUP4 DUP2 SUB PUSH1 0x20 DUP6 ADD MSTORE DUP6 DUP2 MSTORE PUSH1 0x1 PUSH1 0x1 PUSH1 0xFB SHL SUB DUP7 GT ISZERO PUSH2 0x2149 JUMPI PUSH1 0x0 DUP1 REVERT JUMPDEST DUP6 PUSH1 0x5 SHL SWAP2 POP DUP2 DUP8 PUSH1 0x20 DUP4 ADD CALLDATACOPY PUSH1 0x40 SWAP4 SWAP1 SWAP4 ADD SWAP4 SWAP1 SWAP4 MSTORE POP ADD PUSH1 0x20 ADD SWAP5 SWAP4 POP POP POP POP JUMP JUMPDEST PUSH1 0x0 PUSH1 0x20 DUP3 DUP5 SUB SLT ISZERO PUSH2 0x217F JUMPI PUSH1 0x0 DUP1 REVERT JUMPDEST POP MLOAD SWAP2 SWAP1 POP JUMP JUMPDEST PUSH4 0x4E487B71 PUSH1 0xE0 SHL PUSH1 0x0 MSTORE PUSH1 0x41 PUSH1 0x4 MSTORE PUSH1 0x24 PUSH1 0x0 REVERT JUMPDEST DUP2 MLOAD PUSH1 0x1 PUSH1 0x1 PUSH1 0xA0 SHL SUB SWAP1 DUP2 AND DUP3 MSTORE PUSH1 0x20 DUP1 DUP5 ADD MLOAD DUP3 AND SWAP1 DUP4 ADD MSTORE PUSH1 0x40 DUP1 DUP5 ADD MLOAD PUSH3 0xFFFFFF AND SWAP1 DUP4 ADD MSTORE PUSH1 0x60 DUP1 DUP5 ADD MLOAD SWAP1 DUP4 ADD MSTORE PUSH1 0x80 SWAP3 DUP4 ADD MLOAD AND SWAP2 DUP2 ADD SWAP2 SWAP1 SWAP2 MSTORE PUSH1 0xA0 ADD SWAP1 JUMP JUMPDEST DUP1 DUP3 MUL DUP2 ISZERO DUP3 DUP3 DIV DUP5 EQ OR PUSH2 0xEF1 JUMPI PUSH2 0xEF1 PUSH2 0x20A6 JUMP JUMPDEST PUSH1 0x0 DUP3 PUSH2 0x2218 JUMPI PUSH4 0x4E487B71 PUSH1 0xE0 SHL PUSH1 0x0 MSTORE PUSH1 0x12 PUSH1 0x4 MSTORE PUSH1 0x24 PUSH1 0x0 REVERT JUMPDEST POP DIV SWAP1 JUMP JUMPDEST DUP2 DUP2 SUB DUP2 DUP2 GT ISZERO PUSH2 0xEF1 JUMPI PUSH2 0xEF1 PUSH2 0x20A6 JUMP JUMPDEST PUSH1 0x0 PUSH2 0x100 DUP3 ADD SWAP1 POP PUSH1 0x1 DUP1 PUSH1 0xA0 SHL SUB DUP1 DUP5 MLOAD AND DUP4 MSTORE DUP1 PUSH1 0x20 DUP6 ADD MLOAD AND PUSH1 0x20 DUP5 ADD MSTORE PUSH3 0xFFFFFF PUSH1 0x40 DUP6 ADD MLOAD AND PUSH1 0x40 DUP5 ADD MSTORE DUP1 PUSH1 0x60 DUP6 ADD MLOAD AND PUSH1 0x60 DUP5 ADD MSTORE POP PUSH1 0x80 DUP4 ADD MLOAD PUSH1 0x80 DUP4 ADD MSTORE PUSH1 0xA0 DUP4 ADD MLOAD PUSH1 0xA0 DUP4 ADD MSTORE PUSH1 0xC0 DUP4 ADD MLOAD PUSH1 0xC0 DUP4 ADD MSTORE PUSH1 0xE0 DUP4 ADD MLOAD PUSH2 0x18FF PUSH1 0xE0 DUP5 ADD DUP3 PUSH1 0x1 PUSH1 0x1 PUSH1 0xA0 SHL SUB AND SWAP1 MSTORE JUMP INVALID LOG2 PUSH5 0x6970667358 0x22 SLT KECCAK256 SDIV 0xAB PUSH24 0xD0EDE1563471A79F2DE38149985CCDBBE883296D4F4BA0A4 MSTORE8 DUP5 0xC5 0xD6 SWAP7 PUSH5 0x736F6C6343 STOP ADDMOD SGT STOP CALLER "},"methodIdentifiers":{"BASE_CHAIN_ID()":"efc21e3f","BASE_GOERLI_CHAIN_ID()":"f34a2cf6","BASE_SEPOLIA_CHAIN_ID()":"f1b09fc1","DEFAULT_FEE()":"4fcc1def","DEV_WALLET()":"2d04f820","FEE_DENOMINATOR()":"d73792a9","HIGHER()":"ee7cf415","PLATFORM_FEE()":"34fbc9a1","POL_RECIPIENT()":"367917e3","POL_SHARE()":"44df4be6","POSITION_MANAGER()":"1bea83fe","UNISWAP_POOL()":"1d610577","UNISWAP_QUOTER()":"b268630b","UNISWAP_ROUTER()":"d8264920","USER_SHARE()":"a10eaa89","WETH()":"ad5c4648","WETH_HIGHER_POOL()":"d56d7f06","emergencyWithdraw(address)":"6ff1c9bc","emergencyWithdrawETH()":"84536017","executeBulkSwap(address[],uint256[],uint256)":"4c28233f","executeSwap(address,uint256,uint256)":"7fcf0717","getBulkSwapQuote(address[],uint256[])":"77a59bb5","getMinimumAmount(address)":"3ad49222","getSwapQuote(address,uint256)":"b492fc69","owner()":"8da5cb5b","quoter()":"c6bbd5a7","renounceOwnership()":"715018a6","swapRouter()":"c31c9c07","transferOwnership(address)":"f2fde38b"}}}}}