{"contracts/TestContract.sol":{"TestContract":{"abi":[{"inputs":[],"name":"getValue","outputs":[{"internalType":"uint256","name":"","type":"uint256"}],"stateMutability":"view","type":"function"},{"inputs":[{"internalType":"uint256","name":"_value","type":"uint256"}],"name":"setValue","outputs":[],"stateMutability":"nonpayable","type":"function"},{"inputs":[],"name":"value","outputs":[{"internalType":"uint256","name":"","type":"uint256"}],"stateMutability":"view","type":"function"}],"evm":{"bytecode":{"linkReferences":{},"object":"608060405234801561001057600080fd5b5060bf8061001f6000396000f3fe6080604052348015600f57600080fd5b5060043610603c5760003560e01c8063209652551460415780633fa4f2451460575780635524107714605f575b600080fd5b6000545b60405190815260200160405180910390f35b604560005481565b606f606a3660046071565b600055565b005b600060208284031215608257600080fd5b503591905056fea26469706673582212202046ea6b8939fa4654e142e96b1e51632b6364ce790d91f9197e7ec39562677864736f6c63430008130033","opcodes":"PUSH1 0x80 PUSH1 0x40 MSTORE CALLVALUE DUP1 ISZERO PUSH2 0x10 JUMPI PUSH1 0x0 DUP1 REVERT JUMPDEST POP PUSH1 0xBF DUP1 PUSH2 0x1F PUSH1 0x0 CODECOPY PUSH1 0x0 RETURN INVALID PUSH1 0x80 PUSH1 0x40 MSTORE CALLVALUE DUP1 ISZERO PUSH1 0xF JUMPI PUSH1 0x0 DUP1 REVERT JUMPDEST POP PUSH1 0x4 CALLDATASIZE LT PUSH1 0x3C JUMPI PUSH1 0x0 CALLDATALOAD PUSH1 0xE0 SHR DUP1 PUSH4 0x20965255 EQ PUSH1 0x41 JUMPI DUP1 PUSH4 0x3FA4F245 EQ PUSH1 0x57 JUMPI DUP1 PUSH4 0x55241077 EQ PUSH1 0x5F JUMPI JUMPDEST PUSH1 0x0 DUP1 REVERT JUMPDEST PUSH1 0x0 SLOAD JUMPDEST PUSH1 0x40 MLOAD SWAP1 DUP2 MSTORE PUSH1 0x20 ADD PUSH1 0x40 MLOAD DUP1 SWAP2 SUB SWAP1 RETURN JUMPDEST PUSH1 0x45 PUSH1 0x0 SLOAD DUP2 JUMP JUMPDEST PUSH1 0x6F PUSH1 0x6A CALLDATASIZE PUSH1 0x4 PUSH1 0x71 JUMP JUMPDEST PUSH1 0x0 SSTORE JUMP JUMPDEST STOP JUMPDEST PUSH1 0x0 PUSH1 0x20 DUP3 DUP5 SUB SLT ISZERO PUSH1 0x82 JUMPI PUSH1 0x0 DUP1 REVERT JUMPDEST POP CALLDATALOAD SWAP2 SWAP1 POP JUMP INVALID LOG2 PUSH5 0x6970667358 0x22 SLT KECCAK256 KECCAK256 CHAINID 0xEA PUSH12 0x8939FA4654E142E96B1E5163 0x2B PUSH4 0x64CE790D SWAP2 0xF9 NOT PUSH31 0x7EC39562677864736F6C634300081300330000000000000000000000000000 "},"methodIdentifiers":{"getValue()":"20965255","setValue(uint256)":"55241077","value()":"3fa4f245"}}}}}