{
  "_format": "hh-sol-artifact-1",
  "contractName": "HelloWorld",
  "sourceName": "contracts/HelloWorld.sol",
  "abi": [
    {
      "inputs": [],
      "name": "hello",
      "outputs": [
        {
          "internalType": "string",
          "name": "",
          "type": "string"
        }
      ],
      "stateMutability": "pure",
      "type": "function"
    }
  ],
  "bytecode": "0x608060405234801561001057600080fd5b5060e58061001f6000396000f3fe6080604052348015600f57600080fd5b506004361060285760003560e01c806319ff1d2114602d575b600080fd5b604080518082018252600d81526c48656c6c6f2c20776f726c642160981b60208201529051605a91906063565b60405180910390f35b600060208083528351808285015260005b81811015608e578581018301518582016040015282016074565b506000604082860101526040601f19601f830116850101925050509291505056fea264697066735822122099ab240e4f5928a1f25e868269716413df7efe1d59444232a70bcd51e877a51664736f6c63430008130033",
  "linkReferences": {},
  "deployedLinkReferences": {}
}