{
  "_format": "hh-sol-artifact-1",
  "contractName": "SplitRouterQuoter",
  "sourceName": "contracts/SplitRouterQuoter.sol",
  "abi": [
    {
      "inputs": [
        {
          "internalType": "address",
          "name": "_higher",
          "type": "address"
        },
        {
          "internalType": "address",
          "name": "_weth",
          "type": "address"
        },
        {
          "internalType": "address",
          "name": "_ethUsdPriceFeed",
          "type": "address"
        }
      ],
      "stateMutability": "nonpayable",
      "type": "constructor"
    },
    {
      "inputs": [],
      "name": "BASE_CHAIN_ID",
      "outputs": [
        {
          "internalType": "uint256",
          "name": "",
          "type": "uint256"
        }
      ],
      "stateMutability": "view",
      "type": "function"
    },
    {
      "inputs": [],
      "name": "BASE_GOERLI_CHAIN_ID",
      "outputs": [
        {
          "internalType": "uint256",
          "name": "",
          "type": "uint256"
        }
      ],
      "stateMutability": "view",
      "type": "function"
    },
    {
      "inputs": [],
      "name": "BASE_SEPOLIA_CHAIN_ID",
      "outputs": [
        {
          "internalType": "uint256",
          "name": "",
          "type": "uint256"
        }
      ],
      "stateMutability": "view",
      "type": "function"
    },
    {
      "inputs": [],
      "name": "DEV_WALLET",
      "outputs": [
        {
          "internalType": "address",
          "name": "",
          "type": "address"
        }
      ],
      "stateMutability": "view",
      "type": "function"
    },
    {
      "inputs": [],
      "name": "DUST_THRESHOLD_USD",
      "outputs": [
        {
          "internalType": "uint256",
          "name": "",
          "type": "uint256"
        }
      ],
      "stateMutability": "view",
      "type": "function"
    },
    {
      "inputs": [],
      "name": "ETH_USD_PRICE_FEED",
      "outputs": [
        {
          "internalType": "address",
          "name": "",
          "type": "address"
        }
      ],
      "stateMutability": "view",
      "type": "function"
    },
    {
      "inputs": [],
      "name": "FEE_DENOMINATOR",
      "outputs": [
        {
          "internalType": "uint256",
          "name": "",
          "type": "uint256"
        }
      ],
      "stateMutability": "view",
      "type": "function"
    },
    {
      "inputs": [],
      "name": "HIGHER",
      "outputs": [
        {
          "internalType": "address",
          "name": "",
          "type": "address"
        }
      ],
      "stateMutability": "view",
      "type": "function"
    },
    {
      "inputs": [],
      "name": "PLATFORM_FEE",
      "outputs": [
        {
          "internalType": "uint256",
          "name": "",
          "type": "uint256"
        }
      ],
      "stateMutability": "view",
      "type": "function"
    },
    {
      "inputs": [],
      "name": "POL_SHARE",
      "outputs": [
        {
          "internalType": "uint256",
          "name": "",
          "type": "uint256"
        }
      ],
      "stateMutability": "view",
      "type": "function"
    },
    {
      "inputs": [],
      "name": "USER_SHARE",
      "outputs": [
        {
          "internalType": "uint256",
          "name": "",
          "type": "uint256"
        }
      ],
      "stateMutability": "view",
      "type": "function"
    },
    {
      "inputs": [],
      "name": "WETH",
      "outputs": [
        {
          "internalType": "address",
          "name": "",
          "type": "address"
        }
      ],
      "stateMutability": "view",
      "type": "function"
    },
    {
      "inputs": [
        {
          "internalType": "address[]",
          "name": "tokens",
          "type": "address[]"
        },
        {
          "internalType": "uint256[]",
          "name": "amounts",
          "type": "uint256[]"
        }
      ],
      "name": "getBulkSwapQuote",
      "outputs": [
        {
          "components": [
            {
              "internalType": "address[]",
              "name": "tokens",
              "type": "address[]"
            },
            {
              "internalType": "uint256[]",
              "name": "amounts",
              "type": "uint256[]"
            },
            {
              "internalType": "uint256",
              "name": "totalUserShare",
              "type": "uint256"
            },
            {
              "internalType": "uint256",
              "name": "totalPolShare",
              "type": "uint256"
            },
            {
              "internalType": "uint256",
              "name": "totalPlatformFee",
              "type": "uint256"
            },
            {
              "internalType": "uint256",
              "name": "totalValueUSD",
              "type": "uint256"
            },
            {
              "internalType": "uint256",
              "name": "dustTokensCount",
              "type": "uint256"
            }
          ],
          "internalType": "struct SplitRouterQuoter.DustQuote",
          "name": "",
          "type": "tuple"
        }
      ],
      "stateMutability": "view",
      "type": "function"
    },
    {
      "inputs": [],
      "name": "getETHPrice",
      "outputs": [
        {
          "internalType": "uint256",
          "name": "",
          "type": "uint256"
        }
      ],
      "stateMutability": "view",
      "type": "function"
    },
    {
      "inputs": [
        {
          "internalType": "address",
          "name": "tokenIn",
          "type": "address"
        },
        {
          "internalType": "uint256",
          "name": "amountIn",
          "type": "uint256"
        }
      ],
      "name": "getSwapQuote",
      "outputs": [
        {
          "components": [
            {
              "internalType": "uint256",
              "name": "amountIn",
              "type": "uint256"
            },
            {
              "internalType": "uint256",
              "name": "userShare",
              "type": "uint256"
            },
            {
              "internalType": "uint256",
              "name": "polShare",
              "type": "uint256"
            },
            {
              "internalType": "uint256",
              "name": "platformFee",
              "type": "uint256"
            },
            {
              "internalType": "uint256",
              "name": "totalValueUSD",
              "type": "uint256"
            },
            {
              "internalType": "bool",
              "name": "isDust",
              "type": "bool"
            }
          ],
          "internalType": "struct SplitRouterQuoter.SwapQuote",
          "name": "",
          "type": "tuple"
        }
      ],
      "stateMutability": "view",
      "type": "function"
    },
    {
      "inputs": [
        {
          "internalType": "address",
          "name": "token",
          "type": "address"
        },
        {
          "internalType": "uint256",
          "name": "amount",
          "type": "uint256"
        }
      ],
      "name": "isDustToken",
      "outputs": [
        {
          "internalType": "bool",
          "name": "",
          "type": "bool"
        }
      ],
      "stateMutability": "view",
      "type": "function"
    }
  ],
  "bytecode": "0x60e060405234801561001057600080fd5b50604051610e43380380610e4383398101604081905261002f916100ed565b612105461480610041575062014a3446145b8061004e575062014a3346145b6100b45760405162461bcd60e51b815260206004820152602d60248201527f53706c6974526f7574657251756f7465723a204f6e6c7920776f726b73206f6e60448201526c2042617365206e6574776f726b60981b606482015260840160405180910390fd5b6001600160a01b0392831660805290821660a0521660c052610130565b80516001600160a01b03811681146100e857600080fd5b919050565b60008060006060848603121561010257600080fd5b61010b846100d1565b9250610119602085016100d1565b9150610127604085016100d1565b90509250925092565b60805160a05160c051610ccf610174600039600081816101e5015261071d015260006101be0152600081816102750152818161047001526108890152610ccf6000f3fe608060405234801561001057600080fd5b50600436106101005760003560e01c8063ad5c464811610097578063ee7cf41511610066578063ee7cf41514610270578063efc21e3f14610297578063f1b09fc1146102a0578063f34a2cf6146102aa57600080fd5b8063ad5c4648146101b9578063b0f0abe9146101e0578063b492fc6914610207578063d73792a91461026857600080fd5b806377a59bb5116100d357806377a59bb5146101665780637e99e22814610186578063a10eaa89146101a9578063a607a8d9146101b157600080fd5b806312d1d037146101055780632d04f8201461012357806334fbc9a11461015657806344df4be61461015e575b600080fd5b6101106311e1a30081565b6040519081526020015b60405180910390f35b61013e731831510811ddd00e6180c345f00f12c4536abaa381565b6040516001600160a01b03909116815260200161011a565b610110600281565b610110601281565b6101796101743660046109e2565b6102b4565b60405161011a9190610a89565b610199610194366004610b52565b61070a565b604051901515815260200161011a565b610110605081565b610110610718565b61013e7f000000000000000000000000000000000000000000000000000000000000000081565b61013e7f000000000000000000000000000000000000000000000000000000000000000081565b61021a610215366004610b52565b6107ae565b60405161011a9190600060c082019050825182526020830151602083015260408301516040830152606083015160608301526080830151608083015260a0830151151560a083015292915050565b610110606481565b61013e7f000000000000000000000000000000000000000000000000000000000000000081565b61011061210581565b61011062014a3481565b61011062014a3381565b6102f46040518060e00160405280606081526020016060815260200160008152602001600081526020016000815260200160008152602001600081525090565b8382146103415760405162461bcd60e51b8152602060048201526016602482015275082e4e4c2f2e640d8cadccee8d040dad2e6dac2e8c6d60531b60448201526064015b60405180910390fd5b8361037d5760405162461bcd60e51b815260206004820152600c60248201526b456d7074792061727261797360a01b6044820152606401610338565b6000806000806000805b898110156106615760008b8b838181106103a3576103a3610b7c565b90506020020160208101906103b89190610b92565b6001600160a01b0316036104065760405162461bcd60e51b8152602060048201526015602482015274496e76616c696420746f6b656e206164647265737360581b6044820152606401610338565b600089898381811061041a5761041a610b7c565b905060200201351161046e5760405162461bcd60e51b815260206004820152601d60248201527f416d6f756e74206d7573742062652067726561746572207468616e20300000006044820152606401610338565b7f00000000000000000000000000000000000000000000000000000000000000006001600160a01b03168b8b838181106104aa576104aa610b7c565b90506020020160208101906104bf9190610b92565b6001600160a01b0316036105155760405162461bcd60e51b815260206004820152601c60248201527f43616e6e6f7420737761702048494748455220746f20484947484552000000006044820152606401610338565b600061055f8c8c8481811061052c5761052c610b7c565b90506020020160208101906105419190610b92565b8b8b8581811061055357610553610b7c565b90506020020135919050565b905061056b8185610bca565b93506311e1a300811015610587578261058381610bdd565b9350505b6000606460508c8c8681811061059f5761059f610b7c565b905060200201356105b09190610bf6565b6105ba9190610c0d565b90506000606460128d8d878181106105d4576105d4610b7c565b905060200201356105e59190610bf6565b6105ef9190610c0d565b90506000606460028e8e8881811061060957610609610b7c565b9050602002013561061a9190610bf6565b6106249190610c0d565b9050610630838b610bca565b995061063c828a610bca565b98506106488189610bca565b975050505050808061065990610bdd565b915050610387565b506040518060e001604052808b8b808060200260200160405190810160405280939291908181526020018383602002808284376000920191909152505050908252506040805160208b810282810182019093528b82529283019290918c918c918291850190849080828437600092019190915250505090825250602081019690965260408601949094526060850192909252608084015260a09092019190915295945050505050565b6311e1a30081105b92915050565b6000807f000000000000000000000000000000000000000000000000000000000000000090506000816001600160a01b031663feaf968c6040518163ffffffff1660e01b815260040160a060405180830381865afa15801561077e573d6000803e3d6000fd5b505050506040513d601f19601f820116820180604052508101906107a29190610c49565b50919695505050505050565b6107e96040518060c0016040528060008152602001600081526020016000815260200160008152602001600081526020016000151581525090565b6001600160a01b0383166108375760405162461bcd60e51b8152602060048201526015602482015274496e76616c696420746f6b656e206164647265737360581b6044820152606401610338565b600082116108875760405162461bcd60e51b815260206004820152601d60248201527f416d6f756e74206d7573742062652067726561746572207468616e20300000006044820152606401610338565b7f00000000000000000000000000000000000000000000000000000000000000006001600160a01b0316836001600160a01b0316036109085760405162461bcd60e51b815260206004820152601c60248201527f43616e6e6f7420737761702048494748455220746f20484947484552000000006044820152606401610338565b816311e1a30081106000606461091f605085610bf6565b6109299190610c0d565b90506000606461093a601288610bf6565b6109449190610c0d565b905060006064610955600289610bf6565b61095f9190610c0d565b6040805160c0810182529889526020890194909452928701919091525060608501526080840191909152151560a083015250919050565b60008083601f8401126109a857600080fd5b50813567ffffffffffffffff8111156109c057600080fd5b6020830191508360208260051b85010111156109db57600080fd5b9250929050565b600080600080604085870312156109f857600080fd5b843567ffffffffffffffff80821115610a1057600080fd5b610a1c88838901610996565b90965094506020870135915080821115610a3557600080fd5b50610a4287828801610996565b95989497509550505050565b600081518084526020808501945080840160005b83811015610a7e57815187529582019590820190600101610a62565b509495945050505050565b6020808252825160e083830152805161010084018190526000929182019083906101208601905b80831015610ad95783516001600160a01b03168252928401926001929092019190840190610ab0565b5092860151858403601f1901604087015292610af58185610a4e565b93505050506040840151606084015260608401516080840152608084015160a084015260a084015160c084015260c084015160e08401528091505092915050565b80356001600160a01b0381168114610b4d57600080fd5b919050565b60008060408385031215610b6557600080fd5b610b6e83610b36565b946020939093013593505050565b634e487b7160e01b600052603260045260246000fd5b600060208284031215610ba457600080fd5b610bad82610b36565b9392505050565b634e487b7160e01b600052601160045260246000fd5b8082018082111561071257610712610bb4565b600060018201610bef57610bef610bb4565b5060010190565b808202811582820484141761071257610712610bb4565b600082610c2a57634e487b7160e01b600052601260045260246000fd5b500490565b805169ffffffffffffffffffff81168114610b4d57600080fd5b600080600080600060a08688031215610c6157600080fd5b610c6a86610c2f565b9450602086015193506040860151925060608601519150610c8d60808701610c2f565b9050929550929590935056fea2646970667358221220d00ff5ec3b329e8fc68d237913c855e76c89da993440adfe6968b6f060dda6a364736f6c63430008130033",
  "linkReferences": {},
  "deployedLinkReferences": {}
}